:020000040800F2
:10000000D806002029020008D10D0008C90D0008FB
:10001000CD0D00081F040008B10E0008000000000C
:10002000000000000000000000000000DB0D0008E0
:100030002304000800000000D90D0008DD0D0008B1
:10004000430200084302000843020008430200087C
:10005000430200084302000843020008430200086C
:10006000430200084302000843020008430200085C
:10007000430200084302000843020008430200084C
:10008000430200084302000843020008430200083C
:10009000430200084302000843020008430200082C
:1000A000430200084302000843020008430200081C
:1000B000430200084302000843020008430200080C
:1000C00043020008430200084302000843020008FC
:1000D00043020008430200084302000843020008EC
:1000E00043020008430200084302000843020008DC
:1000F00043020008430200084302000843020008CC
:1001000043020008430200084302000843020008BB
:1001100043020008430200084302000843020008AB
:10012000430200084302000843020008430200089B
:100130004302000800000000000000004302000825
:10014000430200084302000843020008430200087B
:10015000430200084302000843020008430200086B
:10016000430200084302000843020008430200085B
:1001700043020008430200080000000000000000E5
:10018000430200084302000800F002F800F03CF8C7
:100190000AA090E8000C82448344AAF10107DA45E2
:1001A00001D100F031F8AFF2090EBAE80F0013F0F8
:1001B000010F18BFFB1A43F001031847040F00009A
:1001C000240F0000103A24BF78C878C1FAD852072B
:1001D00024BF30C830C144BF04680C6070470000C1
:1001E0000023002400250026103A28BF78C1FBD840
:1001F000520728BF30C148BF0B6070471FB500F0E1
:100200004DFF1FBD10B510BD00F0CFF81146FFF730
:10021000F5FF00F06BFE00F0EDF803B4FFF7F2FF1E
:1002200003BC00F0F5F80000094880470948004782
:10023000FEE7FEE7FEE7FEE7FEE7FEE7FEE7FEE796
:10024000FEE7FEE704480549054A064B70470000F3
:100250009D0E000889010008D8000020D806002063
:10026000D8020020D802002053EA020C00F0698076
:100270002DE9F04B4FF00006002B1FBFB3FA83F5BA
:1002800003FA05F424FA05F65E4012BF1643B2FAEB
:1002900082F502FA05F4C5F120051EBF22FA05FC1D
:1002A00044EA0C04203556EA044C4FEA144418BFC3
:1002B000641C4FF000084FF00009904271EB030CF2
:1002C00039D3002919BFB1FA81F701FA07F6B0FA5C
:1002D00080F700FA07F6C7F120071EBF20FA07FCD7
:1002E00046EA0C062037B6FBF4FCA7EB0507103FE7
:1002F00007F01F0BCBF120060CFA0BFB2CFA06F6CD
:1003000044BFB3460026202FA4BF5E464FF0000B2B
:100310005BEA060C08BF4FF0010B19EB0B09ABFBB6
:10032000027C48EB0608C01B06FB02CC0BFB03CC8F
:1003300071EB0C01C1E70B46024641464846BDE859
:10034000F08B13B54FF000004FF00001AFF30080C9
:10035000BDE81C4070474FF0000200B513469446BC
:100360009646203922BFA0E80C50A0E80C50B1F10D
:100370002001BFF4F7AF090728BFA0E80C5048BF21
:100380000CC05DF804EB890028BF40F8042B08BFBF
:10039000704748BF20F8022B11F0804F18BF00F8BB
:1003A000012B7047704770477047754600F02CF876
:1003B000AE4605006946534620F00700854618B052
:1003C00020B5FFF73FFFBDE820404FF000064FF09B
:1003D00000074FF000084FF0000B21F00701AC467A
:1003E000ACE8C009ACE8C009ACE8C009ACE8C00999
:1003F0008D46704710B50446AFF300802046BDE837
:100400001040FFF70ABF000000487047740000204A
:1004100001491820ABBEFEE726000200704700BF6E
:10042000FEE7704772B600BFFEE72DE9D34F8C465A
:100430000099B1F5803F01DDA1F50031002902DA14
:10044000C1F1000A00E08A46D04681FB08AB4FEAC2
:100450001A4A4AEA0B424FEA820ACAEB8100002894
:1004600002DAC0F1000A00E08246D14680FB09BAF8
:100470004FEA0A4E4EEA1B44261A43F69A1A86FBA6
:100480000ABA4FEA0A4E4EEA1B4707EB000ACCF8BD
:1004900000A001F50041B1F5803F01DDA1F500317B
:1004A000002902DAC1F1000A00E08A46D04681FB49
:1004B00008BA4FEA0A4E4EEA1B424FEA820ACAEBDA
:1004C0008100002802DAC0F1000A00E08246D1462D
:1004D00080FB09AB4FEA1A4A4AEA0B44261A43F654
:1004E0009A1A86FB0ABA4FEA0A4E4EEA1B4707EBF6
:1004F000000ACCF804A0BDE8DC8F000001480068C9
:100500007047000040000020034800680349097854
:10051000084401490860704740000020480000205E
:1005200010B50D48006840F400700B49086008469B
:10053000006840F4806008600846006840F48070FD
:100540000860032000F092F80F2000F007F800F098
:100550002BF8002010BD0000003C024070B504469E
:100560000E4800784FF47A71B1FBF0F00C4909683D
:10057000B1FBF0F5284600F00DFC08B1012070BD7C
:10058000102C07D200222146501E00F031F80548F9
:10059000046001E00120F2E70020F0E748000020BD
:1005A0003C0000204400002008B500BF002000905F
:1005B0000E48006840F480400C4908600846006816
:1005C00000F48040009000BF00BF00BF00200090FA
:1005D000081F006840F08050091F08600846006846
:1005E00000F08050009000BF00BF08BD44380240BA
:1005F0002DE9F05F80460D461646002700F05AFCB4
:10060000074639462A46334601F00700C0F1070A7B
:10061000BAF1040F02D94FF0040A01E0C0F1070A51
:10062000D14600F1040ABAF1070F02D24FF0000AD6
:1006300001E0A0F1030AD4464FF0010A0AFA09FAD0
:10064000AAF1010A0AEA020A0AFA0CFA4FF0010BAF
:100650000BFA0CFBABF1010B0BEA030B4AEA0B04A0
:100660002146404600F02EFCBDE8F09F00BF00F0A0
:100670000702064B19684FF6FF031940044B0B4362
:1006800043EA0221014B196000BF70470CED00E006
:100690000000FA057047000070B504460D460CB91D
:1006A000012070BD5848006800F00700A84209D238
:1006B00055490D700846006800F00700A84201D0B7
:1006C0000120EEE7207800F0020002281DD12078FA
:1006D00000F00400042805D14C48006840F4E050C4
:1006E0004A490860207800F00800082805D14748EA
:1006F000006840F46040454908604448006820F0C4
:10070000F000A168084341490860207800F001002A
:10071000A8B36068012807D13C4808380068C0F3D6
:100720004040B8B90120BCE76068022802D0606888
:10073000032807D1354808380068C0F3406048B93D
:100740000120AEE7314808380068C0F3400008B91E
:100750000120A6E72D48006820F0030061680843E7
:100760002A490860FFF7CAFE064609E0FFF7C6FE01
:10077000801B41F28831884202D9032091E707E0CB
:100780002248006800F00C006168B0EB810FEDD1E9
:100790001D48006800F00700A84209D91A490D70E9
:1007A0000846006800F00700A84201D0012078E761
:1007B000207800F00400042807D11448006820F4D1
:1007C000E050E168084311490860207800F0080013
:1007D000082808D10D48006820F46040216940EAEB
:1007E000C1000A49086000F01FF808490968C1F310
:1007F0000311074A515CC840064908600648006872
:10080000FFF7ACFE00204CE7003C024008380240F5
:10081000A61000083C0000204400002001200149EF
:10082000C8647047000047422DE9F04700240025C6
:100830000026A1462548006800F00C0020B10428DD
:1008400005D008283AD105E0DFF8849039E0DFF8D8
:10085000849036E01D48001F006800F03F041B48EC
:10086000001F006800F4800078B11A481749091F7A
:100870000968C1F38811A0FB0170014622460023DC
:100880003846FFF7F1FC05460EE011480F49091FF5
:100890000968C1F38811A0FB0170014622460023BC
:1008A0003846FFF7E1FC05460848001F0068C0F322
:1008B0000140401C4600B5FBF6F902E0DFF810905D
:1008C00000BF00BF4846BDE8F0870000083802407E
:1008D0000024F40000127A0010B50648006800F009
:1008E0008000802805D1FFF7D5FE80200149891CB2
:1008F000087010BD0C380240F8B504460CB9012050
:10090000F8BD207800F00100002874D0F948006894
:1009100000F00C0004280DD0F648006800F00C0030
:10092000082813D1F348001F006800F48000B0F5D8
:10093000800F0BD1EF4808380068C0F34040002812
:1009400059D06068002856D10120D9E700BF6068FF
:10095000B0F5803F08D1E7480838006840F480309F
:10096000E449083908601EE06068B0F5A02F0DD199
:10097000E0480838006840F48020DE490839086003
:100980000846006840F4803008600CE0D948083818
:10099000006820F48030D7490839086008460068AC
:1009A00020F48020086000BF606890B1FFF7A6FDCA
:1009B000054606E0FFF7A2FD401B642801D903208D
:1009C0009EE7CC4808380068C0F340400028F1D0CA
:1009D00011E0FFF793FD054606E0FFF78FFD401B92
:1009E000642801D903208BE7C24808380068C0F3A7
:1009F00040400028F1D1207800F0020002285FD1A9
:100A0000BC48006800F00C0058B1BA48006800F01B
:100A10000C0008281CD1B748001F006800F48000B3
:100A2000B0B9B44808380068C0F3400020B1E068AD
:100A3000012801D0012063E7AE480838006820F0A3
:100A4000F800216940EAC100AA490839086037E086
:100A5000E06800B30120A8490860FFF74FFD054694
:100A600006E0FFF74BFD401B022801D9032047E7B2
:100A7000A04808380068C0F340000028F1D09D4825
:100A80000838006820F0F800216940EAC10099495F
:100A90000839086014E0002097490860FFF72EFD30
:100AA000054606E0FFF72AFD401B022801D9032076
:100AB00026E7904808380068C0F340000028F1D1CC
:100AC000207800F0080008282CD16069A8B1012026
:100AD0008A490860FFF712FD054606E0FFF70EFDA4
:100AE000401B022801D903200AE782486C300068C5
:100AF000C0F340000028F1D014E000207F490860D6
:100B0000FFF7FCFC054606E0FFF7F8FC401B022857
:100B100001D90320F4E677486C300068C0F3400048
:100B20000028F1D1207800F00400042870D10027BB
:100B300070483830006800F0805090B900BF002045
:100B400000906C483830006840F080506949383176
:100B500008600846006800F08050009000BF00BFA9
:100B600001276748006800F48070B0B964480068E5
:100B700040F4807062490860FFF7C0FC054606E05B
:100B8000FFF7BCFC401B022801D90320B8E65C48F3
:100B9000006800F480700028F2D000BFA06801282F
:100BA00008D154486830006840F00100514968316C
:100BB00008601DE0A06805280DD14E486830006827
:100BC00040F004004B49683108600846006840F076
:100BD000010008600CE047486830006820F0010020
:100BE0004449683108600846006820F00400086045
:100BF00000BFA068A8B1FFF781FC054609E0FFF738
:100C00007DFC401B41F28831884202D9032077E6FF
:100C100026E0384868300068C0F340000028EED075
:100C200013E0FFF76BFC054608E0FFF767FC401B8D
:100C300041F28831884201D9032061E62D486830AD
:100C40000068C0F340000028EFD1012F07D12948E8
:100C50003830006820F0805026493831086000BFE5
:100C6000A069002845D02348006800F00C0008283F
:100C70005DD0A069022845D100201F490866FFF712
:100C80003DFC054606E0FFF739FC401B022801D970
:100C9000032035E6174808380068C0F34060002894
:100CA000F1D1D4E907010843616A40EA81110122C8
:100CB000A06AC2EB500041EA00412C20005D41EAED
:100CC00000600C49091F086001200B490866FFF706
:100CD00015FC054606E0FFF711FC401B022801D970
:100CE00003200DE6034808380068C0F34060002880
:100CF000F1D049E00838024000004742800E4742E8
:100D000000700040002021490866FFF7F7FB054608
:100D100006E0FFF7F3FB401B022801D90320EFE5B3
:100D20001B480068C0F340600028F2D12CE0A069A5
:100D3000012800D1E4E51648001D0668A0690128D5
:100D400020D006F48001E06981421BD106F03F010A
:100D5000206A814216D147F6C0703040616AB0EB1C
:100D6000811F0FD106F440310122A06AC2EB50006E
:100D7000B1EB004F06D106F070612C20005DB1EBA5
:100D8000006F01D00120BBE50020B9E5000047421B
:100D90000038024070B504462546681EB0F1807FD9
:100DA00001D301200FE0681E4FF0E02148610F21C0
:100DB0004FF0FF3000F086F800204FF0E02188610E
:100DC00007200861002070BD00BFFEE700BFFEE7FE
:100DD000FFF782FD00BFFEE77047704710B5FFF7D1
:100DE00093FB10BD00B593B0302107A8FFF7B3FA0D
:100DF000142102A8FFF7AFFA00BF00200190254898
:100E0000006840F08050234908600846006800F000
:100E10008050019000BF00BF00BF002001901E481D
:100E2000006840F480401C4908600846006800F4EF
:100E30008040019000BF00BF01200790000408908F
:100E400002200D9041050E9104210F91A8211091CF
:100E5000022111910421129107A8FFF74DFD08B15D
:100E6000FFF7E0FA0F200290022003900020049088
:100E70004FF4A05005904FF480500690052102A831
:100E8000FFF70AFC08B1FFF7CDFAFFF7C7FC13B074
:100E900000BD000040380240007000400348006878
:100EA00040F47000014908607047000088ED00E0E0
:100EB00000BFFEE702480068C0F302207047000050
:100EC0000CED00E010B5002804DB0A07130E054AFC
:100ED000135406E00A07140E034A00F00F031B1F09
:100EE000D45410BD00E400E018ED00E086B000200E
:100EF000614908806149C86108624862FFF710FBD8
:100F0000FFF770FFB6E05C4804880088A0F5AA40AF
:100F1000553887B25848008845F25551084480B288
:100F200005906000049078000390059840000290BE
:100F300053490498FFF779FA52490398FFF775FA75
:100F400051490298FFF771FA4B48008864304A49CA
:100F500008804B4800684949C8614A4800680862EF
:100F600049480068486200BF8C46DCF81C00DCF889
:100F70002010DCF82420DFF814C1CCF800008B1A14
:100F800049F2CD3C83FB0C5C66464FEA154C4CEABB
:100F9000064CDFF8F880C8F804C000BF00BFC146A7
:100FA000D9F80000D9F80410DFF8D490D9F800C0BF
:100FB000D9F8048080FB08E981FB0CAB1EEB0A0228
:100FC00049EB0B034FEA124949EA0349DFF8C0A095
:100FD000CAF8009081FB08E980FB0CABBEEB0A0568
:100FE00069EB0B064FEA154949EA0649DFF8A0A06C
:100FF000CAF8049000BF0020264908604FF48030F2
:10100000486000BF8946D9F80000D9F80430DFF8FD
:101010007090D9F800C0D9F8048080FB08E983FB00
:101020000CABBEEB0A0169EB0B024FEA114949EA2E
:101030000249DFF864A0CAF8009080FB0CE983FB4A
:1010400008AB1EEB0A0549EB0B064FEA154949EAC6
:101050000649DFF844A0CAF8049000BF00200190C0
:1010600002E00198401C019044F6206101988842FA
:10107000F7D300BF47E70000180000204C00002015
:101080000000002008000020100000201C000020AC
:10109000240000202C000020340000204FF040707D
:1010A000E1EE100A7047000000000000000001029D
:1010B0000304060708090000000001020304000001
:1010C000E0100008000000204C000000C4010008EF
:1010D0002C1100084C0000208C060000E0010008E4
:1010E0000000000000000000000000000000000000
:1010F00000000000000000000000000000000000F0
:1011000000000000000000000000000000000000DF
:101110000000000000000000000000000024F400B7
:0C112000000000001000000001000000B2
:040000050800018965
:00000001FF
