:020000040800F2
:10000000E80700202902000851230008ED2000081D
:100010004D23000899070008352B00080000000058
:10002000000000000000000000000000CD240008D7
:10003000610900080000000059230008E1240008BD
:10004000430200084302000843020008430200087C
:10005000430200084302000843020008430200086C
:10006000430200084302000843020008430200085C
:10007000430200084302000843020008430200084C
:10008000430200084302000843020008430200083C
:10009000430200084302000843020008430200082C
:1000A000430200084302000843020008430200081C
:1000B000430200084302000843020008430200080C
:1000C00043020008430200084302000843020008FC
:1000D00043020008430200084302000843020008EC
:1000E00043020008430200084302000843020008DC
:1000F00043020008430200084302000843020008CC
:1001000043020008430200084302000843020008BB
:1001100043020008430200084302000843020008AB
:10012000430200084302000843020008430200089B
:100130004302000800000000000000004302000825
:10014000430200084302000843020008430200087B
:10015000430200084302000843020008430200086B
:10016000430200084302000843020008430200085B
:1001700043020008430200080000000000000000E5
:10018000430200084302000800F002F800F03CF8C7
:100190000AA090E8000C82448344AAF10107DA45E2
:1001A00001D100F031F8AFF2090EBAE80F0013F0F8
:1001B000010F18BFFB1A43F001031847E432000097
:1001C00004330000103A24BF78C878C1FAD8520727
:1001D00024BF30C830C144BF04680C6070470000C1
:1001E0000023002400250026103A28BF78C1FBD840
:1001F000520728BF30C148BF0B6070471FB503F0DE
:1002000038F91FBD10B510BD00F0CFF81146FFF74B
:10021000F5FF02F0ADFC00F0EDF803B4FFF7F2FFDC
:1002200003BC00F0F5F80000094880470948004782
:10023000FEE7FEE7FEE7FEE7FEE7FEE7FEE7FEE796
:10024000FEE7FEE704480549054A064B70470000F3
:10025000A125000889010008E8010020E807002026
:10026000E8030020E803002053EA020C00F0698054
:100270002DE9F04B4FF00006002B1FBFB3FA83F5BA
:1002800003FA05F424FA05F65E4012BF1643B2FAEB
:1002900082F502FA05F4C5F120051EBF22FA05FC1D
:1002A00044EA0C04203556EA044C4FEA144418BFC3
:1002B000641C4FF000084FF00009904271EB030CF2
:1002C00039D3002919BFB1FA81F701FA07F6B0FA5C
:1002D00080F700FA07F6C7F120071EBF20FA07FCD7
:1002E00046EA0C062037B6FBF4FCA7EB0507103FE7
:1002F00007F01F0BCBF120060CFA0BFB2CFA06F6CD
:1003000044BFB3460026202FA4BF5E464FF0000B2B
:100310005BEA060C08BF4FF0010B19EB0B09ABFBB6
:10032000027C48EB0608C01B06FB02CC0BFB03CC8F
:1003300071EB0C01C1E70B46024641464846BDE859
:10034000F08B13B54FF000004FF00001AFF30080C9
:10035000BDE81C4070474FF0000200B513469446BC
:100360009646203922BFA0E80C50A0E80C50B1F10D
:100370002001BFF4F7AF090728BFA0E80C5048BF21
:100380000CC05DF804EB890028BF40F8042B08BFBF
:10039000704748BF20F8022B11F0804F18BF00F8BB
:1003A000012B7047704770477047754600F02CF876
:1003B000AE4605006946534620F00700854618B052
:1003C00020B5FFF73FFFBDE820404FF000064FF09B
:1003D00000074FF000084FF0000B21F00701AC467A
:1003E000ACE8C009ACE8C009ACE8C009ACE8C00999
:1003F0008D46704710B50446AFF300802046BDE837
:100400001040FFF70ABF0000004870478401002039
:1004100001491820ABBEFEE726000200704700002D
:1004200090ED000A80ED030A90ED000AD0ED010A7C
:10043000B0EE001A01EE200ADFED030A20EE200ADA
:1004400080ED040A704700003ACD133F90ED001A8A
:1004500021EE201AD0ED011A01EEC01A80ED031A28
:1004600090ED001A21EE001AD0ED011A01EEA01A4B
:1004700080ED041A704790ED001A21EE201AD0ED9D
:10048000011A01EE801A80ED031A90ED001AB1EE08
:10049000411A21EE001AD0ED011A01EEA01A80EDEA
:1004A000041A70479FED6F5AF0EE455A9FED6E5A51
:1004B000B0EE456A90ED015AB0EE453A90ED015A22
:1004C000D0ED006A9FED677A17EE265AF6EE006AC5
:1004D00025EE265AF0EE453A90ED015AD0ED006A2D
:1004E0009FED627A17EE265AF6EE006A25EE265A3E
:1004F000B0EE454A0021B5EEC03AF1EE10FA00DD4B
:10050000491CF5EEC03AF1EE10FA00DD891CB5EE9B
:10051000C04AF1EE10FA00DD091D90ED035ADFED3F
:10052000516A25EE265AD0ED026A85EE260A072981
:100530002FD2DFE801F02E0925041712200063EE08
:10054000800A23EE001A29E0B1EE635A65EE000A34
:10055000B1EE445A25EE001A20E063EE000A24EEC4
:10056000001A1BE0B1EE435A65EE000AB1EE635A81
:1005700025EE001A12E064EE000A23EE801A0DE068
:10058000B1EE445A65EE000AB1EE435A25EE001A68
:1005900004E0DFED370A9FED361A00BF00BF70EEB2
:1005A000814A90ED035AB4EEE45AF1EE10FA0ED2FD
:1005B000D0ED036A86EEA47AB0EE475A60EE856A03
:1005C000F0EE660A61EE056AB0EE661A00BF90EDC5
:1005D000035A35EE605A35EE415AF5EE006A65EE83
:1005E000261AB6EE005AB0EE612A00EE852AB6EE63
:1005F000005AF0EE422A41EE052A07292FD2DFE801
:1006000001F02E0B270419122000C0ED041A80ED12
:10061000052AC0ED062A22E080ED042AC0ED051A65
:10062000C0ED062A1BE0C0ED042AC0ED051A80EDDE
:10063000062A14E0C0ED042A80ED052AC0ED061A52
:100640000DE080ED042AC0ED052AC0ED061A06E093
:10065000C0ED041AC0ED052A80ED062A00BF00BFD8
:1006600070470000D7B3DD3F3ACD133FD7B3DDBFAE
:1006700000000000B0EE401AB0EE410ADFED402A63
:10068000B4EEE20AF1EE10FA05DDDFED3E2A70EE7F
:10069000622AB0EE620AB5EEC00AF1EE10FA02D29A
:1006A000F1EE402A01E0F0EE402AF0EE621ADFEDB2
:1006B000362A60EE222A9FED353A20EE033AF0EE1C
:1006C000620A43EE610AF5EEC00AF1EE10FA02D2B8
:1006D000F1EE602A01E0F0EE602AB0EE622AF0EE60
:1006E000602A50EE822ADFED2A3AB0EE603A03EE3D
:1006F000A23A80ED003ADFED272A70EE222AB0EE12
:10070000620ADFED1F2AB4EEE20AF1EE10FA05DD0F
:10071000DFED1C2A70EE622AB0EE620AB5EEC00A66
:10072000F1EE10FA02D2F1EE402A01E0F0EE402A9A
:10073000F0EE621ADFED142A60EE222A9FED133AE2
:1007400020EE033A43EE612AF0EE620AF5EEC00AAB
:10075000F1EE10FA02D2F1EE602A01E0F0EE602A2A
:10076000B0EE622AF0EE602A50EE822ADFED083AFF
:10077000B0EE603A03EEA23A80ED013A7047000015
:10078000DB0F4940DB0FC94083F9A23F7B81CF3E9D
:100790006666663EDB0FC93F00BFFEE710B54FF44B
:1007A0000051024801F0D9FD10BD000000080240D0
:1007B00010B54FF40051024801F089FE10BD000051
:1007C0000008024070B500F04FF8C0F30A0400F0D2
:1007D00050F8C0F30A0504F4806028B104F03F002B
:1007E00000B100BF012070BD05F0800008B10120FC
:1007F000F9E70020F7E7000010B54FF480510248F8
:1008000001F0ABFD10BD00000004024010B54FF434
:100810008051024801F05BFE10BD00000004024060
:1008200008B5FFF7E9FF012000F0B8F8FFF7EEFF89
:10083000142000F0B3F80A2000231A46194600904D
:10084000022000F040F8002001231A4619460090CB
:1008500000F050F800F013F802490870FFF7B2FFFB
:1008600008BD00004100002010B5002000F00EF887
:1008700010BD10B54FF4006000F008F810BD10B5C1
:10088000FFF7F7FF044604F00F0010BD7CB50446E7
:1008900044F4004528128DF80400E8B28DF80500F4
:1008A000FFF77CFF4FF4FA730222694601A800F0BB
:1008B00059F8FFF77DFF0021084600F032F80646A0
:1008C000C6F30A007CBD2DE9F04704460D461746E5
:1008D0001E46DDF8208044EA850040EAC70040EA71
:1008E000061040EA881949464FF4805000F019F884
:1008F000BDE8F0872DE9F04704460D4617461E4631
:10090000DDF8208044EA850040EA071040EA4610FE
:1009100040EA881949464FF4C05000F002F8BDE89B
:10092000F0877CB504460D46C5F30A0040EA04068C
:1009300030128DF80400F0B28DF80500FFF72EFF9D
:100940004FF4FA730222694601A800F00BF8FFF792
:100950002FFF9DF801009DF8001040EA01207CBDAA
:10096000704700002DE9F84305460C4616461F4621
:100970003346224629460648009700F03DFE804651
:10098000B8F1000F02D12088BDE8F8830020FBE712
:100990009C00002072B600BFFEE7000070B5044660
:1009A00000F010F906462546681C10B1044800788E
:1009B000054400BF00F006F9801BA842FAD370BDC1
:1009C00040000020F8B502460B4600250024002018
:1009D0000021D6E0012606FA01F51E6806EA0504A4
:1009E000AC4274D11E7906F00306012E04D01E79A4
:1009F00006F00306022E13D190684F000326BE4076
:100A0000B0434F00DE68BE4030439060506801261E
:100A10008E40B0431E79C6F300168E4030435060BE
:100A20001E7906F00306032E09D0D0684F00032676
:100A3000BE40B0434F009E68BE403043D0601E7938
:100A400006F00306022E13D1CF0802F1200656F855
:100A500027004E07F70E0F26BE40B0434F07FF0E8C
:100A60001E69BE403043CF0802F1200646F8270039
:100A700010684F000326BE40B0431E7906F00306FF
:100A80004F00BE40304310605E6806F44036002ED2
:100A900076D000BF002600963C4E366846F480466D
:100AA0003A4F3E603E46366806F48046009600BFE8
:100AB00000BF374E8F0856F827008E07370F0F26D6
:100AC000BE40B043334EB24202D1002624E057E08C
:100AD000314EB24201D101261EE0304EB24201D168
:100AE000022619E02E4EB24201D1032614E02D4E0B
:100AF000B24201D104260FE02B4EB24201D10526AD
:100B00000AE02A4EB24201D1062605E0284EB24242
:100B100001D1072600E008268F073F0FBE40304373
:100B20001B4E8F0846F82700224E3068A0435E68AF
:100B300006F4801606B120431E4E3060361D306824
:100B4000A0435E6806F4001606B12043194E361D18
:100B50003060184E361F3068A0435E6806F40036D9
:100B600006B12043134E361F3060361F3068A04355
:100B70005E6806F4803606B120430E4E083E3060B3
:100B8000491C1029FFF426AFF8BD0000443802408C
:100B90000838014000000240000402400008024002
:100BA000000C0240001002400014024000180240F5
:100BB000001C0240083C01400AB1816101E00B04C5
:100BC00083617047014800687047000038000020CA
:100BD00003480068034909780844014908607047E0
:100BE000380000204000002010B50D48006840F497
:100BF00000700B4908600846006840F48060086097
:100C00000846006840F480700860032000F092F805
:100C10000F2000F007F800F02BF8002010BD0000B6
:100C2000003C024070B504460E4800784FF47A71DB
:100C3000B1FBF0F00C490968B1FBF0F5284600F073
:100C4000FFFD08B1012070BD102C07D20022214603
:100C5000501E00F031F80548046001E00120F2E781
:100C60000020F0E740000020340000203C0000207D
:100C700008B500BF002000900E48006840F4804096
:100C80000C4908600846006800F48040009000BFEE
:100C900000BF00BF00200090081F006840F0805097
:100CA000091F08600846006800F08050009000BFEF
:100CB00000BF08BD443802402DE9F05F80460D4674
:100CC0001646002701F038FF074639462A463346C4
:100CD00001F00700C0F1070ABAF1040F02D94FF082
:100CE000040A01E0C0F1070AD14600F1040ABAF192
:100CF000070F02D24FF0000A01E0A0F1030AD44628
:100D00004FF0010A0AFA09FAAAF1010A0AEA020AEC
:100D10000AFA0CFA4FF0010B0BFA0CFBABF1010BCA
:100D20000BEA030B4AEA0B042146404601F00CFF94
:100D3000BDE8F09F00BF00F00702064B19684FF6B0
:100D4000FF031940044B0B4343EA0221014B196096
:100D500000BF70470CED00E00000FA05704700008E
:100D600070B504460D460CB9012070BD58480068A6
:100D700000F00700A84209D255490D7008460068E6
:100D800000F00700A84201D00120EEE7207800F033
:100D9000020002281DD1207800F00400042805D1AB
:100DA0004C48006840F4E0504A490860207800F060
:100DB0000800082805D14748006840F460404549CC
:100DC00008604448006820F0F000A16808434149E9
:100DD0000860207800F00100A8B36068012807D1FE
:100DE0003C4808380068C0F34040B8B90120BCE76F
:100DF0006068022802D06068032807D135480838A7
:100E00000068C0F3406048B90120AEE731480838B7
:100E10000068C0F3400008B90120A6E72D4800682B
:100E200020F00300616808432A490860FFF7CAFE02
:100E3000064609E0FFF7C6FE801B41F28831884272
:100E400002D9032091E707E02248006800F00C0077
:100E50006168B0EB810FEDD11D48006800F007001C
:100E6000A84209D91A490D700846006800F0070029
:100E7000A84201D0012078E7207800F0040004287F
:100E800007D11448006820F4E050E1680843114994
:100E90000860207800F00800082808D10D48006894
:100EA00020F46040216940EAC1000A49086000F06E
:100EB00045F808490968C1F30311074A515CC84065
:100EC0000649086006480068FFF7ACFE00204CE7C2
:100ED000003C0240083802408634000834000020FC
:100EE0003C00002001200149C864704700004742CF
:100EF00001480068704700003400002000B5FFF78B
:100F0000F7FF04490968C1F38221034A515CC840D4
:100F100000BD0000083802409634000800B5FFF715
:100F2000E7FF04490968C1F34231034A515CC840F4
:100F300000BD000008380240963400082DE9F04753
:100F4000002400250026A1462548006800F00C007A
:100F500020B1042805D008283AD105E0DFF88490B4
:100F600039E0DFF8849036E01D48001F006800F08B
:100F70003F041B48001F006800F4800078B11A4845
:100F80001749091F0968C1F38811A0FB01700146C8
:100F9000224600233846FFF767F905460EE0114860
:100FA0000F49091F0968C1F38811A0FB01700146B0
:100FB000224600233846FFF757F905460848001F28
:100FC0000068C0F30140401C4600B5FBF6F902E0A2
:100FD000DFF8109000BF00BF4846BDE8F087000072
:100FE000083802400024F40000127A0010B50648C8
:100FF000006800F08000802805D1FFF7AFFE802058
:101000000149891C087010BD0C380240F8B504462F
:101010000CB90120F8BD207800F00100002874D040
:10102000F948006800F00C0004280DD0F64800686C
:1010300000F00C00082813D1F348001F006800F4EA
:101040008000B0F5800F0BD1EF4808380068C0F37E
:101050004040002859D06068002856D10120D9E7C7
:1010600000BF6068B0F5803F08D1E74808380068E5
:1010700040F48030E449083908601EE06068B0F54B
:10108000A02F0DD1E0480838006840F48020DE49E8
:10109000083908600846006840F4803008600CE0B9
:1010A000D9480838006820F48030D74908390860EA
:1010B0000846006820F48020086000BF606890B196
:1010C000FFF780FD054606E0FFF77CFD401B642826
:1010D00001D903209EE7CC4808380068C0F340409F
:1010E0000028F1D011E0FFF76DFD054606E0FFF79F
:1010F00069FD401B642801D903208BE7C2480838EA
:101100000068C0F340400028F1D1207800F00200D0
:1011100002285FD1BC48006800F00C0058B1BA4802
:10112000006800F00C0008281CD1B748001F0068B8
:1011300000F48000B0B9B44808380068C0F340003B
:1011400020B1E068012801D0012063E7AE480838EB
:10115000006820F0F800216940EAC100AA49083976
:10116000086037E0E06800B30120A8490860FFF795
:1011700029FD054606E0FFF725FD401B022801D9A1
:10118000032047E7A04808380068C0F34000002863
:10119000F1D09D480838006820F0F800216940EA45
:1011A000C10099490839086014E000209749086097
:1011B000FFF708FD054606E0FFF704FD401B022887
:1011C00001D9032026E7904808380068C0F34000A2
:1011D0000028F1D1207800F0080008282CD160699F
:1011E000A8B101208A490860FFF7ECFC054606E03B
:1011F000FFF7E8FC401B022801D903200AE78248D8
:101200006C300068C0F340000028F1D014E00020EA
:101210007F490860FFF7D6FC054606E0FFF7D2FCE1
:10122000401B022801D90320F4E677486C3000689F
:10123000C0F340000028F1D1207800F00400042819
:1012400070D1002770483830006800F0805090B9A5
:1012500000BF002000906C483830006840F080509B
:101260006949383108600846006800F080500090F5
:1012700000BF00BF01276748006800F48070B0B964
:101280006448006840F4807062490860FFF79AFC87
:10129000054606E0FFF796FC401B022801D9032013
:1012A000B8E65C48006800F480700028F2D000BF07
:1012B000A068012808D154486830006840F0010057
:1012C0005149683108601DE0A06805280DD14E48DD
:1012D0006830006840F004004B49683108600846F7
:1012E000006840F0010008600CE047486830006882
:1012F00020F001004449683108600846006820F089
:101300000400086000BFA068A8B1FFF75BFC0546B9
:1013100009E0FFF757FC401B41F28831884202D9AF
:10132000032077E626E0384868300068C0F34000C4
:101330000028EED013E0FFF745FC054608E0FFF774
:1013400041FC401B41F28831884201D9032061E60B
:101350002D4868300068C0F340000028EFD1012F0D
:1013600007D129483830006820F0805026493831AC
:10137000086000BFA069002845D02348006800F03D
:101380000C0008285DD0A069022845D100201F4923
:101390000866FFF717FC054606E0FFF713FC401B45
:1013A000022801D9032035E6174808380068C0F341
:1013B00040600028F1D1D4E907010843616A40EA9E
:1013C00081110122A06AC2EB500041EA00412C20A9
:1013D000005D41EA00600C49091F086001200B49CB
:1013E0000866FFF7EFFB054606E0FFF7EBFB401B47
:1013F000022801D903200DE6034808380068C0F32D
:1014000040600028F1D049E008380240000047421F
:10141000800E474200700040002021490866FFF717
:10142000D1FB054606E0FFF7CDFB401B022801D9A2
:101430000320EFE51B480068C0F340600028F2D1AC
:101440002CE0A069012800D1E4E51648001D0668DB
:10145000A069012820D006F48001E06981421BD1F7
:1014600006F03F01206A814216D147F6C070304035
:10147000616AB0EB811F0FD106F440310122A06AEE
:10148000C2EB5000B1EB004F06D106F070612C208A
:10149000005DB1EB006F01D00120BBE50020B9E594
:1014A000000047420038024010B504460CB9012044
:1014B00010BD606A38B96068B0F5827F00D105E080
:1014C0000021E16102E00021216161610021A1624E
:1014D00094F8510028B9002084F85000204600F00C
:1014E00047F8022084F851002068006820F040008E
:1014F00021680860A08800F48270218901F4044109
:101500000843A18901F400610843217C01F0020134
:101510000843217D01F001010843218B01F4007192
:101520000843217F01F0380108432021095D01F0C3
:1015300080010843218D01F40051084321680860AF
:101540000421A06901EA104094F8241001F0100170
:101550000843216848602068C06920F40060216861
:10156000C86100206065012084F8510000209FE7D9
:1015700010B586B00446142101A8FEF7ECFE1B4905
:101580002068884230D100BF0020009018480068D1
:1015900040F40040164908600846006800F4004026
:1015A000009000BF00BF00BF00200090104810381E
:1015B000006840F004000E491039086008460068D1
:1015C00000F00400009000BF00BF4FF4E050019015
:1015D0000220029000200390032004900620059032
:1015E00001A90448FFF7EEF906B010BD003C004029
:1015F00040380240000802402DE9FE4F04460F46E5
:1016000090461D460C9E01200190FFF7DBFA8146B3
:1016100094F851B060680290AA46BBF1010F0BD05C
:101620000298B0F5827F04D1A06810B9BBF1040F15
:1016300002D00220BDE8FE8F1FB1B8F1000F00D02C
:101640000DB90120F6E700BF94F85000012801D140
:101650000220EFE7012084F8500000BF94F8510009
:10166000042802D0052084F8510000206065C4F8E9
:101670003880E587A5872763E586A58620646064B2
:101680002068006800F04000402805D0206800680D
:1016900040F0400021680860E068B0F5006F52D16A
:1016A000606810B1BAF1010F09D1206B0088216880
:1016B000C860206B801C2063E08E401EE0863BE00B
:1016C0002068806800F00200022810D1E08E70B11E
:1016D000019801280BD1206B00882168C860206B1D
:1016E000801C2063E08E401EE08600200190206870
:1016F000806800F0010068B1E08F58B12068C068D0
:10170000A16B0880A06B801CA063E08F401EE08767
:1017100001200190FFF756FAA0EB0900B0420BD36D
:10172000701C48B1012084F8510000BF002084F8EB
:10173000500000BF03207DE7E08E0028C0D1E08F7D
:101740000028BDD152E0606810B1BAF1010F09D193
:10175000206B007821680873206B401C2063E08EAA
:10176000401EE0863CE02068806800F0020002280D
:1017700010D1E08E70B1019801280BD1206B007858
:1017800021680873206B401C2063E08E401EE086B9
:10179000002001902068806800F0010068B1E08FAF
:1017A00058B12068C068A16B0870A06B401CA06392
:1017B000E08F401EE08701200190FFF703FAA0EBC5
:1017C0000900B04201D3701C00B94EB9012084F861
:1017D000510000BF002084F8500000BF032029E71B
:1017E000E08E0028BFD1E08F0028BCD14A463146A8
:1017F000204600F0BBFD40B12020606500BF002006
:1018000084F8500000BF012014E7A06850B900BF61
:10181000002000902068C0680090206880680090D8
:1018200000BF00BF012084F8510000BF002084F8F1
:10183000500000BF606D08B10120FBE60020F9E612
:1018400070B504462546681EB0F1807F01D30120A3
:101850000FE0681E4FF0E02148610F214FF0FF308C
:1018600001F072F900204FF0E02188610720086143
:10187000002070BD10B50346002200BF93F83C0065
:10188000012801D1022010BD012083F83C0000BFD7
:1018900022F0FF00CC6840EA040222F440708C6819
:1018A00040EA040222F480604C6840EA040222F418
:1018B00000600C6840EA040222F480500C6940EA9F
:1018C000040222F400504C6940EA040222F48040F1
:1018D000CC6940EA04021868426400BF002083F823
:1018E0003C0000BF00BFCEE730B502460B4600BF4C
:1018F00092F83C00012801D1022030BD012082F87D
:101900003C0000BF022082F83D0010684468106867
:10191000816824F070041868044310684460184D0E
:101920001068A8421BD01068B0F1804F17D0154D39
:101930001068A84213D0144D1068A8420FD0134D60
:101940001068A8420BD0124D1068A84207D0114D64
:101950001068A84203D0104D1068A84205D121F0AC
:1019600080015868014310688160012082F83D00C1
:1019700000BF002082F83C0000BF00BFBDE70000B0
:10198000000001400004004000080040000C00403E
:1019900000040140004001400018004070B50446BA
:1019A0000D4615B994F842000BE0042D02D14320F6
:1019B000005D06E0082D02D14420005D01E04520D5
:1019C000005D012801D0012070BD1DB9022084F8FE
:1019D00042000EE0042D03D102214320015508E00E
:1019E000082D03D102214420015502E002214520A7
:1019F000015504222946206800F05DFE2068406CF5
:101A000040F40040216848641A49206888421BD08D
:101A10002068B0F1804F17D017492068884213D052
:101A20001649206888420FD01549206888420BD09B
:101A300014492068884207D013492068884203D09F
:101A40001249206888420CD12068806800F007069F
:101A5000062E0CD02068006840F001002168086064
:101A600005E02068006840F001002168086000205F
:101A7000AAE7000000000140000400400008004008
:101A8000000C0040000401400040014000180040EC
:101A900010B504460CB9012010BD94F83D0028B9DA
:101AA000002084F83C00204600F026F8022084F84C
:101AB0003D00211D206800F07DFD012084F84600D6
:101AC00000BF84F83E0001213F2001554020015510
:101AD0004120015500BF00BF012084F8420043208F
:101AE0000155442001554520015500BF012084F8CF
:101AF0003D000020D0E7000008B50A4A0168914285
:101B00000FD100BF002100910749096841F0010190
:101B1000054A11601146096801F00101009100BFFA
:101B200000BF08BD0000014044380240014691F862
:101B30003D00012801D001207047022081F83D00BE
:101B40001A4B086898421BD00868B0F1804F17D034
:101B5000174B0868984213D0164B086898420FD06C
:101B6000154B086898420BD0144B0868984207D070
:101B7000134B0868984203D0124B086898420CD166
:101B80000868806800F00702062A0CD00868006820
:101B900040F001000B68186005E00868006840F03C
:101BA00001000B6818600020C6E70000000001403B
:101BB0000004004000080040000C00400004014008
:101BC00000400140001800402DE9F04104460D4658
:101BD000002700BF94F83C00012802D10220BDE894
:101BE000F081012084F83C0000BF022084F83D0011
:101BF0002068866826F0770626F47F46206886608F
:101C00002868502833D00CDC202850D004DC002871
:101C10004BD0102851D149E0302849D040284CD130
:101C200039E060282DD0702807D0B0F5805F03D050
:101C3000B0F5005F41D10DE041E0D5E902136A68DB
:101C4000206800F049FD2068866846F07706206825
:101C5000866034E0D5E902136A68206800F03CFD34
:101C60002068806840F480402168886027E0EA6846
:101C70006968206800F020FE5021206800F037FDE0
:101C80001DE0EA686968206800F029FE602120688C
:101C900000F02DFD13E0EA686968206800F00CFE92
:101CA0004021206800F023FD09E000BF00BF00BF15
:101CB0002968206800F01BFD01E0012700BF00BF7C
:101CC000012084F83D0000BF002084F83C0000BFE4
:101CD000384684E710B586B00446142101A8FEF703
:101CE0003AFB2049206888423AD100BF002000908A
:101CF0001D48006840F002001B4908600846006863
:101D000000F00200009000BF00BF00BF0020009064
:101D10000846006840F0010008600846006800F0CE
:101D20000100009000BF00BF4FF46040019002200E
:101D300002900020039004900120059001A90B4817
:101D4000FEF740FE4FF4E060019002200290002078
:101D5000039004900120059001A90548FEF732FE8A
:101D600006B010BD000001403038024000040240BF
:101D7000000002402DE9F04104460D4616460027BA
:101D800000BF94F83C00012802D10220BDE8F08198
:101D9000012084F83C0000BF36B1042E1BD0082E71
:101DA00031D00C2E5ED145E02946206800F0A8FC19
:101DB0002068806940F00800216888612068806997
:101DC00020F004002168886120688069296908433F
:101DD0002168886148E02946206800F0C9FC206835
:101DE000806940F40060216888612068806920F47F
:101DF00080602168886120688069296940EA012043
:101E00002168886130E02946206800F0EFFC2068F6
:101E1000C06940F008002168C8612068C06920F0EE
:101E200004002168C8612068C069296908432168E5
:101E3000C86119E02946206800F014FD2068C069D7
:101E400040F400602168C8612068C06920F48060A7
:101E50002168C8612068C069296940EA01202168B9
:101E6000C86101E0012700BF00BF00BF002084F867
:101E70003C0000BF384689E710B504460CB9012084
:101E800010BD94F83D0028B9002084F83C0020469D
:101E900000F025F8022084F83D00211D206800F0A4
:101EA00089FB012084F8460000BF84F83E00012130
:101EB0003F200155402001554120015500BF00BF82
:101EC000012084F84200432001554420015545205B
:101ED000015500BF012084F83D000020D0E7704785
:101EE00070B504460D4615B994F83E000BE0042D7C
:101EF00002D13F20005D06E0082D02D14020005DA8
:101F000001E04120005D012801D0012070BD1DB914
:101F1000022084F83E000EE0042D03D102213F2070
:101F2000015508E0082D03D102214020015502E0AF
:101F300002214120015501222946206800F0AAFB18
:101F400023492068884203D022492068884201D171
:101F5000012000E0002028B12068406C40F40040DF
:101F6000216848641A49206888421BD02068B0F173
:101F7000804F17D018492068884213D0174920682D
:101F800088420FD01649206888420BD0114920683A
:101F9000884207D013492068884203D0124920683C
:101FA00088420CD12068806800F00706062E0CD00D
:101FB0002068006840F001002168086005E02068A2
:101FC000006840F001002168086000209EE70000E2
:101FD00000000140000401400004004000080040EF
:101FE000000C0040004001400018004010B50446BD
:101FF0000CB9012010BDA06900B100E000BF94F849
:10200000410028B9002084F84000204600F02AF85A
:10201000242084F841002068C06820F40050216822
:10202000C860204600F070FC2068006920F49040F1
:10203000216808612068406920F02A002168486111
:102040002068C06840F400502168C86000206064C7
:10205000202084F8410084F842000020606300BF23
:10206000C8E7000010B586B00446142101A8FEF7A9
:1020700072F91B49206888422FD100BF00200090D0
:102080001848006840F400301649086008460068A7
:1020900000F40030009000BF00BF00BF002000909F
:1020A00010481038006840F001000E4910390860EF
:1020B0000846006800F00100009000BF00BF0C203F
:1020C000019002200290002003900320049007203A
:1020D000059001A90448FEF775FC06B010BD00008C
:1020E00000440040403802400000024000BFFEE7CC
:1020F00000B587B0142102A8FEF72DF900BF00201B
:1021000001903048006840F004002E4908600846FD
:10211000006800F00400019000BF00BF00BF002075
:1021200001900846006840F080000860084600689A
:1021300000F08000019000BF00BF00BF00200190B0
:102140000846006840F0010008600846006800F09A
:102150000100019000BF00BF00BF002001900846B1
:10216000006840F0020008600846006800F00200C5
:10217000019000BF00BF00224FF400511248FEF74B
:102180001BFD002241F204011048FEF715FD4FF43B
:10219000005002900120039000200490059002A9B5
:1021A0000948FEF70FFC41F2040002900120039061
:1021B00000200490059002A90448FEF703FC07B034
:1021C00000BD000030380240000802400004024018
:1021D00010B50E480E4908604FF482704860002127
:1021E0000B488160C1600161012141614902816147
:1021F0001021C16100210162416281620A21C16234
:10220000FFF752F908B1FEF7C5FB10BD003C0040D6
:102210009C00002000B595B0002011901290139002
:1022200014900F9010901C2108A8FEF794F820211C
:102230006846FEF790F83548354908600020486048
:1022400060213348816041F26801C1600021016171
:1022500041618161FFF71CFC08B1FEF79BFB4FF465
:102260008050119011A92A48FFF7AEFC08B1FEF783
:1022700091FB2748FFF700FE08B1FEF78BFB00201B
:102280000F9010900FA92248FFF72EFB08B1FEF720
:1022900081FB7020089041F26800099000200A90AC
:1022A0000B900C900D900E90002208A91848FFF793
:1022B00061FD08B1FEF76EFB042208A91448FFF780
:1022C00059FD08B1FEF766FB64200990082208A9B1
:1022D0000F48FFF74FFD08B1FEF75CFB00200090B0
:1022E00001900290039004904FF40050059000205C
:1022F000079069460648FFF7BDFA08B1FEF74AFBAA
:102300000348FFF7E7FC15B000BD000000000140E6
:10231000F400002010B50B480B4908604FF4E13081
:102320004860002108488160C16001610C21416161
:1023300000218161C161FFF759FE08B1FEF72AFB58
:1023400010BD0000004400403C01002000BFFEE73B
:10235000FEF74CFE00BFFEE7704770B504460D4621
:10236000002229462046FEF727FC70BD7CB50446B6
:102370000E4615463346012202212046009500F004
:1023800039F828B1606D40F02000606503207CBD05
:10239000164800681821B0FBF1F01549B0FBF1F0C8
:1023A0004FF47A71484301906068B0F5827F0DD197
:1023B0003346002280212046009500F01BF898B19A
:1023C000606D40F0200060650320E0E700BF0198E9
:1023D00000B908E00198401E019020688068C0F3B1
:1023E000C0100028F3D100BF0020D0E73400002047
:1023F00040420F002DE9F84F04460D4690461E4618
:10240000DDF82890FEF7DEFBA0EB0900371AFEF797
:10241000D9FB82462C480068C0F3CB30784300904B
:1024200046E0701C002843D0FEF7CCFBA0EB0A006E
:10243000B84200D2A7BB2068406820F0E0002168C5
:1024400048606068B0F5827F0DD1A068B0F5004F9C
:1024500003D0A068B0F5806F05D12068006820F037
:10246000400021680860A06AB0F5005F0DD100BF90
:102470002068006820F40050216808602068006827
:1024800040F400502168086000BF012084F851002A
:1024900000BF002084F8500000BF0320BDE8F88F83
:1024A000FFE7009808B9002702E00098401E00905E
:1024B000206880682840A84201D1012000E0002067
:1024C0004045AED10020E9E734000020704770B5E8
:1024D00004460D46012229462046FEF76DFB70BDDD
:1024E00010B5FEF775FB10BD00B593B0302107A8FD
:1024F000FDF731FF142102A8FDF72DFF00BF0020DA
:1025000001902548006840F0805023490860084643
:10251000006800F08050019000BF00BF00BF0020A5
:1025200001901E48006840F480401C49086008463D
:10253000006800F48040019000BF00BF01200790B8
:102540000004089002200D9041050E9104210F9186
:10255000A8211091022111910421129107A8FEF7E0
:1025600055FD08B1FEF716FA0F20029002200390E5
:10257000002004904FF4A05005904FF48050069036
:10258000052102A8FEF7ECFB08B1FEF703FAFEF7FF
:10259000A9FC13B000BD00004038024000700040AC
:1025A0000348006840F4700001490860704700006B
:1025B00088ED00E010B502682B4B98420ED0B0F1C8
:1025C000804F0BD0294B984208D0294B984205D018
:1025D000284B984202D0284B984203D122F0700237
:1025E0004B681A43204B984220D0B0F1804F1DD049
:1025F0001E4B98421AD01E4B984217D01D4B984242
:1026000014D01D4B984211D01C4B98420ED01C4B3D
:1026100098420BD01B4B984208D01B4B984205D0D8
:102620001A4B984202D01A4B984203D122F44072BE
:10263000CB681A4322F080034C6943EA04028B689A
:10264000C3620B688362084B984202D00A4B9842DF
:1026500001D10B690363036843F0040303600123A2
:102660004361026010BD0000000001400004004012
:1026700000080040000C0040000401400040014000
:10268000004401400048014000180040001C004088
:102690000020004030B501F01F05012404FA05F3C5
:1026A000046A9C430462046A01F01F0502FA05F5FE
:1026B0002C43046230BD30B501F00F05042404FA48
:1026C00005F3046A9C430462046A01F00F0502FAF0
:1026D00005F52C43046230BD30B50C46816821F409
:1026E0007F4142EA032525432943816030BD0A46E4
:1026F000816821F0700142F007031943816070473F
:1027000030B5026A056A25F00105056243688469EF
:1027100024F0700424F003040D682C4322F002021C
:102720008D682A43104DA84200D103E00F4DA84206
:1027300006D100BF22F00802CD682A4322F004022D
:10274000094DA84202D0094DA84207D123F4807355
:1027500023F400734D692B438D692B4343608461DF
:102760004D684563026230BD000001400004014035
:1027700030B5026A056A25F0100505624368846970
:1027800024F4E04424F440740D6844EA052422F063
:1027900020028D6842EA0512124DA84200D103E0E2
:1027A000114DA84207D100BF22F08002CD6842EA55
:1027B000051222F040020B4DA84202D00A4DA84259
:1027C00009D123F4806323F400634D6943EA850350
:1027D0008D6943EA8503436084614D6885630262C5
:1027E00030BD0000000001400004014030B5026A25
:1027F000056A25F4807505624368C46924F0700495
:1028000024F003040D682C4322F400728D6842EA20
:102810000522124DA84200D103E0114DA84207D174
:1028200000BF22F40062CD6842EA052222F48062F1
:102830000A4DA84202D00A4DA84209D123F4805380
:1028400023F400534D6943EA05138D6943EA0513E8
:102850004360C4614D68C563026230BD0000014041
:102860000004014030B5036A056A25F4805505620D
:102870004468C26922F4E04222F440720D6842EAE0
:10288000052223F400538D6843EA0533084DA8421E
:1028900002D0084DA84204D124F480444D6944EA92
:1028A00085144460C2614D680564036230BD000058
:1028B000000001400004014030B50B461446026A96
:1028C000056A25F001050562816921F0F00141EA00
:1028D000041122F00A021A438161026230BD30B550
:1028E0000B461446026A056A25F0100505628169E7
:1028F00021F4704141EA043122F0A00242EA0312BD
:102900008161026230BD00002DE9F84F0446206865
:10291000006920F44050E16808432168086121699A
:10292000A068084361690843E16908430090206892
:10293000C06849F20C618843009908432168C86067
:102940002068406920F44070A1690843216848610B
:1029500076492068884203D075492068884203D1AF
:10296000FEF7DCFA814602E0FEF7C8FA8146E0692C
:10297000B0F5004F6CD102206168A0FB0150034606
:102980001920A9FB007001462A463846FDF76CFC69
:102990006421B0FBF1F04FEA001A02206168A0FB4D
:1029A00001510B461920A9FB00712A463846FDF754
:1029B0005BFC834602206168A0FB0150034619209E
:1029C000A9FB00712A463846FDF74EFC6421B0FB96
:1029D000F1F000EBC00101EB0010ABEB8000322105
:1029E00001EBC0006421B0FBF1F000F0F8000AEB4D
:1029F000400A02206168A0FB015003461920A9FB90
:102A0000007001462A463846FDF72EFC8346022018
:102A10006168A0FB015003461920A9FB00712A46FA
:102A20003846FDF721FC6421B0FBF1F000EBC0015A
:102A300001EB0010ABEB8000322101EBC000642100
:102A4000B0FBF1F000F007005044216888606AE0B4
:102A500004206168A0FB015003461920A9FB007007
:102A600001462A463846FDF7FFFB8246042061688E
:102A7000A0FB015003461920A9FB007001462A461D
:102A80003846FDF7F1FB6421B0FBF1F000EBC0012B
:102A900001EB0010AAEB8000322101EB0010642151
:102AA000B0FBF1F000F0F00A04206168A0FB0170B7
:102AB00003461920A9FB00513A462846FDF7D4FBEE
:102AC0006421B0FBF1F00AEB001A04206168A0FB5E
:102AD00001510B461920A9FB00712A463846FDF723
:102AE000C3FB834604206168A0FB01500346192004
:102AF000A9FB007001462A463846FDF7B5FB642164
:102B0000B0FBF1F000EBC00101EB0010ABEB80007B
:102B1000322101EB00106421B0FBF1F000F00F0056
:102B2000504421688860BDE8F88F00000010014023
:102B30000014014000BFFEE702480068C0F3022015
:102B4000704700000CED00E010B5002804DB0A0718
:102B5000130E054A135406E00A07140E034A00F048
:102B60000F031B1FD45410BD00E400E018ED00E07B
:102B70002DED088B82B09FED920A924880ED000AFD
:102B8000FEF732F8FFF7B0FCFFF7B2FAFFF742FBAF
:102B9000FFF71EFBFFF7BEFBFDF742FE8A48FEF77C
:102BA000C5FF00218848FFF79BF904218648FFF7FD
:102BB00097F908218448FFF793F900218248FEF72E
:102BC000EDFE04218048FEF7E9FE08217E48FEF76D
:102BD000E5FE4FF4FA607C49096848637A49096860
:102BE000886379490968C863E9E07848006800F0BB
:102BF000CFFB41EC1B0B9FED760B53EC102B00F041
:102C0000DFF941EC190B6F48006800F0C1FB41ECA3
:102C10001A0B53EC192B00F02BF941EC180B00F0B8
:102C2000F5F868490860084690ED000ADFED6A0A89
:102C3000B4EEE00AF1EE10FA07DB90ED000ADFEDEA
:102C4000660A30EE600A80ED000A5E4890ED000AE8
:102C5000624880ED000A6248604991ED000AFDF784
:102C600009FD584890ED000ADFED5E0A30EE600A7B
:102C70005D4880ED000A90ED000AB5EEC00AF1EE65
:102C800010FA07D290ED000ADFED530A30EE200A69
:102C900080ED000A5548544991ED000AFDF7EAFC21
:102CA000484890ED000ADFED4F0A30EE200A504808
:102CB00080ED000A90ED000ADFED470AB4EEE00A6D
:102CC000F1EE10FA07DD90ED000ADFED430A30EE79
:102CD000600A80ED000A4748454991ED000AFDF77A
:102CE000C9FC3F4890ED000A434880ED000A3F4888
:102CF00090ED000A404880ED010A3E4890ED000A40
:102D00003D4880ED020AFDF78BFB3B4890ED030A3E
:102D10003A4880ED000A384890ED040A374880EDC3
:102D2000010A284890ED000A344880ED020A2C4838
:102D300090ED011AF0EE410A90ED001AB0EE410A52
:102D40002E48FDF798FB9FED1E0A2D4880ED000AE6
:102D5000B7EE000A80ED010A1A4890ED000A2848F3
:102D600080ED020A1E4890ED011AF0EE410A90ED46
:102D7000001AB0EE410A2248FDF768FB9FED210AD8
:102D8000214880ED030A1E4890ED030A1E4880ED9D
:102D9000000A1B4890ED040A1B4880ED010AB3EEBF
:102DA000080A80ED020AFDF77DFB0020019002E099
:102DB0000198401C01900198B0F5FA6FF8D314E720
:102DC0000000000030000020F4000020000000207F
:102DD0005F251FBB0B94343FC3F5C840040000209F
:102DE00010000020920A0640080000201800002071
:102DF0000C0000202000002044000020580000208B
:102E00006C000020004003468000002021F00042BA
:102E1000A2F16052B2F5801F01F0004328BFD2F149
:102E20007F6C0BD95FEA001C43EAC20242EB507090
:102E300018BF704728BF20F001007047B2F5801F0F
:102E4000BCBF184670474FEA410C1CF5001F02D268
:102E5000084600F013BB70B500F05CF90000008973
:102E6000FFF7F6BF4FF00040A0F58000704700006C
:102E700010B591EA030F48BF83F0004300F1A6812B
:102E8000841A71EB030C05D2121943EB0C03001BDF
:102E900061EB0C01DFF824E14FEA1154A4EB135C61
:102EA0001EEA430F18BF9EEA445F73D023EA0E0365
:102EB000DCF1200E21EA045143F4801332D322FACC
:102EC0000CFE10EB0E0023FA0CFE41EB0E01CCF1D0
:102ED000200E03FA0EFE10EB0E0051F10001B1F5C9
:102EE000801FCCF1200E32D201EB045112FA0EF207
:102EF000BDE8104058BF7047401C38BF5FEA42022F
:102F000018BF7047002814BF20F0010041F10001F4
:102F10004FEA410313F5001F38BF7047A1F1C041CC
:102F200000F046B9012A43EB0302ACF1200CDCF1BE
:102F30001F0E32BF4FF0000E23FA0CF310EB03000C
:102F400041EB0451B4EB115FD0D0A1EB045101F57A
:102F5000801149085FEA300001EB04510ED350F1B3
:102F6000000038BF12FA0EFE08D1BDE81040C9E7D4
:102F7000401C38BF5FEA4202CAD1C3E7BDE8104037
:102F80004FEA410313F5001F38BF7047A1F1C0415C
:102F900000F00EB99EEA445F08D011EA5E0FBDE86A
:102FA000104004BF01F0004100207047BDE8104010
:102FB00070B500F0AFF800BF64FBBE3E0000E0FF5C
:102FC000DFF848C170B51CEA111E1EBF1CEA1315BC
:102FD0009EEA0C0F95EA0C0F00F06F8081EA030463
:102FE00023EA4C134EEAD47E21EA4C1141F48011BD
:102FF00043F48013AE44A1FB024CA0FB0365AEF189
:103000007F7E361955EB0C05A1FB034C4CF10003F8
:10301000A0FB021C16EB0C06654153F100030942AC
:1030200018BF46F0010613F4007F0BD14FEA0331BD
:103030004FEA0530340341EA155140EA16506FF06B
:1030400003020AE04FEAC3214FEAC520F40241EA35
:10305000555140EA56506FF0020202EB2E4201EB4E
:10306000025585EACE710AD05FEA440C18BF24F0FD
:10307000004450F1000041F1000120EAD47040F218
:10308000FE7C624500D270BDA84214BF4FF0804460
:103090004FF04044002E08BF0024BEF1806FA8BF4F
:1030A000A1F1C041BDE8704080F282804FF0000085
:1030B00001F1C04101F0004170479EEA0C0F0CEA9B
:1030C000131518BF95EA0C0F06D04FF0000081EAE7
:1030D000030E0EF0004170BD00F01CF88900013EA7
:1030E00000F007B800F009B84FEA430C5FEA5C5CF7
:1030F00008D081EA030100F05BB84FEA410C5FEAB7
:103100005C5CF6D14FF00000014970470000FF07FA
:103110000000F87F0EF1020E2EF0030E5EF8046B35
:10312000364205D4012A43EB030515F5001F12D8DA
:10313000012841EB010C1CF5001F0CD80ED14FEA01
:10314000D17C15F5001F0CEB4C0C0CF1020C08BFE8
:103150004CEBD37C04E04FF0080C01E04FEAD37C49
:103160000CEB4C0526FA05F606F00706B6F1040C42
:1031700006D20EEB860CBDE870404CF0010C6047A7
:10318000DFE80CF0090B02024FF000414FF00000A5
:10319000A1F5002170BD19461046012851EB01042C
:1031A00018BFD4F5001484BF002001F0004170BDA9
:1031B0000808A0F500114FEA3101704710B591EAF7
:1031C000030F48BF83F000433FF55AAE841A71EBFA
:1031D000030C07D212198CF0004C43EB0C03001BBC
:1031E00061EB0C01DFF8A4E14FEA1154A4EB135C8E
:1031F0001EEA430F18BF9EEA445F00F0B08023EA46
:103200006E03524221EA0451C3EB6E0338BF5B1ECA
:10321000DCF1200E25D322FA0CFE10EB0E0043FA4F
:103220000CFE41EB0E01CCF1200E03FA0EFE10EB6A
:103230000E0051F10001CCF1200E29D412FA0EF249
:1032400001EB0451BDE8104058BF7047401C1CBF43
:10325000B2F1004F704700280CBF491C20F001005C
:10326000704712EB020E43EB030218BF4FF0010E42
:103270004EEA4202ACF1200CDCF11E0E54D943FAA6
:103280000CFE10EB0E0051F1FF31CCF11E0ED5D526
:103290000EF1010E12FA0EFE404141EB010101EB6D
:1032A000445C5FEA5C5C10D910EBDE7001EB04510A
:1032B00038BFBEF1004FBDE8104018BF704700286E
:1032C0000CBF491C20F00100704730D24FEAD42CCB
:1032D00011F5001124F400641BD0B1FA81F20B3A0D
:1032E000A41AA41ED2F12003914030FA03F319432B
:1032F000904001EBCC71002C01EB0451BDE8104073
:10330000A8BF704701F1C0414FF0000001F000413B
:103310007047B0FA80F310FA03F100D110BDE41A3F
:10332000173C4805C90AE4E701EB045110BD4910F8
:1033300001EB0451BDE810404FEA300002E04FF0CD
:10334000000170474A0008BF0042F8D0B2F5001FE4
:1033500028BF704701F000414FF0000070479EEA1F
:10336000445F07D011EA5E0FBDE8104004BF0021A2
:1033700000207047BDE8104070B5FFF7CBFE00BFDE
:1033800040DFF63E83F00041104670470000E0FF4A
:1033900043004FEAD30C4FEA3C0C43401FBF4007A9
:1033A0000CF1605113F0FE4F70471CF0006F03D119
:1033B00000200CF0004170470CF0004343EA5070CD
:1033C00010B540EACC0000F00EF800BF00000092FB
:1033D0004FEA0001FFF7ECBE4FF000414FF0000054
:1033E000A1F5002170470EF1020E2EF0030E5EF8DB
:1033F000044B244204D44FEA4102B2F17F4F11D86A
:103400004FEA4003B3F17F4F0CD80ED14FEAD07C86
:10341000B2F17F4F0CEB4C0C0CF1020C08BF4CEBE3
:10342000D17C04E04FF0080C01E04FEAD17C0CEBBA
:103430004C0324FA03F404F00704B4F1040C06D29C
:103440000EEB840CBDE810404CF0010C6047DFE847
:103450000CF0070802024FF00040A0F5800010BDFC
:103460000846420018BFD2F1807288BF00F00040C9
:1034700010BD4FF04070E1EE100A7047FF2141EAA5
:10348000D050C0057047000000000000000001029D
:1034900003040607080900000000010203040000FD
:1034A000C03400080000002044000000C4010008EF
:1034B0000435000844000020A4070000E0010008D3
:1034C000000020410000000000000000000000009B
:1034D00000000000000000000000000000000000EC
:1034E00000000000000000000000000000000000DC
:1034F000000000000024F4000000000010000000A4
:0435000001000000C6
:040000050800018965
:00000001FF
