:020000040800F2
:100000006045002079020008096A00083F5A00088C
:10001000056A0008810F0008159E00080000000016
:10002000000000000000000000000000F56D000866
:10003000A5130008000000007F6C00082371000871
:10004000930200089302000893020008930200083C
:10005000930200089302000893020008930200082C
:10006000930200089302000893020008930200081C
:10007000930200089302000893020008930200080C
:100080009302000893020008250D0008930200085F
:1000900093020008930200089302000893020008EC
:1000A00093020008930200089302000893020008DC
:1000B00093020008F97100089302000893020008F7
:1000C00093020008930200089302000893020008BC
:1000D00093020008930200089302000893020008AC
:1000E000930200089302000893020008930200089C
:1000F000930200089302000893020008930200088C
:10010000930200089302000893020008930200087B
:10011000930200089302000893020008930200086B
:10012000E5100008930200089302000893020008FB
:100130009302000800000000000000009302000885
:10014000930200089302000893020008116A000855
:10015000930200089302000893020008930200082B
:10016000930200089302000893020008930200081B
:100170009302000893020008000000000000000045
:10018000930200089302000800F002F800F065F8FE
:100190000AA090E8000C82448344AAF10107DA45E2
:1001A00001D100F05AF8AFF2090EBAE80F0013F0CF
:1001B000010F18BFFB1A43F001031847FC9D000014
:1001C0001C9E00000A444FF0000C10F8013B13F095
:1001D000070408BF10F8014B1D1108BF10F8015BA0
:1001E000641E05D010F8016B641E01F8016BF9D193
:1001F00013F0080F1EBF10F8014BAD1C0C1B09D1EA
:100200006D1E58BF01F801CBFAD505E014F8016B5B
:1002100001F8016B6D1EF9D59142D6D370470000ED
:100220000023002400250026103A28BF78C1FBD8FF
:10023000520728BF30C148BF0B6070471FB509F097
:10024000A5FE00F0FBFC04000020002109F088FE60
:10025000401C60601FBD10B510BD00F0B3FC11461E
:10026000FFF7ECFF09F042FE00F0DAFC03B4FFF701
:10027000F2FF03BC00F0E6FC09488047094800474C
:10028000FEE7FEE7FEE7FEE7FEE7FEE7FEE7FEE746
:10029000FEE7FEE704480549054A064B70470000A3
:1002A000E571000889010008603F002060450020DA
:1002B000604100206041002053EA020C00F0698098
:1002C0002DE9F04B4FF00006002B1FBFB3FA83F56A
:1002D00003FA05F424FA05F65E4012BF1643B2FA9B
:1002E00082F502FA05F4C5F120051EBF22FA05FCCD
:1002F00044EA0C04203556EA044C4FEA144418BF73
:10030000641C4FF000084FF00009904271EB030CA1
:1003100039D3002919BFB1FA81F701FA07F6B0FA0B
:1003200080F700FA07F6C7F120071EBF20FA07FC86
:1003300046EA0C062037B6FBF4FCA7EB0507103F96
:1003400007F01F0BCBF120060CFA0BFB2CFA06F67C
:1003500044BFB3460026202FA4BF5E464FF0000BDB
:100360005BEA060C08BF4FF0010B19EB0B09ABFB66
:10037000027C48EB0608C01B06FB02CC0BFB03CC3F
:1003800071EB0C01C1E70B46024641464846BDE809
:10039000F08B13B54FF000004FF00001AFF3008079
:1003A000BDE81C40704710B54C1084EA530404D5D6
:1003B0004042C1F1000138BF491E1B4204D55242E0
:1003C000C3F1000338BF5B1EFFF776FF14F0804FC8
:1003D00004D04042C1F1000138BF491E14F0004F63
:1003E00004D05242C3F1000338BF5B1E10BD0000B1
:1003F0000FB400B58DB010A9099000910B904FF08B
:10040000FF300A9000200C90064878440690064879
:1004100078446A4607900F9909A800F0DFF90DB0FB
:100420005DF814FBEF030000070400002DE9FF5FF7
:100430001D464FF0FF3B91464FF000085F46D5E95F
:100440000146A96901987F1C8847296A8246884726
:100450000028F6D1BAF1FF3F0CD0002E24F4C0647E
:1004600019DD600614D5BAF12B0F09D0BAF12D0FA2
:100470000ED103E0584604B0BDE8F09F44F4806418
:10048000A96901987F1C8847761E8246002E02DDEE
:10049000BAF1300F03D0B9F1000F26D032E0A969CC
:1004A000761E01987F1C44F400748847002E824613
:1004B00005DDBAF1780F06D0BAF1580F03D0B9F1C3
:1004C000000F10D01EE0B9F1000F02D0B9F1100FEB
:1004D00018D1A969761E01987F1C24F400748847FE
:1004E0008246102002E0082000E00A20814609E050
:1004F000A96908FB0908761E01987F1C44F4007462
:1005000088478246002E05DD4946504600F051F9E5
:100510000028EDDAE96901988847A00502D46FF058
:100520000100A8E7E00725D1600613D5600502D5D4
:10053000C8F1000000E0404629680A1D2A600968E9
:10054000220501D5087015E0220701D5088011E0C9
:1005500008600FE02868011D29600068210502D5A8
:1005600080F8008006E0210702D5A0F8008001E0B5
:10057000C0F8008038467EE730B505460B462A466F
:1005800013F8014B12F8010B08B1A042F8D01CB1CE
:10059000002802D06D1CF1E7284630BD10B5431C81
:1005A00002E010F8011B71B18107FAD14FF001325E
:1005B00002C88C1A8C4314EAC211F9D0C01A0A0678
:1005C00003D0C01E10BDC01A10BD0A0401D0801E89
:1005D00010BD0902FCD0401E10BD40EA010370B5F9
:1005E0009B072ED14FF00136042A2AD308C810C920
:1005F0009D1B9D43121F15EAC61517D0D8B2E1B254
:10060000401A50EA056110D198B2A1B2401A50EADE
:1006100005410AD123F07F4024F07F41401A50EA7F
:10062000052102D1180EA0EB146070BDA342DBD0EF
:1006300018BA21BA884201D9012070BD4FF0FF30AD
:1006400070BD0AB9002070BD10F8013B11F8014BD4
:1006500063B1A3420AD1521E08D010F8013B11F831
:10066000014B1BB1A34201D1521EEDD1181B70BD2D
:10067000032A40F2308010F0030C00F0158011F8CE
:10068000013BBCF1020F624498BF11F801CB00F8A6
:10069000013B38BF11F8013BA2F1040298BF00F8FA
:1006A00001CB38BF00F8013B11F0030300F02580B7
:1006B000083AC0F0088051F8043B083A51F804CBDE
:1006C000A0E80810F5E7121D5CBF51F8043B40F8A4
:1006D000043BAFF30080D20724BF11F8013B11F8AF
:1006E00001CB48BF11F8012B24BF00F8013B00F8F3
:1006F00001CB48BF00F8012B704710B5203AC0F07D
:100700000B80B1E81850203AA0E81850B1E8185012
:10071000A0E81850BFF4F5AF5FEA027C24BFB1E84F
:100720001850A0E8185044BF18C918C0BDE81040C0
:100730005FEA827C24BF51F8043B40F8043B08BFC9
:100740007047D20728BF31F8023B48BF11F8012B90
:1007500028BF20F8023B48BF00F8012B70474FF03C
:10076000000200B5134694469646203922BFA0E801
:100770000C50A0E80C50B1F12001BFF4F7AF09070D
:1007800028BFA0E80C5048BF0CC05DF804EB8900FE
:1007900028BF40F8042B08BF704748BF20F8022B41
:1007A00011F0804F18BF00F8012B70477047704759
:1007B00070473A2800D2303820F02002412A01D375
:1007C000A2F13700884201D34FF0FF30704700009C
:1007D000026811441378016018467047D1600549DA
:1007E0007944516104497944116200211161114633
:1007F00000F02EB8EDFFFFFF53000000426842B149
:10080000016811F8013B23B1521EC0E900121846DD
:1008100070470121C160881E704742685AB1C368A1
:10082000016843B983688B4205D0491E521CC0E958
:100830000012002070474FF0FF30704710B504469B
:1008400000F0E6F90068005D00F0010010BD000056
:100850002DE9F34F4FF0000A0C4656468DB00120AB
:100860000C9001F10C000B9062690B9801219047EC
:10087000051E2DD0252D2CD0216A8847C0B1626974
:100880000B9801219047216A88470028F7D16269B7
:10089000411E0B98904700E0761CA1690D9888478F
:1008A000216A88470028F7D1E1690D988847DBE77E
:1008B000A1690D988847A842074601D1761CD3E765
:1008C000E1690D9888477F1C02D1BAF1000F6FD003
:1008D0006CE162690B9800273D46394690472A280B
:1008E00004D162690B98012190470125DFF8D0827D
:1008F00062690B9801219047A0F130010A290AD2C0
:100900004745E5DC07EB870100EB4107303FDFD4CB
:1009100045F01005ECE7E90601D46FF000476C28BC
:100920000AD04C2814D0682815D06A280DD0742815
:100930001CD07A281AD01DE062690B9801219047DB
:100940006C2802D045F0040514E045F002050DE0E6
:1009500045F020050AE062690B980121904768285C
:1009600002D045F0080505E045F4006562690B9882
:1009700001219047C4E9015765283DD019DC58286A
:100980007AD00CDC452837D004DC252826D0412835
:100990009ED131E046282FD0472899D12CE05B2802
:1009A00077D0612828D063287CD0642823D15AE0EE
:1009B000F7E06F2848D008DC66281DD067281BD0D8
:1009C000692821D06E2816D127E0702845D07328D9
:1009D00068D0752847D078280DD14DE0A1690D98D1
:1009E0008847252805463FF469AFE1690D98884797
:1009F0006D1C3FF46AAFD9E00D9923466A466FF04B
:100A00000100AFF30080C6E045F0400023464FF000
:100A100000026060A80736D43EE0E8077FF447AFE5
:100A20002068011D21600068290501D506701BE7BB
:100A3000290701D5068017E7A90703D5F117C0E9F3
:100A4000006111E706600FE745F0400023464FF0D4
:100A500008026060A80716D41EE040F60E0125EAE1
:100A60000100606016E045F0400023464FF00A02A6
:100A70006060A80707D40FE045F040006060A80759
:100A800008D5234610220D996FF00100AFF30080C6
:100A900081E007E0102223460D996FF00100FFF777
:100AA000C5FC78E04FF0000963284F46C8464B4626
:100AB000CB4602D05B2807D039E02079C00601D4AC
:100AC0000120A060012732E06269D4F80CB00B98D5
:100AD000012190475E2807D14FF00109494662691C
:100AE000D4F80CB00B989047216939B900210A4617
:100AF00003AB43F82120491C0829FADBD8B321694C
:100B000049B308F1010862690B98012190475D28FB
:100B1000F4D1B9F1000F09D0002003A951F8202029
:100B2000D24341F82020401C0828F7DB03AB2069A2
:100B3000002820794FEA40701ED05B462246CDF84F
:100B40000080CDE901970D9900286FF0010020DAAF
:100B5000AFF300801FE0C11703AA00EBD1614B1176
:100B600021F01F0102EB8302411A13680120884023
:100B700003431360C7E719E00D99224600286FF080
:100B80000100009702DAAFF3008004E0AFF30080C9
:100B900001E0AFF3008000280ADA401C06D10C986F
:100BA00020B14FF0FF300FB0BDE8F08F5046FAE7AC
:100BB000E90701D10AF1010A064400200C9053E62E
:100BC000CCCCCC0C754600F035F8AE460500694635
:100BD000534620F00700854618B020B5FFF75AFBB2
:100BE000BDE820404FF000064FF000074FF000082E
:100BF0004FF0000B21F00701AC46ACE8C009ACE8AF
:100C0000C009ACE8C009ACE8C0098D4670470000D7
:100C100010B500F013F8001D10BD00BF4593000093
:100C200010B50446AFF300802046BDE81040FFF742
:100C30001DBB000000487047FC3E00200048704784
:100C40001C3F002001491820ABBEFEE72600020031
:100C50004FF0013C50F8042B51F8043B9A4221D14B
:100C6000A2EB0C03934313EACC1317D150F8042BD7
:100C700051F8043B9A4215D1A2EB0C03934313EABB
:100C8000CC130BD150F8042B51F8043B9A4209D1F4
:100C9000A2EB0C03934313EACC13DBD04FF000001C
:100CA000704700BFD01A01BAB1FA81F101F0180102
:100CB00022FA01F0CB40C1F12001DBB2C0B2C01A70
:100CC0002CFA01F3D11A914311EAC311E6D170470E
:100CD0007047000010B500F0BFFA0D4804F0C4FAE8
:100CE00042F2D0010B4800F07BFB0B490B4800F0AF
:100CF0007DFC00F0D3F800BF094800780028FBD045
:100D00000748007800BF064800780228FBD010BDD5
:100D1000502100207801002010000020280300202E
:100D20004E00002010B5034801F03CFF024801F0DE
:100D300039FF10BDC01F00200820002055494A6817
:100D400022F440324A604A6843681A434A600268A3
:100D5000526822F4807203685A600268536802691C
:100D600043EA022203685A600268526822F0407225
:100D700003685A600268526883681A4303685A60BD
:100D80000268926822F4006203689A6002689268BE
:100D9000C3681A4303689A603F4B826A9A4218D02C
:100DA0000268926822F0706203689A600268926832
:100DB000836A1A4303689A600268926822F040527C
:100DC00003689A6002689268C36A1A4303689A606B
:100DD0000BE00268926822F0706203689A60026811
:100DE000926822F0405203689A600268926822F08A
:100DF000020203689A6002689368027E43EA420234
:100E000003689A602022125CA2B10268526842F420
:100E1000006203685A600268526822F46042036804
:100E20005A6002685368426A521E43EA42320368BB
:100E30005A6005E00268526822F4006203685A6052
:100E40000268D26A22F470020368DA620268D36A26
:100E5000828B521E43EA02520368DA620268926889
:100E600022F4007203689A600268936890F8302058
:100E700043EA422203689A600268926822F4806220
:100E800003689A6002689368426943EA82220368B1
:100E90009A607047002301400100000F10B5174809
:100EA00001F062FC164801F0EFFC164804F08EF9E0
:100EB0000C21144804F072FC0021124804F06EFC6E
:100EC0000021104804F098F804210E4804F066FC54
:100ED00004210C4804F090F808210A4804F05EFC54
:100EE0000821084804F088F806480068406C40F47F
:100EF000004004490968486410BD00000820002033
:100F0000C01F00200821002010B504460121174809
:100F100001F006FC164909680844154908600121DA
:100F2000144801F0FDFB144909680844124908609F
:100F300012480088401C1149088008460088B0F516
:100F4000806F10DB0A480068800A60600A48006809
:100F5000800AA06000200649086007490860074928
:100F60000880012010BD0020FCE70000C01F002009
:100F70004400002008200020480000204C000020F1
:100F800000BFFEE70346042B15D007DC7BB1012B25
:100F90000ED0022B0DD0032B12D10BE0202B0BD047
:100FA000212B0AD0222B09D0232B09D107E008E0FE
:100FB00007E006E005E004E003E002E001E000E015
:100FC00000BF00BF002070470020704710B500220E
:100FD0000449054806F059FD0449034806F046FD5A
:100FE000002010BDF82F00201C220020F827002030
:100FF000094890F89C02032801D000207047064859
:10100000D0F8BC1209B90020F8E7D1F8140208B9E9
:101010000120F3E70020F1E71C2200202DE9F04138
:1010200004460F46002525E0665D0D2E00D120E028
:101030000A2E0DD116480088002819DD14480288B0
:101040001449154804F022FF0020114908800FE0E0
:101050000F480088FF2808D20D4801880088401CEE
:101060000B4A10800B48465402E0002008490880D3
:1010700000BF6D1C3868A842D6D82146074806F044
:10108000F5FC064806F0BEFC0020BDE8F08100003B
:10109000AC000020F8260020700300201C22002055
:1010A00010B503460C460021084610BD2DE9F0415D
:1010B00004460D4600260A48D0F8BC72D7F8140240
:1010C00010B10120BDE8F0812A462146044806F00F
:1010D000DCFC034806F08CFD06463046F2E70000D3
:1010E0001C22002010B5024801F020FF10BD0000B6
:1010F000502000200146087810381823B0FBF3F286
:101100000848805CC865032A05D908686FF30900A0
:10111000001D886503E008686FF309008865886D25
:1011200070470000AE9F0008014600208A6A8B6964
:10113000CBB932B1012A0DD0022A03D0032A10D133
:101140000EE000BFCB6A03F08073B3F1807F00D163
:10115000012007E0CB6AB3F1C07F00D1012001E09C
:1011600000E000BF34E08B69B3F5005F1AD132B103
:10117000012A07D0022A03D0032A11D10AE000BFB6
:1011800001200EE0CB6A03F08073B3F1807F00D1C1
:10119000012006E0CB6AB3F1C07F00D1012000E05E
:1011A00000BF15E032B1012A05D0022A04D0032A7B
:1011B0000CD103E000BF00BF012008E0CB6A03F0C0
:1011C0008073B3F1807F00D1012000E000BF00BF39
:1011D0007047000010B54FF40051024805F050FD73
:1011E00010BD00000008024010B54FF40051024845
:1011F00005F08EFF10BD00000008024070B500F041
:1012000055F8C0F30A0400F056F8C0F30A0504F4D8
:10121000806028B104F03F0000B100BF012070BD24
:1012200005F0800008B10120F9E70020F7E7000091
:1012300010B54FF48051024805F022FD10BD0000AA
:101240000004024010B54FF48051024805F060FFE1
:1012500010BD00000004024008B5FFF7E9FF0120BF
:1012600001F0FAFFFFF7EEFF142001F0F5FF0A206E
:1012700000231A4619460090022000F046F8052087
:1012800001F0EAFF0A2001F0E7FF002003460246D2
:101290000221009000F050F800F013F802490870A5
:1012A000FFF7ACFF08BD00005800002010B500207B
:1012B00000F00EF810BD10B54FF4006000F008F813
:1012C00010BD10B5FFF7F7FF044604F00F0010BD86
:1012D0007CB5044644F4004528128DF80400E8B2B9
:1012E0008DF80500FFF776FF4FF4FA730222694686
:1012F00001A800F059F8FFF777FF0021084600F039
:1013000032F80646C6F30A007CBD2DE9F0470446D4
:101310000D4617461E46DDF8208044EA850040EA67
:10132000C70040EA061040EA881949464FF4805049
:1013300000F019F8BDE8F0872DE9F04704460D46A6
:1013400017461E46DDF8208044EA850040EA071073
:1013500040EA461040EA881949464FF4C05000F070
:1013600002F8BDE8F0877CB504460D46C5F30A00D7
:1013700040EA040630128DF80400F0B28DF8050042
:10138000FFF728FF4FF4FA730222694601A800F024
:101390000BF8FFF729FF9DF801009DF8001040EAC7
:1013A00001207CBD704700002DE9F84305460C463E
:1013B00016461F463346224629460648009703F044
:1013C00047FC8046B8F1000F02D12088BDE8F883C1
:1013D0000020FBE7B020002072B600BFFEE700004F
:1013E00000B9704700220260828082604FF400637F
:1013F000C3600361002343618361C361036243628D
:101400008362C2624FF480330363426300238363C9
:10141000C2630364C0F89C20A02213500022C0F8CD
:10142000A420A8221350254A426441F270738364B9
:101430000023C36449F2A83303655B42436500237C
:101440008365C365036643668366C366026741F2CC
:10145000707343670023836749F2A833C3675B4215
:1014600080221350002384221350882213508C2290
:10147000135090221350942213509822135000229C
:10148000C0F8AC20B02213504FF48033B422135074
:10149000B82211500023BC221350C0221350C42282
:1014A00013504FF48033CC221350D4221350002217
:1014B000C0F8C820C0F8D02000BF92E72048010043
:1014C0002DE9F05F04460CB9BDE8F09F04F1080077
:1014D00000F084F94FF48031B420015104F12C0163
:1014E000206800F0C4F800BF206A616AA26A6063E5
:1014F0008B1A49F2CD3783FB075C66462F0C47EA0F
:101500000647A76300BF00BF606BA16BE76AD4F812
:1015100030C080FB0CB881FB079A1BEB090248EB3B
:101520000A034FEA124848EA0348C4F83C8081FBAA
:101530000CB880FB079ABBEB090568EB0A064FEA7B
:10154000154848EA0648C4F8408000BF04F1C800C6
:10155000E16B00F064F8E06304F1D000216C00F06E
:101560005EF8206404F14400E16B00F0D7F904F167
:101570007000216C00F0D2F9E06EC4F89C00982055
:101580000159A020015100BFD4F89C00D4F8A0104C
:10159000E76AD4F830C080FB0CB881FB079ABBEB3C
:1015A000090268EB0A034FEA124848EA0348C4F804
:1015B000A48080FB07A881FB0CB91AEB0B0548EB54
:1015C00009064FEA154848EA0648C4F8A88000BF53
:1015D000D4F8A400C4F8AC00A8200159B0200151EF
:1015E00004F1AC0000F03CFC00BF6DE74FF4FA5290
:1015F0000260642242600022826042F26662C2603F
:10160000524202610022426182610262426282624F
:10161000C26140F6CD424A6000220A60704770B550
:10162000024610680B1A506880FB0350060446EA15
:101630001544106820441060106870BD2DE9F04713
:1016400004460D46164605FB06F03C2190FBF1F9D9
:101650004FF4003089FB00700146D4F804C06246A4
:1016600000233846FEF79FFEA060BDE8F0872DE915
:10167000D34F8C460099B1F5803F01DDA1F50031D3
:1016800011F5803F01DA01F50031002902DAC1F1DC
:10169000000A00E08A46D04681FB08AB4FEA1A4AAE
:1016A0004AEA0B424FEA820ACAEB8100002802DABA
:1016B000C0F1000A00E08246D14680FB09AB4FEA48
:1016C0001A4A4AEA0B44261A43F69A1A86FB0ABAC1
:1016D0004FEA0A4E4EEA1B4707EB000ACCF800A07F
:1016E00001F50041B1F5803F01DDA1F50031002990
:1016F00002DAC1F1000A00E08A46D04681FB08BA4E
:101700004FEA0A4E4EEA1B424FEA820ACAEB8100B8
:10171000002802DAC0F1000A00E08246D14680FBD0
:1017200009BA4FEA0A4E4EEA1B44261A43F69A1AA1
:1017300086FB0ABA4FEA0A4E4EEA1B4707EB000A3D
:10174000CCF804A0BDE8DC8F2DE9F04FD0F804A060
:10175000D0F81090A9EB0A07D0F808A0D0F81490A0
:10176000A9EB0A0C07EB0C09C9F10008DFF8689037
:1017700088FB09194A464FF4804B11EB0B0B42F1E1
:1017800000094FEA494A4AEADB39C0F81890DFF805
:10179000489087FB093A54464FF4804B13EB0B0BF0
:1017A00044F100094FEA494A4AEADB39C0F81C9083
:1017B000DFF824908CFB09594E464FF4804B15EB13
:1017C0000B0B46F100094FEA494A4AEADB39C0F8F7
:1017D0002090BDE8F08F0000F2FF83002DE9F04F6C
:1017E000D0F804A0D0F81090A9EB0A07D0F808A010
:1017F000D0F81490A9EB0A0C07EB0C09C9F100080A
:10180000DFF8689088FB09194A464FF4804B11EBCA
:101810000B0B42F100094FEA494A4AEADB39C0F8AA
:101820001890DFF8489087FB093A54464FF4804BF4
:1018300013EB0B0B44F100094FEA494A4AEADB3942
:10184000C0F81C90DFF824908CFB09594E464FF4E9
:10185000804B15EB0B0B46F100094FEA494A4AEA67
:10186000DB39C0F82090BDE8F08F0000F2FF830064
:101870002DE9F04F85B00E46D0F80090D0F804A0C6
:10188000D0F808B0CDF810B0C2680369D0F814B031
:10189000CDF80CB0D0F81CB0CDF808B0416A344691
:1018A000DDF80CB0ABEB040789FB07BE4FEA1B4B1E
:1018B0004BEA0E4BCDF804B08AFB07BE4FEA1B4B38
:1018C0004BEA0E4BCDF800B0DDF800B05944914220
:1018D00001DD114602E0994200DA1946DDF808B050
:1018E000ABEB0408DDF810B08BFB08BE4FEA1B4BD6
:1018F0004BEA0E4C84610762C4614162DDF804B0BA
:101900008B440BEB0C05954201DD154602E09D4230
:1019100000DA1D46856205B0BDE8F08F2DE9F04F75
:1019200085B00E46D0F80090D0F804A0D0F808B0EA
:10193000CDF810B0C2680369D0F814B0CDF80CB07F
:10194000D0F81CB0CDF808B0416A3446DDF80CB0D0
:10195000ABEB040789FB07BE4FEA1B4B4BEA0E4B70
:10196000CDF804B08AFB07BE4FEA1B4B4BEA0E4B87
:10197000CDF800B0DDF800B05944914201DD1146C8
:1019800002E0994200DA1946DDF808B0ABEB040832
:10199000DDF810B08BFB08BE4FEA1B4B4BEA0E4C38
:1019A00084610762C4614162DDF804B08B440BEBD3
:1019B0000C05954201DD154602E09D4200DA1D4608
:1019C000856205B0BDE8F08F2DE9F04FA7B08246E3
:1019D000BAF1000F02D127B0BDE8F08FDAF80000AD
:1019E0002590DAF804102491DAF808102391DAF837
:1019F0000C0022902298042807D20020CAF8100078
:101A0000CAF81400CAF81800E5E7229840082190A7
:101A100022984FEA900B4FF4B47020904FF470610D
:101A20001F91DDE91F10884203D221991F98884237
:101A300003D90020209021981F9041F69A112398F5
:101A4000884206DACAF810B0CAF814B0CAF818B05A
:101A5000C1E724981E90FE49259880FB01100204DE
:101A600042EA11401D9024991D98401A40101C9084
:101A70001D9841422498081A40101B9000201A908B
:101A80001E98002802DD1A98401C1A901C98002805
:101A900002DD1A98801C1A901B98002802DD1A9803
:101AA000001D1A901A9810B11A98072806D1CAF882
:101AB00010B0CAF814B0CAF818B08CE7E4492298FC
:101AC000A1FB0001CDE91801DDE91801090441EA93
:101AD00010410204CDE90021239AD3170098FEF7A4
:101AE00062FC0D46044600BF00BF1A98072871D259
:101AF000DFE800F0A71E8B04543A71001C98C11750
:101B0000A0FB042301FB043100FB0510110C41EA8A
:101B1000004607141E98C117A0FB042301FB0431E3
:101B200000FB0510110C41EA00484FEA20498FE004
:101B30001C984042C117A0FB042301FB043100FBA9
:101B40000510110C41EA004607141B984042C117CA
:101B5000A0FB042301FB043100FB0510110C41EA3A
:101B600000484FEA204973E01E98C117A0FB0423E8
:101B700001FB043100FB0510110C41EA004607147B
:101B80001B98C117A0FB042301FB043100FB0510C7
:101B9000110C41EA00484FEA204959E01E984042A2
:101BA000C117A0FB042301FB043100FB0510110C3D
:101BB00041EA004607141C984042C117A0FB0423C9
:101BC00001FB043100FB0510110C41EA00484FEA0B
:101BD00020493DE035E01B98C117A0FB042301FB21
:101BE000043100FB0510110C41EA004607141C9853
:101BF000C117A0FB042301FB043100FB0510110CED
:101C000041EA00484FEA204922E01B984042C117B0
:101C1000A0FB042301FB043100FB0510110C41EA79
:101C2000004607141E984042C117A0FB042301FB85
:101C3000043100FB0510110C41EA00484FEA20492D
:101C400006E0CAF810B0CAF814B0CAF818B0C2E674
:101C500000BF00210846711A77EB000001DA002668
:101C6000374600210846B8EB010179EB000002DAA3
:101C70004FF00008C14600200004229940EA1140BC
:101C80000B04CDE9163016EB080147EB0900CDE94E
:101C9000141014A90EC91798591A90412CDA002370
:101CA000DDE914209A1A73EB000125DA3246DDE9EA
:101CB0001601A2FB00CE07FB00E006FB0100CDE908
:101CC00000C06046DDE914230199FEF76CFB06466F
:101CD0000F464246DDE91601A2FB00CE09FB00E0FB
:101CE00008FB0100CDE900C06046DDE9142301993D
:101CF000FEF759FB80468946DDE91610891B60EB2B
:101D00000700B1EB080160EB0902880840EA827025
:101D10009110CDE912017A104FEA3603DDE9121075
:101D200059185041CDE910105FEA69024FEA3803B3
:101D3000DDE9101059185041CDE90E104FF4004361
:101D4000DDE91201C01841F10001000C40EA014038
:101D50000914CDE90C01DDE91010C91840F10002A9
:101D6000080C40EA02401114CDE90A01DDE90E1029
:101D7000C91840F10002080C40EA02401114CDE9F4
:101D800008010022219BDDE90C0105F042F80790D3
:101D90000022219BDDE90A0105F03BF806900022B4
:101DA000219BDDE9080105F034F80590CDF810B06D
:101DB000CDF80CB0CDF808B01A9807282FD2DFE87C
:101DC00000F02E0B270419122000079904910699A0
:101DD00003910598029029E00699049107990391CF
:101DE0000598029022E005990491079903910698BD
:101DF00002901BE0059904910699039107980290BF
:101E000014E00699049105990391079802900DE05A
:101E100007990491059903910698029006E0CDF880
:101E200010B0CDF80CB0CDF808B000BF00BFDDE9B0
:101E30001F215B46CDE9001202AA03A904A805F000
:101E40000AF80498CAF810000398CAF8140001E0D0
:101E500068BB01000298CAF8180000BFBBE500008B
:101E60002DE9F04FA7B08246BAF1000F02D127B09A
:101E7000BDE8F08FDAF800002590DAF8041024911C
:101E8000DAF808102391DAF80C002290229804283E
:101E900007D20020CAF81000CAF81400CAF81800C7
:101EA000E5E722984008219022984FEA900B4FF4E2
:101EB000B47020904FF470611F91DDE91F108842CB
:101EC00003D221991F98884203D90020209021989D
:101ED0001F9041F69A112398884206DACAF810B08A
:101EE000CAF814B0CAF818B0C1E724981E90FE4989
:101EF000259880FB0110020442EA11401D902499AC
:101F00001D98401A40101C901D9841422498081AB0
:101F100040101B9000201A901E98002802DD1A988D
:101F2000401C1A901C98002802DD1A98801C1A90F8
:101F30001B98002802DD1A98001D1A901A9810B1FB
:101F40001A98072806D1CAF810B0CAF814B0CAF80F
:101F500018B08CE7E4492298A1FB0001CDE91801F3
:101F6000DDE91801090441EA10410204CDE900212C
:101F7000239AD3170098FEF716FA0D46044600BFC1
:101F800000BF1A98072871D2DFE800F0A71E8B0463
:101F9000543A71001C98C117A0FB042301FB0431C3
:101FA00000FB0510110C41EA004607141E98C117EA
:101FB000A0FB042301FB043100FB0510110C41EAD6
:101FC00000484FEA20498FE01C984042C117A0FB0F
:101FD000042301FB043100FB0510110C41EA00460B
:101FE00007141B984042C117A0FB042301FB0431D6
:101FF00000FB0510110C41EA00484FEA204973E04C
:102000001E98C117A0FB042301FB043100FB05103F
:10201000110C41EA004607141B98C117A0FB0423CA
:1020200001FB043100FB0510110C41EA00484FEAA6
:10203000204959E01E984042C117A0FB042301FB30
:10204000043100FB0510110C41EA004607141C98EE
:102050004042C117A0FB042301FB043100FB051023
:10206000110C41EA00484FEA20493DE035E01B9859
:10207000C117A0FB042301FB043100FB0510110C68
:1020800041EA004607141C98C117A0FB042301FB7A
:10209000043100FB0510110C41EA00484FEA2049C9
:1020A00022E01B984042C117A0FB042301FB04312E
:1020B00000FB0510110C41EA004607141E9840422F
:1020C000C117A0FB042301FB043100FB0510110C18
:1020D00041EA00484FEA204906E0CAF810B0CAF8C1
:1020E00014B0CAF818B0C2E600BF00210846711A41
:1020F00077EB000001DA0026374600210846B8EBEE
:10210000010179EB000002DA4FF00008C14600201F
:102110000004229940EA11400B04CDE9163016EB79
:10212000080147EB0900CDE9141014A90EC917984E
:10213000591A90412CDA0023DDE914209A1A73EB26
:10214000000125DA3246DDE91601A2FB00CE07FBCD
:1021500000E006FB0100CDE900C06046DDE9142384
:102160000199FEF720F906460F464246DDE91601C1
:10217000A2FB00CE09FB00E008FB0100CDE900C096
:102180006046DDE914230199FEF70DF98046894682
:10219000DDE91610891B60EB0700B1EB080160EB6D
:1021A0000902880840EA82709110CDE912017A1084
:1021B0004FEA3603DDE9121059185041CDE91010ED
:1021C0005FEA69024FEA3803DDE9101059185041FF
:1021D000CDE90E104FF40043DDE91201C01841F1C2
:1021E0000001000C40EA01400914CDE90C01DDE9D1
:1021F0001010C91840F10002080C40EA0240111406
:10220000CDE90A01DDE90E10C91840F10002080C01
:1022100040EA02401114CDE908010022219BDDE9CA
:102220000C0104F007FE07900022219BDDE90A0162
:1022300004F000FE06900022219BDDE9080104F075
:10224000F9FD0590CDF810B0CDF80CB0CDF808B080
:102250001A9807282FD2DFE800F02E0B2704191256
:10226000200007990491069903910598029029E0AE
:1022700006990491079903910598029022E0059927
:10228000049107990391069802901BE00599049127
:10229000069903910798029014E006990491059914
:1022A0000391079802900DE0079904910599039115
:1022B0000698029006E0CDF810B0CDF80CB0CDF83D
:1022C00008B000BF00BFDDE91F215B46CDE9001269
:1022D00002AA03A904A804F068FE0498CAF8100032
:1022E0000398CAF8140001E068BB01000298CAF81C
:1022F000180000BFBBE5000070B50A480468001D67
:102300000568001D0668344454B108220649204679
:1023100004F0C0F8042204491031284604F0BAF849
:1023200070BD0000107AFF1F9200002030B50246F9
:10233000854C8869A04200D000BF00BF92F83C00E5
:10234000012801D1022030BD012082F83C0000BFED
:102350000868092816D91068C0680C780A3C04EB94
:1023600044050724AC40A0431468E0600C780A3CA4
:1023700004EB44048868A0401468E46820431468AF
:10238000E06013E0106800690C7804EB4405072452
:10239000AC40A043146820610C7804EB44048868C6
:1023A000A040146824692043146820611068806B81
:1023B00020F440101468A0631068846B088A401EE3
:1023C00044EA00501468A0630879C01C0C7C001B10
:1023D00000EB80041F20A0401468A46B84431068A5
:1023E00084630879C01C0C7C001B00EB8004088807
:1023F00080B2A0401468A46B20431468A063524CC0
:102400008869A04218D01068806820F47020146891
:10241000A060106880688C6920431468A060106810
:10242000806820F440101468A06010688068CC694F
:1024300020431468A0600BE01068806820F47020CE
:102440001468A0601068806820F440101468A060D0
:10245000487D30B11068406840F480601468606066
:1024600005E01068406820F4806014686060087DB2
:1024700030B11068406840F480501468606005E036
:102480001068406820F48050146860604868012833
:1024900004D002280FD0032827D119E01068406922
:1024A0006FF30B001468606110684069CC682043CA
:1024B0001468606126E0106880696FF30B0014688F
:1024C000A06110688069CC6820431468A06119E09D
:1024D0001068C0696FF30B001468E0611068C06990
:1024E000CC6820431468E0610CE01068006A6FF368
:1024F0000B00146820621068006ACC6820431468DE
:10250000206200BF00BF114B114C1068A04206D1E1
:102510000868122803D1586840F4800058600C4CB9
:102520001068A04209D10868102802D00868112854
:1025300003D1586840F40000586000BF002082F8C2
:102540003C0000BF00BFFEE601000F000023014079
:10255000002001402DE9F041044667492068884287
:1025600001D0BDE8F0816548007820B102280BD089
:1025700003287DD157E06248FEF7C6FC012802D14E
:1025800002205E490870B1E04FF400415C48083811
:10259000C0F8B41042F2D001C0F8B8100020584979
:1025A0000839086042F21070C1F8AC0000215448AC
:1025B0000838C0F8B010AC30FFF706FA50480838B9
:1025C000D0F8BC004F49096848634D480838D0F836
:1025D000C0004C490968886349480838D0F8C400ED
:1025E00048490968C86348480068401C4649086073
:1025F00044F62061884215D307F00EFC4349088059
:1026000000204149086000213D4808388166C0F833
:10261000941003203949087007224FF4FA713C489E
:10262000FFF70CF862E00121334803F052FF344910
:10263000083988610121374803F04BFF30490839D8
:10264000C8612F48FFF780F8334807882F48038870
:1026500007250026F91A002901DA01F5805101FB4E
:1026600005FCCCF30B025001B0F5803F03DD00E028
:1026700024E0A0F5003016B1C0F1000C00E0844663
:102680001F480838C0F800C000218165FEF718FF18
:102690001B480838D0F8BC001A4909684863184834
:1026A0000838D0F8C000174909688863144808380A
:1026B000D0F8C40013490968C86317E000BF114887
:1026C0000068006A41F21111084068B90D480068BD
:1026D000006A8910084038B90A480068406C20F444
:1026E000004008490968486400BF00BF00BF0B48AC
:1026F00003F037FA00BF34E7002001404E0000200D
:1027000080010020082100202C0000203200002041
:102710001C00002000210140300000207003002038
:1027200008B5024600200090401F13681860012978
:1027300011D002290BD0032905D004290FD110682C
:10274000806C00900CE01068406C009008E010680D
:10275000006C009004E01068C06B009000E000BFC7
:1027600000BF009808BD000038B501460020009069
:102770000022002300BF91F83C00012801D1022073
:1027800038BD012081F83C0000BF0868806800F077
:102790000100A0B90868806840F001000D68A860D9
:1027A00035480068354DB0FBF5F000EB4000009077
:1027B00002E00098401E009000980028F9D10868B7
:1027C000806800F0010000284BD0086C42F201053F
:1027D000A84340F480500864086C00F4807008B985
:1027E0000020486400BF002081F83C0000BF401F6B
:1027F0000D682860224C606800F01F00B0B90868BE
:10280000806800F4401008B9012000E00020024672
:1028100008684068012525EA90230AB303B30868D5
:10282000806840F480000D68A86022E00868806835
:1028300000F4401008B9012000E0002002460868BA
:102840004068012525EA90230E4D0868A84210D162
:1028500032B12BB10868806840F480000D68A86030
:1028600007E0086C40F010000864486C40F001007C
:102870004864002084E700003400002040420F003C
:10288000002301400020014038B50146002000909F
:102890000022002300BF91F83C00012801D1022052
:1028A00038BD012081F83C0000BF0868806800F056
:1028B0000100A0B90868806840F001000D68A860B8
:1028C00038480068384DB0FBF5F000EB4000009050
:1028D00002E00098401E009000980028F9D1086896
:1028E000806800F00100002851D0086C42F2010518
:1028F000A84340F480500864086C00F4807008B964
:102900000020486400BF002081F83C0000BF401F49
:102910000D6828600868406840F080000D686860B5
:10292000224C606800F01F00B0B90868806800F4AD
:10293000401008B9012000E0002002460868406805
:10294000012525EA90230AB303B30868806840F4A0
:1029500080000D68A86022E00868806800F44010DC
:1029600008B9012000E000200246086840680125FF
:1029700025EA90230E4D0868A84210D132B12BB140
:102980000868806840F480000D68A86007E0086C63
:1029900040F010000864486C40F0010048640020DA
:1029A0007EE700003400002040420F000023014079
:1029B0000020014010B502460B4600BF92F83C00D3
:1029C000012801D1022010BD012082F83C0000BF87
:1029D0000F49486820F01F00486048681C68204381
:1029E0004860486820F44040486048685C6820437C
:1029F0004860486820F47060486048689C682043DC
:102A0000486000BF002082F83C0000BF00BFDAE74A
:102A10000023014038B502460020009000BF92F824
:102A20003C00012801D1022038BD012082F83C0081
:102A300000BF0868092816D91068C0680C780A3CDD
:102A400004EB44050724AC40A0431468E0600C7814
:102A50000A3C04EB44048868A0401468E4682043FE
:102A60001468E06013E0106800690C7804EB44051A
:102A70000724AC40A043146820610C7804EB4404A4
:102A80008868A0401468246920431468206148685D
:102A9000072817D21068406B0C79641E04EB84057C
:102AA0001F24AC40A04314686063088880B20C798E
:102AB000641E04EB8404A0401468646B2043146813
:102AC000606331E048680D2817D21068006B0C79FC
:102AD000E41F04EB84051F24AC40A043146820636A
:102AE000088880B20C79E41F04EB8404A0401468C9
:102AF000246B20431468206316E01068C06A0C79C8
:102B00000D3C04EB84051F24AC40A0431468E06234
:102B1000088880B20C790D3C04EB8404A040146852
:102B2000E46A20431468E062194B1A4C1068A04212
:102B300006D10868122803D1586840F48000586014
:102B4000144C1068A0421CD10868102802D00868F4
:102B5000112816D1586840F4000058600868102801
:102B60000FD10D4800680D4CB0FBF4F000EB800075
:102B70004000009002E00098401E0090009800285D
:102B8000F9D100BF002082F83C0000BF00BF4BE736
:102B900000230140002001403400002040420F008B
:102BA000704770472DE9F041044600250026206853
:102BB00007682068D0F8048007F0020508F02006B6
:102BC00095B38EB3206C00F0100018B9206C40F45F
:102BD000007020642068806800F04050E8B9207ED2
:102BE000D8B92068C06A00F4700020B120688068FD
:102BF00000F4806088B92068406820F020002168D7
:102C00004860206C20F480702064206C00F48050B8
:102C100018B9206C40F0010020642046FFF7C0FF87
:102C20006FF012002168086007F0040508F08006C4
:102C3000E5B3DEB3206C00F0100018B9206C40F44E
:102C4000005020642068806800F4401038BB206881
:102C5000806B00F4401020B12068806800F4806030
:102C6000E8B92068406800F48060C0B920688068D6
:102C700000F0405098B9207E88B92068406820F064
:102C8000800021684860206C20F480502064206C13
:102C900000F4807018B9206C40F0010020642046D8
:102CA000FFF758FC6FF00C002168086007F0010581
:102CB00008F0400685B17EB12068006800F0010090
:102CC00050B1206C40F480302064204600F050F871
:102CD0006FF001002168086007F0200508F08066A9
:102CE0007DB176B1606C40F0020060646FF020004E
:102CF000216808602046FFF754FF6FF0200021682C
:102D00000860BDE8F081000070B5044600250CB9EC
:102D1000012070BD1549A06A884200D000BF206C18
:102D200030B9204600F026F80020606484F83C00AA
:102D3000206C00F0100088B9206C20F4885040F01E
:102D4000020020642046FDF7F9FF00206064206C3B
:102D500020F0020040F00100206400E0012500BFE7
:102D6000002084F83C0000BF2846D2E70100000F95
:102D70007047000010B586B00446142101A8FDF785
:102D8000EEFC6349206888426ED100BF00200090AD
:102D90006048006840F480705E490860084600683A
:102DA00000F48070009000BF00BF00BF00200090C2
:102DB00058481438006840F0040056491439086037
:102DC0000846006800F00400009000BF00BF00BF8C
:102DD000002000900846006840F0010008600846A6
:102DE000006800F00100009000BF00BF01200190CA
:102DF000032002900020039001A9474800F040FA08
:102E000020200190032002900020039001A9434854
:102E100000F036FA4248434908600020486000212B
:102E200040488160C1604FF4806101618900416167
:102E3000890081618911C1614FF440310162002133
:102E4000416200F093F908B1FEF7C6FA00BF3548B9
:102E5000A063846300BF00221146122000F0A6FB8D
:102E6000122000F08FFB50E02F49206888424CD19F
:102E700000BF002000902748006840F400702549FA
:102E800008600846006800F40070009000BF00BFB2
:102E900000BF002000901F481438006840F0040074
:102EA0001C49143908600846006800F004000090CE
:102EB00000BF00BF00BF002000900846006840F03F
:102EC000010008600846006800F00100009000BFA3
:102ED00000BF22200190032002900020039001A94E
:102EE0000D4800F0CDF94020019003200290002011
:102EF000039001A9094800F0C3F9002211461220ED
:102F000000F054FB122000F03DFB06B010BD0000A5
:102F10000020014044380240000802400000024006
:102F2000106402405020002000210140F8B5044602
:102F3000002000908C4800684FF41651B0FBF1F768
:102F4000A56D2E6894F85C1008208840304098B138
:102F50002068006800F0040070B12068006820F06C
:102F600004002168086094F85C1008208840A8607C
:102F7000606D40F00100606594F85C1001208840AD
:102F8000304068B12068406900F0800040B194F89A
:102F90005C1001208840A860606D40F00200606510
:102FA00094F85C1004208840304068B120680068C4
:102FB00000F0020040B194F85C1004208840A86042
:102FC000606D40F00400606594F85C10102088404B
:102FD000304078B32068006800F0080050B394F8DF
:102FE0005C1010208840A8602068006800F48020F1
:102FF00080B12068006800F4002028B9206CC8B1B6
:103000002046216C884715E0A06C98B12046A16C41
:1030100088470FE02068006800F4807028B92068B5
:10302000006820F0080021680860206C10B120467C
:10303000216C884794F85C1020208840304000289C
:1030400065D02068006800F0100000285FD094F878
:103050005C1020208840A86094F83500052828D10D
:103060002068006820F01600216808602068406928
:1030700020F0800021684861206C08B9A06C28B15C
:103080002068006820F008002168086094F85C104F
:103090003F208840A860012084F8350000BF002050
:1030A00084F8340000BF206D10B12046216D8847A0
:1030B000F8BD2068006800F4802080B120680068B6
:1030C00000F4002028B9606C10B12046616C88477C
:1030D0001DE0E06BD8B12046E16B884717E020681F
:1030E000006800F4807068B92068006820F0100063
:1030F00021680860012084F8350000BF002084F8B2
:10310000340000BFE06B10B12046E16B8847606D72
:1031100038B3606D00F00100F0B1052084F835008F
:103120002068006820F001002168086000BF009856
:10313000401C0090B84200D905E02068006800F00B
:1031400001000028F3D100BF012084F8350000BF42
:10315000002084F8340000BFE06C10B12046E16C20
:10316000884700BFA4E70000340000202DE9F041AB
:103170000446002500F08CF9074614B90120BDE88B
:10318000F081606A00B100BF022084F8350000BF02
:10319000002084F8340000BF2068006820F001009F
:1031A000216808600AE000F073F9C01B052805D902
:1031B00020206065032084F83500E0E7206800687F
:1031C00000F001000028EED1206805682148054084
:1031D000D4E901010843E1680843216908436169B2
:1031E0000843A1690843E1690843216A084305438C
:1031F000606A042803D1D4E90B0108430543206821
:1032000005602068456925F00705606A0543606A26
:1032100004280DD1A06A0543E06A48B12046FDF7B5
:1032200083FF28B140206065012084F83500A6E7BF
:10323000206845612046FDF75DFF064694F85C1066
:103240003F208840B06000206065012084F8350090
:10325000002094E73F8010F070B5044600F018F9A4
:1032600006462546681C10B104480078054400BF96
:1032700000F00EF9801BA842FAD370BD4000002078
:10328000F8B502460B460025002400200021D6E0B8
:10329000012606FA01F51E6806EA0504AC4274D15F
:1032A0001E7906F00306012E04D01E7906F00306EF
:1032B000022E13D190684F000326BE40B0434F004A
:1032C000DE68BE4030439060506801268E40B043B7
:1032D0001E79C6F300168E40304350601E7906F00A
:1032E0000306032E09D0D0684F000326BE40B0432A
:1032F0004F009E68BE403043D0601E7906F0030642
:10330000022E13D1CF0802F1200656F827004E07EF
:10331000F70E0F26BE40B0434F07FF0E1E69BE409A
:103320003043CF0802F1200646F8270010684F000E
:103330000326BE40B0431E7906F003064F00BE4090
:10334000304310605E6806F44036002E76D000BF31
:10335000002600963C4E366846F480463A4F3E6062
:103360003E46366806F48046009600BF00BF374EE2
:103370008F0856F827008E07370F0F26BE40B04340
:10338000334EB24202D1002624E057E0314EB24221
:1033900001D101261EE0304EB24201D1022619E0D1
:1033A0002E4EB24201D1032614E02D4EB24201D17D
:1033B00004260FE02B4EB24201D105260AE02A4E28
:1033C000B24201D1062605E0284EB24201D10726BD
:1033D00000E008268F073F0FBE4030431B4E8F088A
:1033E00046F82700224E3068A0435E6806F4801637
:1033F00006B120431E4E3060361D3068A0435E6823
:1034000006F4001606B12043194E361D3060184EE2
:10341000361F3068A0435E6806F4003606B12043CC
:10342000134E361F3060361F3068A0435E6806F4C6
:10343000803606B120430E4E083E3060491C1029EC
:10344000FFF426AFF8BD00004438024008380140C0
:10345000000002400004024000080240000C02404C
:10346000001002400014024000180240001C0240FC
:10347000083C0140024613690B400BB1012000E0FB
:10348000002070470AB1816101E00B04836170473D
:1034900001480068704700003800002003480068B9
:1034A0000349097808440149086070473800002042
:1034B0004000002010B50D48006840F400700B4932
:1034C00008600846006840F48060086008460068AC
:1034D00040F480700860032000F0A6F80F2000F090
:1034E00007F800F02BF8002010BD0000003C02405F
:1034F00070B504460E4800784FF47A71B1FBF0F0D5
:103500000C490968B1FBF0F5284601F0C5FC08B18B
:10351000012070BD102C07D200222146501E00F061
:1035200045F80548046001E00120F2E70020F0E7DB
:1035300040000020340000203C00002008B500BFFF
:10354000002000900E48006840F480400C4908605C
:103550000846006800F48040009000BF00BF00BF34
:1035600000200090081F006840F08050091F08608C
:103570000846006800F08050009000BF00BF08BD02
:10358000443802400146084600280DDB00BF00BF5A
:1035900000F01F0301229A4043099B0003F1E0233E
:1035A000C3F8002100BF00BF00BF70472DE9F05FE6
:1035B00080460D461646002706F050FC0746394661
:1035C0002A46334601F00700C0F1070ABAF1040F9A
:1035D00002D94FF0040A01E0C0F1070AD14600F118
:1035E000040ABAF1070F02D24FF0000A01E0A0F17D
:1035F000030AD4464FF0010A0AFA09FAAAF1010AAD
:103600000AEA020A0AFA0CFA4FF0010B0BFA0CFB59
:10361000ABF1010B0BEA030B4AEA0B0421464046CF
:1036200006F024FCBDE8F09F00BF00F00702064B47
:1036300019684FF6FF031940044B0B4343EA02217C
:10364000014B196000BF70470CED00E00000FA0567
:10365000704702461068416200207047F0B503468B
:1036600015461868446A21B944EA05401E68B062EC
:1036700019E01868806A04EB1044002208E018681A
:1036800000F5827050F8220004EB1044501CC2B2C6
:10369000481E9042F3D844EA0547186800F5827046
:1036A0004E1E40F826700020F0BD10B50446D4F838
:1036B000E00404F018FF10BD70B504460D4605EB9C
:1036C000C50304F1140101EB8301CA682946D4F84B
:1036D000E00404F0FBFD70BD70B504460D4605EB3B
:1036E000C50304F5157101EB8301CA682946D4F8B6
:1036F000E00404F073FE70BD10B50446D4F8E00495
:1037000004F0F4FE10BD2DE9F04104460D4605F02D
:103710008000802808D105F00F0000EBC00104F103
:10372000140000EB810607E005F00F0000EBC0017C
:1037300004F5157000EB81063146206806F02CF97F
:1037400007463846BDE8F08170B504460E4606F0DF
:10375000800080280AD106F00F0000EBC00104F1C0
:10376000140000EB81050120687009E006F00F00ED
:1037700000EBC00104F5157000EB810500206870B6
:1037800006F00F00287000BF94F89404012801D1BE
:10379000022070BD012084F8940400BF29462068EF
:1037A00005F088FC00BF002084F8940400BF00BF2F
:1037B000EFE770B504460E4606F00F002179884207
:1037C00001D9012070BD06F0800080280AD106F0E2
:1037D0000F0000EBC00104F1140000EB8105012093
:1037E000687009E006F00F0000EBC00104F51570E9
:1037F00000EB8105002068700020A87006F00F0023
:10380000287000BF94F89404012801D10220D9E760
:10381000012084F8940400BF2946206805F048FE82
:1038200000BF002084F8940400BF00BFCAE702462E
:1038300001F00F0000EBC00302F5157000EB8300F0
:10384000406970472DE9F04705460E4690461F46F1
:103850004FF0000906F0800080280AD106F00F0022
:1038600000EBC00105F1140000EB81040120607041
:1038700009E006F00F0000EBC00105F5157000EB44
:1038800081040020607006F00F002070C8F30A0069
:10389000A0602771607808B120786083022F01D181
:1038A0000020607100BF95F89404012802D1022025
:1038B000BDE8F087012085F8940400BF2146286800
:1038C00005F004FB00BF002085F8940400BF4846C3
:1038D000EEE72DE9F04105460E461746984606F0FC
:1038E0000F0000EBC00105F5157000EB8104E760E7
:1038F000C4F8108000206061607006F00F00207036
:10390000A879012800D1E761AA792146286805F045
:1039100063FE0020BDE8F08170B504460D4605F059
:103920000F002179884201D9012070BD05F0800087
:1039300080280AD105F00F0000EBC00104F114004B
:1039400000EB81060120707007E005EBC50104F56E
:10395000157000EB8106002070700120B07005F03A
:103960000F00307000BF94F89404012801D10220A8
:10397000DBE7012084F8940400BF3146206805F09D
:10398000DEFD05F00F0028B9A17904F29C42206801
:1039900005F056FD00BF002084F8940400BF00BF6E
:1039A000C3E72DE9F04105460E461746984606F056
:1039B0000F0000EBC00105F1140000EB8104E7608B
:1039C000C4F81080002060610120607006F00F00D4
:1039D0002070A879012800D1E761AA7921462868DA
:1039E00005F0FAFD0020BDE8F0812DE9FE4F044608
:1039F000D4F800B05E46206806F0B0F8002874D114
:103A0000206806F0EAF808B9BDE8FE8F40F6080025
:103A10008059C0F30D20C4F8D404206806F0DDF806
:103A200000F00200022805D12068406900F0020081
:103A300021684861206806F0D0F800F010001028D6
:103A400045D12068806920F0100021688861DBF88A
:103A5000209009F00F0000EBC00104F5157000EB99
:103A6000810AC9F3434002281AD147F6F07009EAE7
:103A7000000030B3C9F30A125846DAF80C1006F009
:103A8000B1F8C9F30A11DAF80C000844CAF80C00BE
:103A9000C9F30A11DAF814000844CAF8140010E057
:103AA000C9F3434006280CD1082204F29C41584631
:103AB00006F098F8C9F30A11DAF814000844CAF8B5
:103AC00014002068806940F0100021688861206837
:103AD00006F083F800F40020B0F5002F7BD100251C
:103AE000206806F04AF8029072E0E1E2029800F0E5
:103AF0000100002868D0E9B2206806F061F880462D
:103B000008F0010048B1012106F5306000EB4510D6
:103B100081602946204602F0B5FF08F00800082819
:103B200009D1082106F5306000EB45108160294677
:103B3000204602F075FF08F01000102805D1102172
:103B400006F5306000EB4510816008F002000228A5
:103B500024D1DBF8140000F08000802807D140F663
:103B60000400805940F4806140F60400815105EB67
:103B7000C50104F5157000EB810A9AF803000128CD
:103B800006D100208AF80300E9B2204600F09BFA33
:103B9000022106F5306000EB4510816008F020003E
:103BA000202805D1202106F5306000EB451081600A
:103BB00008F40050B0F5005F06D14FF4005106F54F
:103BC000306000EB451081606D1C02984008029047
:103BD000029800288AD1206805F0FFFF00F48020B9
:103BE000B0F5802F7DD1206805F0BDFF0290002543
:103BF0009AE0029800F00100002873D0E9B2206832
:103C000005F0C5FF804608F00100F0B305F00F0194
:103C100001208840019040F634008159019821EA42
:103C2000000040F634018851012106F5106000EBD8
:103C300045108160A079012824D105EBC50104F16C
:103C4000140000EB810005EBC502C16804F114000B
:103C500000EB82008068014405EBC50204F114000A
:103C600000EB8200C1606DB905EBC50104F11400E1
:103C700000EB8100006928B904F29C420121206810
:103C800005F0DEFBE9B2204600E001E0FFF714FD9D
:103C900008F00800082805D1082106F5106000EB9F
:103CA0004510816008F01000102805D1102106F59C
:103CB000106000EB4510816008F04000402805D1FD
:103CC000402106F5106000EB4510816008F002000D
:103CD00002281DD12946584605F003FF05EBC50112
:103CE00001E025E01CE004F1140000EB810A9AF8E1
:103CF0000300012806D100208AF80300E9B220461B
:103D000000F0D8F9022106F5106000EB4510816043
:103D100008F08000802803D12946204602F054FF95
:103D20006D1C029840080290029800287FF461AF51
:103D3000206805F052FF00F00040B0F1004F1CD1A8
:103D400040F60400805920F0010140F60400815142
:103D500094F8CC04012807D1002084F8CC04002179
:103D60002046FFF775FC02E0204600F0D1FA2068FB
:103D7000406900F0004021684861206805F02DFF8F
:103D800000F40060B0F5006F0ED140F608008059D5
:103D900000F0010010B1204600F012FB20684069DD
:103DA00000F4006021684861206805F016FF00F407
:103DB0008050B0F5805F7ED140F60400805920F03D
:103DC000010140F6040081511021206805F089FEB0
:103DD000002732E04FF67F3106F5106000EB471008
:103DE000816006F5106000EB4710006820F40011B8
:103DF00006F5106000EB471001604FF67F3106F5C5
:103E0000306000EB4710816006F5306000EB471032
:103E1000006820F4001106F5306000EB47100160E7
:103E200006F5306000EB4710006840F0006106F5D1
:103E3000306000EB471001607F1C2079B842C9D880
:103E400040F61C00805940F0011140F61C008151E1
:103E5000E07B70B1D6F8840840F00B01C6F88418F6
:103E600040F64400805940F00B0140F64400815177
:103E70000FE040F61400805942F22B01084340F64F
:103E800014018851081F805940F00B014FF4016064
:103E90008151D6F8000820F4FE60C6F80008A17928
:103EA00004F29C42206805F0CBFA2068406900F4D7
:103EB0008050216800E000E04861206805F08DFE38
:103EC00000F40050B0F5005F17D1206805F066F8E7
:103ED000206805F030FEE07100F056FB0090E279BA
:103EE0002068009905F000FF204600F0F9F92068ED
:103EF000406900F4005021684861206805F06DFEBB
:103F000000F00800082808D1204600F008FA2068D0
:103F1000406900F0080021684861206805F05DFEF6
:103F200000F08000802818D1DBF8180020F0800015
:103F3000CBF8180001250DE005EBC50104F515705F
:103F400000EB8100C078012803D1E9B22046FFF7D9
:103F5000DAFB6D1C2079A842EED8206805F03DFE02
:103F600000F48010B0F5801F2DD1012522E006F568
:103F7000106000EB4510D0F8009005EBC50104F18E
:103F8000140000EB81000079012812D109F00040F3
:103F9000B0F1004F0DD1012105EBC50204F1140071
:103FA00000EB8200C170E8B240F080012046FFF7CC
:103FB000AAFB6D1C2079A842D9D82068406900F47A
:103FC000801021684861206805F007FE00F40010A9
:103FD000B0F5001F44D1012538E006F5306000EB54
:103FE0004510D0F8009005EBC50104F5157000EB05
:103FF00081000079012828D109F00040B0F1004F7C
:1040000023D194F8D40400F00100C9F300418842A0
:104010001BD1012105EBC50204F5157000EB8200F0
:10402000C170DBF8180040F08000CBF81800DBF816
:10403000140000F0800040B940F60400805940F4BC
:10404000007140F60400815103E06D1C2079A84204
:10405000C3D800BF2068406900F40010216848619F
:10406000206805F0BAFD00F08040B0F1804F08D123
:104070002046FFF71AFB2068406900F08040216865
:104080004861206805F0A9FD00F0040004280FD164
:104090002068D0F8049009F00400042802D12046DA
:1040A000FFF72AFB2068406840EA09002168486061
:1040B00000BFA9E470B504460D462946D4F8E004D3
:1040C00004F080FA70BD70B504460D462946D4F858
:1040D000E00404F09BFA70BDF8B504460CB9012069
:1040E000F8BD266894F8950428B9002084F8940453
:1040F000204600F0A1F8032084F89504B6F1A04F03
:1041000001D10021A171206805F092F9207C8DF881
:10411000000094E80F0004F055FF20B1022084F85D
:1041200095040120DCE70021206805F08BFD20B11B
:10413000022084F895040120D2E7002531E0012116
:1041400005EBC50204F1140000EB8200417005EBA1
:10415000C50104F1140000F8215005EBC50100EB86
:1041600081004583002105EBC50204F1140000EB3A
:104170008200017105EBC50204F1140000EB82001E
:10418000816005EBC50204F1140000EB8200C16000
:1041900005EBC50204F1140000EB82000161681C0C
:1041A000C5B22079A842CADC00252AE0002105EB2F
:1041B000C50204F5157000EB8200417005EBC501E6
:1041C00004F5157000F82150002105EBC50200EB45
:1041D0008200017105EBC50204F5157000EB820049
:1041E000816005EBC50204F5157000EB8200C1602B
:1041F00005EBC50204F5157000EB82000161681C37
:10420000C5B22079A842D1DC207C8DF8000094E86A
:104210000F0005F019F820B1022084F89504012060
:104220005EE700206074012084F89504206804F0A3
:10423000F9FF002054E7000010B586B004461421B1
:1042400001A8FCF78CFA2068B0F1A04F42D100BF62
:10425000002000902048006840F001001E490860DE
:104260000846006800F00100009000BF00BF4FF456
:10427000C05001900220029000200390032004907F
:104280000A20059001A91548FEF7FAFF00BF124861
:10429000001D006840F080000F49091D086000BF44
:1042A000002000900C481430006840F480400A4917
:1042B000143108600846006800F48040009000BF98
:1042C00000BF00BF002211464320FFF76FF94320D3
:1042D000FFF758F906B010BD303802400000024028
:1042E00070B504460125E07908B9002506E0E079BB
:1042F000022801D1012501E0FDF76EF82946D4F826
:10430000E00404F02DFAD4F8E00404F0D3F970BD11
:1043100010B50446D4F8E00404F003FA10BD10B55B
:104320000446D4F8E00404F007FA10BD70B5044662
:104330000D4600BF94F89404012801D1022070BDFD
:10434000012084F8940400BF65742946206805F0B4
:10435000ADFC00BF002084F8940400BF00BFEEE76E
:1043600010B5044604F29C41D4F8E00404F00FFABE
:1043700010BD70B50446256800BF94F89404012868
:1043800001D1022070BD012084F8940400BFE868C8
:1043900000F0400030B1607B012803D1A86B40F4ED
:1043A0008030A863206805F06DFB206804F028FFCA
:1043B00000BF002084F8940400BF00BFE2E70000C3
:1043C00010B50446D4F8E00404F03EFA2068D0F8B2
:1043D000000E40F001002168C1F8000EE07A28B11B
:1043E0000348006840F006000149086010BD000065
:1043F00010ED00E07047000070B504460D460CB9A2
:10440000012070BD5848006800F00700A84209D29A
:1044100055490D700846006800F00700A84201D019
:104420000120EEE7207800F0020002281DD120785C
:1044300000F00400042805D14C48006840F4E05026
:104440004A490860207800F00800082805D147484C
:10445000006840F46040454908604448006820F026
:10446000F000A168084341490860207800F001008D
:10447000A8B36068012807D13C4808380068C0F339
:104480004040B8B90120BCE76068022802D06068EB
:10449000032807D1354808380068C0F3406048B9A0
:1044A0000120AEE7314808380068C0F3400008B981
:1044B0000120A6E72D48006820F00300616808434A
:1044C0002A490860FEF7E4FF064609E0FEF7E0FF30
:1044D000801B41F28831884202D9032091E707E02E
:1044E0002248006800F00C006168B0EB810FEDD14C
:1044F0001D48006800F00700A84209D91A490D704C
:104500000846006800F00700A84201D0012078E7C3
:10451000207800F00400042807D11448006820F433
:10452000E050E168084311490860207800F0080075
:10453000082808D10D48006820F46040216940EA4D
:10454000C1000A49086000F025F808490968C1F36C
:104550000311074A515CC8400649086006480068D4
:10456000FEF7C6FF00204CE7003C0240083802403E
:10457000969F0008340000203C00002001200149E3
:10458000C864704700004742014800687047000057
:10459000340000202DE9F047002400250026A14624
:1045A0002548006800F00C0020B1042805D0082838
:1045B0003AD105E0DFF8849039E0DFF8849036E006
:1045C0001D48001F006800F03F041B48001F0068E2
:1045D00000F4800078B11A481749091F0968C1F32F
:1045E0008811A0FB01700146224600233846FBF7E4
:1045F00063FE05460EE011480F49091F0968C1F323
:104600008811A0FB01700146224600233846FBF7C3
:1046100053FE05460848001F0068C0F30140401CD7
:104620004600B5FBF6F902E0DFF8109000BF00BFCE
:104630004846BDE8F0870000083802400024F40036
:1046400000127A0010B50648006800F0800080284B
:1046500005D1FFF7CFFE80200149891C087010BDED
:104660000C380240F8B504460CB90120F8BD20789A
:1046700000F00100002874D0F948006800F00C0038
:1046800004280DD0F648006800F00C00082813D16B
:10469000F348001F006800F48000B0F5800F0BD1D4
:1046A000EF4808380068C0F34040002859D06068DF
:1046B000002856D10120D9E700BF6068B0F5803FDF
:1046C00008D1E7480838006840F48030E4490839E8
:1046D00008601EE06068B0F5A02F0DD1E0480838F2
:1046E000006840F48020DE49083908600846006808
:1046F00040F4803008600CE0D9480838006820F4A5
:104700008030D749083908600846006820F48020C6
:10471000086000BF606890B1FEF7BAFE054606E08B
:10472000FEF7B6FE401B642801D903209EE7CC4863
:1047300008380068C0F340400028F1D011E0FEF7CF
:10474000A7FE054606E0FEF7A3FE401B642801D93C
:1047500003208BE7C24808380068C0F340400028B7
:10476000F1D1207800F0020002285FD1BC48006837
:1047700000F00C0058B1BA48006800F00C0008289E
:104780001CD1B748001F006800F48000B0B9B448DD
:1047900008380068C0F3400020B1E068012801D06B
:1047A000012063E7AE480838006820F0F80021696E
:1047B00040EAC100AA490839086037E0E06800B360
:1047C0000120A8490860FEF763FE054606E0FEF7F3
:1047D0005FFE401B022801D9032047E7A0480838A4
:1047E0000068C0F340000028F1D09D4808380068F8
:1047F00020F0F800216940EAC100994908390860B1
:1048000014E0002097490860FEF742FE054606E0E6
:10481000FEF73EFE401B022801D9032026E7904800
:1048200008380068C0F340000028F1D1207800F07B
:10483000080008282CD16069A8B101208A490860C5
:10484000FEF726FE054606E0FEF722FE401B022884
:1048500001D903200AE782486C300068C0F34000A9
:104860000028F1D014E000207F490860FEF710FE18
:10487000054606E0FEF70CFE401B022801D9032086
:10488000F4E677486C300068C0F340000028F1D1AE
:10489000207800F00400042870D1002770483830D8
:1048A000006800F0805090B900BF002000906C4874
:1048B0003830006840F08050694938310860084657
:1048C000006800F08050009000BF00BF01276748DB
:1048D000006800F48070B0B96448006840F48070EB
:1048E00062490860FEF7D4FD054606E0FEF7D0FDFC
:1048F000401B022801D90320B8E65C48006800F498
:1049000080700028F2D000BFA068012808D1544868
:104910006830006840F001005149683108601DE0CE
:10492000A06805280DD14E486830006840F00400AA
:104930004B49683108600846006840F00100086093
:104940000CE047486830006820F0010044496831B5
:1049500008600846006820F00400086000BFA068F6
:10496000A8B1FEF795FD054609E0FEF791FD401B55
:1049700041F28831884202D9032077E626E03848A0
:1049800068300068C0F340000028EED013E0FEF766
:104990007FFD054608E0FEF77BFD401B41F28831B4
:1049A000884201D9032061E62D4868300068C0F3D1
:1049B00040000028EFD1012F07D129483830006886
:1049C00020F0805026493831086000BFA0690028D7
:1049D00045D02348006800F00C0008285DD0A0698D
:1049E000022845D100201F490866FEF751FD054603
:1049F00006E0FEF74DFD401B022801D9032035E6F5
:104A0000174808380068C0F340600028F1D1D4E9A5
:104A100007010843616A40EA81110122A06AC2EBE2
:104A2000500041EA00412C20005D41EA00600C4941
:104A3000091F086001200B490866FEF729FD05469D
:104A400006E0FEF725FD401B022801D903200DE6F4
:104A5000034808380068C0F340600028F1D049E0FE
:104A60000838024000004742800E47420070004074
:104A7000002021490866FEF70BFD054606E0FEF71B
:104A800007FD401B022801D90320EFE51B48006801
:104A9000C0F340600028F2D12CE0A069012800D1C9
:104AA000E4E51648001D0668A069012820D006F438
:104AB0008001E06981421BD106F03F01206A8142FA
:104AC00016D147F6C0703040616AB0EB811F0FD13C
:104AD00006F440310122A06AC2EB5000B1EB004F56
:104AE00006D106F070612C20005DB1EB006F01D0A3
:104AF0000120BBE50020B9E5000047420038024034
:104B000010B504460CB9012010BD606A38B9606860
:104B1000B0F5827F00D105E00021E16102E00021D3
:104B2000216161610021A16294F8510028B900203F
:104B300084F85000204600F047F8022084F8510025
:104B40002068006820F0400021680860A08800F418
:104B50008270218901F404410843A18901F40061B4
:104B60000843217C01F002010843217D01F001018D
:104B70000843218B01F400710843217F01F03801C3
:104B800008432021095D01F080010843218D01F4D3
:104B900000510843216808600421A06901EA10401F
:104BA00094F8241001F0100108432168486020683F
:104BB000C06920F400602168C861002060650120A0
:104BC00084F8510000209FE710B586B004461421F8
:104BD00001A8FBF7C4FD1B492068884230D100BF03
:104BE000002000901848006840F400401649086012
:104BF0000846006800F40040009000BF00BF00BFFE
:104C00000020009010481038006840F004000E4961
:104C1000103908600846006800F00400009000BFEA
:104C200000BF4FF4E050019002200290002003905A
:104C3000032004900620059001A90448FEF720FBFC
:104C400006B010BD003C0040403802400008024061
:104C50002DE9FE4F04460F4690461D460C9E01204E
:104C60000190FEF715FC814694F851B060680290FF
:104C7000AA46BBF1010F0BD00298B0F5827F04D198
:104C8000A06810B9BBF1040F02D00220BDE8FE8F6E
:104C90001FB1B8F1000F00D00DB90120F6E700BF39
:104CA00094F85000012801D10220EFE7012084F898
:104CB000500000BF94F85100042802D0052084F869
:104CC000510000206065C4F83880E587A587276318
:104CD000E586A586206460642068006800F04000D6
:104CE000402805D02068006840F040002168086036
:104CF000E068B0F5006F52D1606810B1BAF1010FF1
:104D000009D1206B00882168C860206B801C20635B
:104D1000E08E401EE0863BE02068806800F00200E4
:104D2000022810D1E08E70B1019801280BD1206BC0
:104D300000882168C860206B801C2063E08E401EC4
:104D4000E086002001902068806800F0010068B1D2
:104D5000E08F58B12068C068A16B0880A06B801CF0
:104D6000A063E08F401EE08701200190FEF790FBDA
:104D7000A0EB0900B0420BD3701C48B1012084F8AD
:104D8000510000BF002084F8500000BF03207DE7E1
:104D9000E08E0028C0D1E08F0028BDD152E06068CD
:104DA00010B1BAF1010F09D1206B007821680873A6
:104DB000206B401C2063E08E401EE0863CE02068B3
:104DC000806800F00200022810D1E08E70B10198D6
:104DD00001280BD1206B007821680873206B401CE0
:104DE0002063E08E401EE0860020019020688068ED
:104DF00000F0010068B1E08F58B12068C068A16B75
:104E00000870A06B401CA063E08F401EE08701206B
:104E10000190FEF73DFBA0EB0900B04201D3701CEE
:104E200000B94EB9012084F8510000BF002084F879
:104E3000500000BF032029E7E08E0028BFD1E08F9B
:104E40000028BCD14A463146204601F023FF40B13C
:104E50002020606500BF002084F8500000BF0120C2
:104E600014E7A06850B900BF002000902068C06817
:104E7000009020688068009000BF00BF012084F887
:104E8000510000BF002084F8500000BF606D08B1E1
:104E90000120FBE60020F9E670B504462546681EB1
:104EA000B0F1807F01D301200FE0681E4FF0E021B8
:104EB00048610F214FF0FF3004F0D8FF00204FF081
:104EC000E021886107200861002070BD70477047AD
:104ED00010B50346002200BF93F83C00012801D121
:104EE000022010BD012083F83C0000BF22F0FF002B
:104EF000CC6840EA040222F440708C6840EA040264
:104F000022F480604C6840EA040222F400600C68DD
:104F100040EA040222F480500C6940EA040222F4C0
:104F200000504C6940EA040222F48040CC6940EA17
:104F300004021868426400BF002083F83C0000BFF0
:104F400000BFCEE730B502460B4600BF92F83C00EA
:104F5000012801D1022030BD012082F83C0000BFB1
:104F6000022082F83D00106844681068816824F0CF
:104F700070041868044310684460184D1068A84213
:104F80001BD01068B0F1804F17D0154D1068A842A3
:104F900013D0144D1068A8420FD0134D1068A842CA
:104FA0000BD0124D1068A84207D0114D1068A842CE
:104FB00003D0104D1068A84205D121F08001586837
:104FC000014310688160012082F83D0000BF00208D
:104FD00082F83C0000BF00BFBDE7000000000140B8
:104FE0000004004000080040000C004000040140A4
:104FF000004001400018004070B504460D4615B948
:1050000094F842000BE0042D02D14320005D06E03D
:10501000082D02D14420005D01E04520005D0128FB
:1050200001D0012070BD1DB9022084F842000EE0BD
:10503000042D03D102214320015508E0082D03D19E
:1050400002214420015502E002214520015504229D
:105050002946206802F059F92068406C40F400406D
:10506000216848641A49206888421BD02068B0F142
:10507000804F17D017492068884213D016492068FE
:1050800088420FD01549206888420BD01449206807
:10509000884207D013492068884203D0124920680B
:1050A00088420CD12068806800F00706062E0CD0DC
:1050B0002068006840F001002168086005E0206871
:1050C000006840F00100216808600020AAE70000A5
:1050D000000001400004004000080040000C0040B7
:1050E00000040140004001400018004010B5044693
:1050F0000CB9012010BD94F83D0028B9002084F8B7
:105100003C00204600F026F8022084F83D00211DD6
:10511000206802F079F8012084F8460000BF84F886
:105120003E0001213F2001554020015541200155FD
:1051300000BF00BF012084F84200432001554420F5
:1051400001554520015500BF012084F83D00002095
:10515000D0E7000038B504461949206888420FD1CD
:1051600000BF002000901748006840F0010015497A
:1051700008600846006800F00100009000BF1DE0D4
:1051800011492068884219D100BF002000900D48C5
:10519000001F006840F002000A49091F0860084625
:1051A000006800F00200009000BF00BF0022032151
:1051B0001D20FEF7FBF91D20FEF7E4F938BD0000C5
:1051C000000001404438024000040040014691F8CC
:1051D0003D00012801D001207047022081F83D00E8
:1051E0001A4B086898421BD00868B0F1804F17D05E
:1051F000174B0868984213D0164B086898420FD096
:10520000154B086898420BD0144B0868984207D099
:10521000134B0868984203D0124B086898420CD18F
:105220000868806800F00702062A0CD00868006849
:1052300040F001000B68186005E00868006840F065
:1052400001000B6818600020C6E700000000014064
:105250000004004000080040000C00400004014031
:105260000040014000180040014691F83D0001282F
:1052700001D001207047022081F83D000868C06815
:1052800040F001000B68D8601A4B086898421BD0A8
:105290000868B0F1804F17D0174B0868984213D0B8
:1052A000164B086898420FD0154B086898420BD0EF
:1052B000144B0868984207D0134B0868984203D0F3
:1052C000124B086898420CD10868806800F0070209
:1052D000062A0CD00868006840F001000B681860CE
:1052E00005E00868006840F001000B6818600020C5
:1052F000C0E700000000014000040040000800403A
:10530000000C004000040140004001400018004033
:105310002DE9F04104460D46002700BF94F83C00FB
:10532000012802D10220BDE8F081012084F83C0070
:1053300000BF022084F83D002068866826F07706CA
:1053400026F47F46206886602868502833D00CDC1D
:10535000202850D004DC00284BD0102851D149E03F
:10536000302849D040284CD139E060282DD0702811
:1053700007D0B0F5805F03D0B0F5005F41D10DE0FC
:1053800041E0D5E902136A68206801F0CFFF206888
:10539000866846F077062068866034E0D5E9021317
:1053A0006A68206801F0C2FF2068806840F480408D
:1053B0002168886027E0EA686968206802F0A6F83A
:1053C0005021206801F0BDFF1DE0EA68696820688F
:1053D00002F0AFF86021206801F0B3FF13E0EA6843
:1053E0006968206802F092F84021206801F0A9FF66
:1053F00009E000BF00BF00BF2968206801F0A1FFDD
:1054000001E0012700BF00BF012084F83D0000BF7C
:10541000002084F83C0000BF384684E7704770B530
:1054200004462068C5682068066906F00200022864
:1054300019D105F00200022815D1401F216808612A
:10544000012020772068806900F0030018B1204611
:10545000FFF7E4FF05E0204600F0E8F8204600F002
:105460009CF90020207706F00400042819D105F0EB
:105470000400042815D1C043216808610220207768
:105480002068806900F4407018B12046FFF7C6FF1D
:1054900005E0204600F0CAF8204600F07EF9002022
:1054A000207706F00800082819D105F00800082820
:1054B00015D1C04321680861042020772068C069A5
:1054C00000F0030018B12046FFF7A8FF05E02046D2
:1054D00000F0ACF8204600F060F90020207706F0DC
:1054E0001000102819D105F01000102815D1C04364
:1054F00021680861082020772068C06900F44070A6
:1055000018B12046FFF78AFF05E0204600F08EF82C
:10551000204600F042F90020207706F0010048B153
:1055200005F0010030B16FF00100216808612046EC
:1055300000F0BAF906F08000802809D105F080005B
:10554000802805D1C043216808612046FFF7BEFCD2
:1055500006F04000402809D105F04000402805D160
:10556000C04321680861204600F068FA06F0200078
:10557000202809D105F02000202805D1C04321684A
:1055800008612046FFF7A3FC70BD000010B586B08F
:105590000446142101A8FBF7E2F82049206888425C
:1055A0003AD100BF002000901D48006840F0020082
:1055B0001B4908600846006800F00200009000BF28
:1055C00000BF00BF002000900846006840F00100C6
:1055D00008600846006800F00100009000BF00BFAE
:1055E0004FF460400190022002900020039004904C
:1055F0000120059001A90B48FDF742FE4FF4E06041
:105600000190022002900020039004900120059058
:1056100001A90548FDF734FE06B010BD00000140A9
:1056200030380240000402400000024070472DE97B
:10563000F04104460D461646002700BF94F83C0092
:10564000012802D10220BDE8F081012084F83C004D
:1056500000BF36B1042E1BD0082E31D00C2E5ED1E7
:1056600045E02946206801F075FE2068806940F019
:105670000800216888612068806920F004002168A2
:10568000886120688069296908432168886148E049
:105690002946206801F096FE2068806940F4006089
:1056A000216888612068806920F4806021688861B1
:1056B00020688069296940EA01202168886130E01A
:1056C0002946206801F0BCFE2068C06940F008004F
:1056D0002168C8612068C06920F004002168C861A1
:1056E0002068C069296908432168C86119E0294612
:1056F000206801F0E1FE2068C06940F40060216884
:10570000C8612068C06920F480602168C861206891
:10571000C069296940EA01202168C86101E00127C8
:1057200000BF00BF00BF002084F83C0000BF384627
:1057300089E710B504460CB9012010BD94F83D006E
:1057400028B9002084F83C00204600F025F802200B
:1057500084F83D00211D206801F056FD012084F8E9
:10576000460000BF84F83E0001213F200155402043
:1057700001554120015500BF00BF012084F84200BF
:1057800043200155442001554520015500BF01200B
:1057900084F83D000020D0E77047704770B504469C
:1057A0000D4615B994F83E000BE0042D02D13F20C0
:1057B000005D06E0082D02D14020005D01E041209F
:1057C000005D012801D0012070BD1DB9022084F8C0
:1057D0003E000EE0042D03D102213F20015508E0D8
:1057E000082D03D102214020015502E00221412071
:1057F000015501222946206801F076FD23492068E1
:10580000884203D022492068884201D1012000E06B
:10581000002028B12068406C40F4004021684864B2
:105820001A49206888421BD02068B0F1804F17D0F9
:1058300018492068884213D01749206888420FD041
:105840001649206888420BD011492068884207D049
:1058500013492068884203D01249206888420CD13D
:105860002068806800F00706062E0CD020680068CB
:1058700040F001002168086005E02068006840F001
:1058800001002168086000209EE700000000014040
:10589000000401400004004000080040000C0040EB
:1058A00000400140001800402DE9F05F06465949CC
:1058B000306888427DD104F0AFFA57490880084625
:1058C000018856480288501AB0F5006F01DDA0F536
:1058D000805010F5006F01DA00F5805040F215237A
:1058E00080FB03375D4200BF00BF4D4A1268A91A12
:1058F0004B4A526882FB0132170447EA1340484A78
:1059000012680244464B1A601A46146800BF4248A7
:1059100000884249088000BF4FF4E16084FB0070BA
:1059200001464FF4803200233846FAF73CFD3D49EA
:1059300008603D480078032861D13C48407A01283E
:1059400003D03A48407A022807D139480068406CB1
:1059500040F400403649096848643448407A0128D8
:1059600010D132494FF40042C868514204F092FA13
:10597000074600212F488165C0F8847000202E4919
:10598000486244E02948407A02282FD127494FF441
:10599000E162C868514204F07DFA0746BA464FF406
:1059A00080308AFB00B001464FF4E1620023584684
:1059B00000E02DE0FAF7F7FC8046DFF87CA0C34654
:1059C000CAF814B021465046FBF752FFDAF8280017
:1059D000814642F266625142484604F05BFA8146D3
:1059E000002114488165C0F8849010E0002111481E
:1059F0008165C0F8841000200F49486207E000214B
:105A00000C488165C0F8841000200B49486200BF33
:105A1000BDE8F09F00040040300000200C00002092
:105A200010000020180000204E000020700300200D
:105A3000082100207801002028030020704700BFC3
:105A4000FEE72DE9F04106460D4606B115B90020E6
:105A5000BDE8F0810024A5222146641C6A545A2224
:105A60002146641C6A5428191A2104F06DFAA41CFA
:105A700001222146641C6A542819316804F068FA2E
:105A8000241D2819716804F057FA241D2819B168DB
:105A900004F052FA241D2819F16804F04DFA241D6F
:105AA000318A281904F050FAA41C2819716904F0ED
:105AB00043FA241D2819B16904F03EFA241D1D2162
:105AC000A81C04F0F2F907462819394604F03CFAFC
:105AD000A41C2046BCE7000010B5FDF7D9FC014925
