:020000040800F2
:100000006007002029020008471A00082918000884
:10001000411A00081F040008292000080000000001
:10002000000000000000000000000000791B000834
:100030008505000800000000491A0008811B00081F
:10004000430200084302000843020008430200087C
:10005000430200084302000843020008430200086C
:10006000430200084302000843020008430200085C
:10007000430200084302000843020008430200084C
:10008000430200084302000843020008430200083C
:10009000430200084302000843020008430200082C
:1000A000430200084302000843020008430200081C
:1000B000430200084302000843020008430200080C
:1000C00043020008430200084302000843020008FC
:1000D00043020008430200084302000843020008EC
:1000E00043020008430200084302000843020008DC
:1000F00043020008430200084302000843020008CC
:1001000043020008430200084302000843020008BB
:1001100043020008430200084302000843020008AB
:10012000430200084302000843020008430200089B
:100130004302000800000000000000004302000825
:10014000430200084302000843020008430200087B
:10015000430200084302000843020008430200086B
:10016000430200084302000843020008430200085B
:1001700043020008430200080000000000000000E5
:10018000430200084302000800F002F800F03CF8C7
:100190000AA090E8000C82448344AAF10107DA45E2
:1001A00001D100F031F8AFF2090EBAE80F0013F0F8
:1001B000010F18BFFB1A43F001031847201F00006E
:1001C000401F0000103A24BF78C878C1FAD85207FF
:1001D00024BF30C830C144BF04680C6070470000C1
:1001E0000023002400250026103A28BF78C1FBD840
:1001F000520728BF30C148BF0B6070471FB501F0E0
:100200005BFF1FBD10B510BD00F0CFF81146FFF722
:10021000F5FF01F01BFF00F0EDF803B4FFF7F2FF6C
:1002200003BC00F0F5F80000094880470948004782
:10023000FEE7FEE7FEE7FEE7FEE7FEE7FEE7FEE796
:10024000FEE7FEE704480549054A064B70470000F3
:10025000191C0008890100086001002060070020C7
:10026000600300206003002053EA020C00F0698064
:100270002DE9F04B4FF00006002B1FBFB3FA83F5BA
:1002800003FA05F424FA05F65E4012BF1643B2FAEB
:1002900082F502FA05F4C5F120051EBF22FA05FC1D
:1002A00044EA0C04203556EA044C4FEA144418BFC3
:1002B000641C4FF000084FF00009904271EB030CF2
:1002C00039D3002919BFB1FA81F701FA07F6B0FA5C
:1002D00080F700FA07F6C7F120071EBF20FA07FCD7
:1002E00046EA0C062037B6FBF4FCA7EB0507103FE7
:1002F00007F01F0BCBF120060CFA0BFB2CFA06F6CD
:1003000044BFB3460026202FA4BF5E464FF0000B2B
:100310005BEA060C08BF4FF0010B19EB0B09ABFBB6
:10032000027C48EB0608C01B06FB02CC0BFB03CC8F
:1003300071EB0C01C1E70B46024641464846BDE859
:10034000F08B13B54FF000004FF00001AFF30080C9
:10035000BDE81C4070474FF0000200B513469446BC
:100360009646203922BFA0E80C50A0E80C50B1F10D
:100370002001BFF4F7AF090728BFA0E80C5048BF21
:100380000CC05DF804EB890028BF40F8042B08BFBF
:10039000704748BF20F8022B11F0804F18BF00F8BB
:1003A000012B7047704770477047754600F02CF876
:1003B000AE4605006946534620F00700854618B052
:1003C00020B5FFF73FFFBDE820404FF000064FF09B
:1003D00000074FF000084FF0000B21F00701AC467A
:1003E000ACE8C009ACE8C009ACE8C009ACE8C00999
:1003F0008D46704710B50446AFF300802046BDE837
:100400001040FFF70ABF000000487047FC000020C2
:1004100001491820ABBEFEE7260002007047FEE748
:100420004FF40051014801F010BB000000080240E9
:100430004FF40051014801F0A0BB00000008024049
:1004400010B500F041F8044600F041F8C0F30A008E
:10045000610501D4000601D5012010BD002010BDAA
:100460004FF48051014801F0F0BA0000000402404E
:100470004FF48051014801F080BB000000040240AD
:1004800008B5FFF7EDFF012000F090F8FFF7F0FF4F
:10049000142000F08BF80A20002300901A46194619
:1004A000022000F039F8012300201A461946009076
:1004B00000F041F800F00FF802490870BDE808406C
:1004C000FFF7BEBF10000020002000F00AB84FF474
:1004D000006000F006B810B5FFF7F9FF00F00F005C
:1004E00010BD1CB50146802242EA11208DF80000A3
:1004F0008DF80110FFF794FF4FF4FA73022201A95F
:10050000684600F041F8FFF793FF0021084600F02D
:1005100021F8C0F30A001CBD30B440EA810040EA73
:10052000C200029C40EA031040EA841130BC4FF440
:10053000805000F00FB830B440EA810040EA021069
:10054000029C40EA431040EA841130BC4FF4C05092
:10055000AFF300801CB5C1F30A010143080A8DF80E
:1005600000008DF80110FFF75BFF4FF4FA730222D1
:1005700001A9684600F008F8FFF75AFFBDF804002B
:1005800040BA1CBD7047000038B50C4600931346B6
:100590000A460146034800F0DFFC08B1002038BDE0
:1005A000208838BD1400002072B6FEE770B50446FE
:1005B00000F00CF90546601C02D0044800780444A1
:1005C00000F004F9401BA042FAD370BD04000020E3
:1005D0002DE9F84FDFF8BCA10022012503264FF0DA
:1005E0000F090AF1040BAAF1040E00BF0B6805FA0B
:1005F00002F42340A34270D10F7907F00307012FC3
:1006000001D0022F16D187684FEA420806FA08FC8B
:1006100027EA0C07D1F80CC00CFA08FC4CEA070CCE
:10062000C0F808C04768A7430C79C4F3001494408D
:100630003C4344600C79E443A4070AD0C4684FEA01
:10064000420C06FA0CF7BC438F6807FA0CF72743F5
:10065000C7600C7904F00304022C12D1D40800EB1B
:10066000840CDCF820405707FF0E09FA07F824EA4B
:100670000804D1F8108008FA07F848EA0408CCF812
:10068000208004684FEA420C06FA0CF7BC430F794D
:1006900007F0030707FA0CF7274307604C6814F4C8
:1006A000403F70D03C4C276847F48047276024685F
:1006B00022F0030704F480440094384C07EB040C48
:1006C000DCF8084897074FEA177809FA08F7BC439F
:1006D000334FB84202D1002724E054E0314FB842F2
:1006E00001D101271EE0304FB84201D1022719E0A5
:1006F0002E4FB84201D1032714E02D4FB84201D14B
:1007000004270FE02B4FB84201D105270AE02A4FFA
:10071000B84201D1062705E0284FB84201D107278A
:1007200000E0082707FA08F72743CCF80878DAF83A
:1007300000405746D1F804C09C435FEACC2C00D55A
:100740001C433C60DBF800405F46D1F804C09C438A
:100750005FEA8C2C00D51C433C60DEF800407746F5
:10076000D1F804C09C435FEA8C3C00D51C433C603C
:10077000084F083F3C68D1F804C09C435FEACC3C7A
:1007800000D51C433C60521C102AFFF42FAFBDE87B
:10079000F88F0000083C014044380240003001401E
:1007A000000002400004024000080240000C024029
:1007B000001002400014024000180240001C0240D9
:1007C0000AB1816170470904FBE7000001488068B5
:1007D000704700000400002002488168027811443C
:1007E00081607047040000200B4810B5016841F497
:1007F00000710160016841F480610160016841F4A9
:1008000080710160032000F061F80F2000F006F80D
:1008100000F024F8002010BD003C024070B50D4DE2
:1008200004464FF47A712878B1FBF0F00A49096860
:10083000B1FBF0F000F088FC48B9102C07D2002280
:100840002146501E00F022F800206C6070BD01208F
:1008500070BD000004000020000000200A4808B518
:10086000016841F480410160006800F4804000901C
:100870000548001F016841F080510160006800F0E8
:100880008050009008BD000044380240F0B40E4B88
:100890001B680C46C3F30223C3F10705042D00D9DE
:1008A0000425191D072901D2002300E0DB1E0126C3
:1008B00006FA05F1491E214099409E40761E1640D9
:1008C0003143F0BC01F0B1BB0CED00E0064900F093
:1008D000070208684FF6FF03184040EA0220034A67
:1008E00010430860704700000CED00E00000FA05BE
:1008F0002DE9F0470E46050065D0DFF81481D8F8E1
:100900000000F7B200F00700B04207D288F800708C
:10091000D8F8000000F00700B04254D128683D4CE0
:10092000810712D5400703D5206840F4E0502060CD
:100930002878000703D5206840F4604020602068D4
:10094000A96820F0F000084320602878C0072DD067
:10095000304968680839012812D0022813D00328CA
:1009600011D00968890700292DDA216821F00301D7
:1009700001432160FFF72AFF814641F2883A0EE0E9
:1009800009688903EFE709688901ECE7FFF71EFFB3
:10099000A0EB0901514502D90320BDE8F08720688A
:1009A000696800F00C00B0EB810FEFD1D8F80010AF
:1009B000404601F00701B14207D90770006800F016
:1009C0000700B04201D00120E7E72878400705D5AD
:1009D0002068E96820F4E050084320602878000788
:1009E00006D52068296920F4604040EAC1002060F3
:1009F00000F038F82168084AC1F30311515CC8407F
:100A00000649086006480068FFF708FF0020C4E7B1
:100A1000003C024008380240C220000800000020CC
:100A2000080000200448054900680968044AC1F329
:100A30008221515CC8407047000000200838024005
:100A4000D22000080448054900680968044AC1F337
:100A50004231515CC8407047000000200838024015
:100A6000D2200008154810B5006810F00C02144898
:100A700013D04110042A0FD0082A0ED10F4C241F86
:100A80002268236802F03F025B0207D52068C0F3AA
:100A90008810A0FB010106E0084610BD2168C1F3E3
:100AA0008811A1FB00010023FFF7DEFB2168C1F3E1
:100AB0000141491C4900B0FBF1F010BD083802406B
:100AC0000024F4002DE9F84F04006ED02078DFF800
:100AD0004C93C007A9F104054AD009F1040001684C
:100AE000C1F38101012908D00068C0F38100022808
:100AF0000AD1D9F80000400206D52868800337D50E
:100B000060680028E1D033E06068B0F5803F10D025
:100B1000B0F5A02F286810D020F480302860286815
:100B200020F4802028606068A8B1FFF74FFE0646D9
:100B30000DE0286840F48030F4E740F4802028601D
:100B4000F7E700BFFFF742FE801B642873D82868D0
:100B50008003F7D50CE0FFF739FE064605E000BF3D
:100B6000FFF734FE801B6428F0D828688003F7D490
:100B70002078DFF8AC8280074FF0000A3ED5A74806
:100B8000001D016811F00C0F08D00068C0F381004F
:100B900002280BD1D9F80000400207D4286880074A
:100BA00016D5E068012800D112E033E1E068B8B161
:100BB0000120C8F80000FFF709FE064605E000BF67
:100BC000FFF704FE801B0228C0D828688007F7D5ED
:100BD0002868216920F0F80040EAC10028600DE093
:100BE000C8F800A0FFF7F2FD064604E0FFF7EEFDAF
:100BF000801B02281FD828688007F7D420780007B8
:100C000022D5864F87486169703771B10121016033
:100C1000FFF7DCFD064604E0FFF7D8FD801B022845
:100C200009D838688007F7D50EE0C0F800A0FFF7B4
:100C3000CDFD064605E082E0FFF7C8FD801B0228D7
:100C40007DD838688007F7D42078400768D5DFF86A
:100C5000CCB100270BF13C0BDBF80000C0000BD43B
:100C6000DBF8001041F08051CBF80010DBF80000F9
:100C7000012700F0805000906B4E3068C00510D402
:100C8000306840F480703060FFF7A0FD009005E010
:100C9000FFF79CFD0099401A022850D83068C00523
:100CA000F6D55E4EA0686C3601280FD00528306856
:100CB00010D020F001003060306820F00400306077
:100CC000A068B8B1FFF782FD00900FE0306840F0F7
:100CD0000100F4E740F004003060F7E7FFF776FD2D
:100CE0000099411A41F28830814266D83068800705
:100CF000F4D50EE0FFF76AFD009007E0FFF766FD10
:100D00000099411A41F28830814256D830688007F4
:100D1000F4D42FB1DBF8001021F08051CBF8001093
:100D2000A069C8B33D49091D0968C1F381010229C1
:100D30004AD00228504607D0C8F8600000E03CE0E6
:100D4000FFF744FD04463BE04746C8F86000FFF764
:100D50003DFD064605E000BFFFF738FD801B022879
:100D60002BD828688001F7D4D4E907010843A16A89
:100D70002E4A490802EB0141626A41EA82110843A6
:100D800094F82C1040EA0161C9F80010012038667F
:100D9000FFF71CFD044606E03EE000BFFFF716FD2E
:100DA000001B022809D828688001F7D534E000BF6D
:100DB000FFF70CFD001B022802D90320BDE8F88FC5
:100DC00028688001F4D427E00128F7D0D9F8000082
:100DD000E26900F4800191421CD1226A00F03F01D7
:100DE000914217D147F6C071626A0140B1EB821F90
:100DF00010D1A26A4FF0FF3300F4403103EB5202EE
:100E0000B1EB024F06D194F82C1000F07060B0EBFB
:100E1000016F01D00120D1E70020CFE70438024064
:100E200000004742800E4742007000400000FFFF74
:100E300070B5040009D0606A002540B12561656184
:100E4000A56294F8510040B10CE0012070BD6068CB
:100E5000B0F5827FF4D0E561F2E784F85050204687
:100E600000F044F8022084F851002068016821F065
:100E700040010160A088218900F4827001F40441DE
:100E80000843A18901F400610843217C01F00201BB
:100E90000843217D01F001010843218B01F4007119
:100EA0000843217F01F03801084394F8201001F035
:100EB00080010843218D01F4005108432168086036
:100EC000A069042101EA104094F8241001F01001F7
:100ED0000843216848602068C16921F40061C1614C
:100EE0006565012084F85100002070BD10B586B002
:100EF000044614216846FFF72EFA144920688842F8
:100F000021D113480021026842F4004202600068C7
:100F100000F4004005900E481038026842F00402C8
:100F20000260006800F0040005904FF4E05000906B
:100F30000220CDE9010103200390062004906946B8
:100F40000448FFF745FB06B010BD0000003C004020
:100F500040380240000802402DE9FF4F81B01D4695
:100F6000934604464FF001090E9EFFF72FFC0746FB
:100F700094F851006168012806D0B1F5827F3CD118
:100F8000A168C9BB042838D10298002871D0BBF1F0
:100F9000000FFBD0002DF9D094F8500001282CD080
:100FA0004FF0010A84F850A094F85100042802D0B0
:100FB000052084F851004FF00008C4F85480C4F8AC
:100FC00038B0E587A58702992163E586A586C4F830
:100FD0004080C4F8448020680168490603D4016851
:100FE00041F040010160E068B0F5006F606808D032
:100FF000F0B3012D49D081E0FFE7022005B0BDE844
:10100000F08F08B1012D39D1206B21680088C860AC
:10101000206B801C2063E08E401EE0862EE020685E
:10102000816889070FD5E18E69B1B9F1010F0AD145
:10103000216B0988C160206B801C2063E08E401EFC
:10104000E0864FF0000920688168C9070CD0E18F65
:1010500051B1C068A16B0880A06B801CA063E08FB9
:10106000401EE0874FF00109FFF7B0FBC01B01E015
:101070000BE067E0B04201D3701C50D1E08E002835
:10108000CDD1E08F0028CAD13EE0206B21680078E6
:101090000873206B401C2063E08E401EE0862DE02C
:1010A0002068816889070FD5E18E69B1B9F1010F18
:1010B0000AD1216B09780173206B401C2063E08EFC
:1010C000401EE0864FF0000920688168C9070CD0F7
:1010D000E18F51B1C068A16B0870A06B401CA06388
:1010E000E08F401EE0874FF00109FFF76FFBC01B48
:1010F000B04202D3701C01D011E086B1E08E00280E
:10110000CED1E08F0028CBD13A463146204600F0C0
:101110009FFC50B12020606584F8508012E084F874
:1011200051A084F85080032068E7A06818B92068AF
:10113000C1688068009084F851A084F85080606D88
:101140000028F1D0012059E710B5401EB0F1807F92
:1011500001D3012010BD4FF0E02460610F21601722
:1011600000F063FF0020A06107202061002010BD77
:1011700010B590F83C20012A22D0012280F83C20B2
:10118000CA688C6822F4407222434C6822F4806260
:1011900022430C6822F4006222430C6922F480523C
:1011A00022434C6922F400522243C969002322F4ED
:1011B00080420A4301684A6480F83C30002010BD38
:1011C000022010BD70B590F83C20012A32D00124D5
:1011D00080F83C40022280F83D2003685A689D68F0
:1011E00022F070060A6832435A60134B02689A4232
:1011F00014D0B2F1804F11D0104B9A420ED0104B48
:101200009A420BD00F4B9A4208D00F4B9A4205D00E
:101210000E4B9A4202D00E4B9A4204D1496825F0F7
:1012200080031943916080F83D40002180F83C1014
:10123000084670BD022070BD00000140000400405F
:1012400000080040000C0040000401400040014044
:101250000018004010B50446022249B104290ED0FE
:10126000082913D094F84500012816D0012010BD9C
:1012700094F842000128F9D184F842200FE094F854
:1012800043000128F2D184F8432008E094F8440098
:101290000128EBD184F8442001E084F845200422A1
:1012A000206800F036FD2068416C41F40041416443
:1012B00011492068884214D0B0F1804F11D00F49F5
:1012C00088420ED00E4988420BD00E49884208D081
:1012D0000D49884205D00D49884202D00C49884208
:1012E00004D1816801F00701062903D0016841F0AB
:1012F00001010160002010BD000001400004004019
:1013000000080040000C0040000401400040014083
:101310000018004010B5040003D094F83D0010B14F
:1013200007E0012010BD002084F83C00204600F0BA
:101330001FF8022084F83D00211D206800F074FC95
:10134000012084F8460084F83E0084F83F0084F8C9
:10135000400084F8410084F8420084F8430084F897
:10136000440084F8450084F83D00002010BD0000D2
:1013700008B500680649884208D10648016841F06E
:1013800001010160006800F00100009008BD00004C
:10139000000001404438024090F83D10012901D07E
:1013A00001207047022180F83D10006811498842F1
:1013B00014D0B0F1804F11D00F4988420ED00F49A0
:1013C00088420BD00E49884208D00E49884205D089
:1013D0000D49884202D00D49884204D1816801F04C
:1013E0000701062903D0016841F0010101600020D6
:1013F0007047000000000140000400400008004069
:10140000000C004000040140004001400018004072
:1014100070B5044690F83C000025012817D001263D
:1014200084F83C60022084F83D002068826822F045
:10143000770222F47F4282600868502838D00DDCA1
:1014400020284FD005DC90B3102811D14AE00220AB
:1014500070BD302846D040280AD13BE060282FD00C
:1014600070280DD0B0F5805F03D0B0F5005F12D0CA
:10147000012584F83D60002084F83C00284670BDBA
:10148000CB68D1E90121206800F050FC2068816818
:1014900041F0770109E0CB68D1E90121206800F033
:1014A00045FC2068816841F480418160E1E719E0F2
:1014B000CA684968206800F00DFD5021206806E0E8
:1014C000CA684968206800F016FD6021206800F0B5
:1014D00037FCCEE7CA684968206800F0FBFC402171
:1014E0002068F4E7226801461046F0E770B586B040
:1014F000044614216846FEF72EFF184920688842EA
:1015000029D117480024016841F0020101600168F7
:1015100001F002010591016841F0010101600068DC
:10152000022500F0010005904FF460400090CDE9E5
:1015300001540126CDE9034669460A48FFF748F8F9
:101540004FF4E0600090CDE90154CDE903466946CF
:101550000548FFF73DF806B070BD000000000140EF
:1015600030380240000402400000024070B50446DA
:1015700090F83C0000260D4601280FD0012084F889
:101580003C006AB1042A1DD0082A2FD00C2A3FD073
:101590000126002084F83C00304670BD022070BD5A
:1015A000206800F0D5FB2068816941F00801816165
:1015B0002068816921F004018161206881692A69BC
:1015C000114311E0206800F0F3FB2068816941F4C9
:1015D000006181612068816921F4806181612068F6
:1015E00081692A6941EA02218161D2E7206800F01D
:1015F00015FC2068C16941F00801C1612068C1691A
:1016000021F00401C1612068C1692A69114311E018
:10161000206800F037FC2068C16941F40061C161B5
:101620002068C16921F48061C1612068C1692A69AB
:1016300041EA0221C161ACE710B5040003D094F87F
:101640003D0010B107E0012010BD002084F83C00EF
:10165000204600F01EF8022084F83D00211D20687D
:1016600000F0E2FA012084F8460084F83E0084F895
:101670003F0084F8400084F8410084F8420084F878
:10168000430084F8440084F8450084F83D000020BD
:1016900010BD704710B50446022249B104290ED08E
:1016A000082913D094F84100012816D0012010BD5C
:1016B00094F83E000128F9D184F83E200FE094F818
:1016C0003F000128F2D184F83F2008E094F8400060
:1016D0000128EBD184F8402001E084F84120012268
:1016E000206800F009FB16492068164A884201D09C
:1016F000904203D1436C43F4004343642068884222
:1017000013D0B0F1804F10D00F4988420DD00F494F
:1017100088420AD00E49884207D0904205D00D4930
:10172000884202D00C49884204D1816801F0070147
:10173000062903D0016841F001010160002010BDBD
:101740000000014000040140000400400008004087
:10175000000C0040004001400018004070B504003B
:1017600004D094F84100002510B106E0012070BDBE
:1017700084F84050204600F023F8242084F84100EB
:101780002068C16821F40051C160204600F0C6FB0A
:101790002068016921F4904101612068416921F0CC
:1017A0002A0141612068C16841F40051C16065644B
:1017B000202084F8410084F842006563002070BD59
:1017C00010B586B0044614216846FEF7C4FD1349DF
:1017D0002068884220D112480021026842F4003279
:1017E0000260006800F4003005900D48103802686F
:1017F00042F001020260006800F0010005900C2038
:1018000000900220CDE901010320039007200490FD
:1018100069460448FEF7DCFE06B010BD00440040F7
:101820004038024000000240FEE700002DE9F04190
:1018300086B014216846FEF78EFD23480024016817
:1018400041F004010160016801F0040105910168A3
:1018500041F080010160016801F08001059101689B
:1018600041F001010160016801F001010591016889
:1018700041F0020101600068144F00F002004FF4D3
:1018800000550590002229463846FEF799FFDFF8FB
:10189000408041F20406002231464046FEF790FFA8
:1018A00000950125CDE90154694638460394FEF7B9
:1018B0008FFE0096CDE90154694640460394FEF739
:1018C00087FE06B0BDE8F0813038024000080240D3
:1018D00000040240104810B50E4901604FF48271B7
:1018E0004160002181600122C160C0E904125202FE
:1018F00082611022C0E90721416281620A21C1622E
:10190000FFF796FA002803D0BDE81040FEF74CBE62
:1019100010BD0000003C00401400002010B596B03F
:1019200000240F9410941194129413941C2168466F
:101930001494FEF710FD202107A8FEF70CFD314896
:101940002F49C0E90014602181604FF6FF71C0E9A2
:10195000031444618461FFF7DDFC08B1FEF724FE47
:101960004FF480500F900FA92648FFF751FD08B1A2
:10197000FEF71AFE2348FFF75FFE08B1FEF714FEDC
:10198000139413A91F481494FFF71CFC08B1FEF729
:101990000BFE702000906420CDE9010403940494B0
:1019A00005940022694617480694FFF7DFFD08B149
:1019B000FEF7FAFD042269461248FFF7D7FD08B189
:1019C000FEF7F2FD082269460E48FFF7CFFD08B189
:1019D000FEF7EAFD0794089409944FF400500A9426
:1019E000CDE90B4007A907480E94FFF7C1FB08B1EA
:1019F000FEF7DAFD0348FFF779FD16B010BD0000D1
:101A0000000001406C0000200C4810B50A4901603C
:101A10004FF4E1314160002181600C22C160C0E9D6
:101A200004128161C161FFF799FE002803D0BDE86F
:101A30001040FEF7B9BD10BD00440040B4000020C6
:101A4000FEE7FEF71DBDFEE770470022FEF7B8BEB9
:101A5000F8B515460E460B460092044601220221B7
:101A600000F02CF8A0B9134813490068B0FBF1F05E
:101A70004FF47A71484300906068B0F5827F0DD1D1
:101A80003346002280212046009500F017F870B1FF
:101A9000606D40F0200060650320F8BD009830B113
:101AA000401E009020688068C0430006F6D50020E4
:101AB000F8BD00000000002000366E012DE9F8435B
:101AC0001E46914688460446089DFEF77FFE401B51
:101AD000351AFEF77BFE074626480068C0F3CB3078
:101AE00068430AE0701C09D0FEF770FEC01BA842D4
:101AF0000FD275B10098B8B3401E0090206881687D
:101B000038EA010033D000214945EBD10020BDE87F
:101B1000F8832068416821F0E00141606068B0F519
:101B2000827F0BD1A068B0F5004F02D0B0F5806F76
:101B300004D12068016821F040010160A06AB0F57D
:101B4000005F09D12068016821F40051016020681C
:101B5000016841F400510160012084F85100002027
:101B600084F850000320D2E7FFE70025C6E70121F3
:101B7000CAE700000000002070470122FEF720BEE7
:101B8000FEF72ABE30B593B030216846FEF7E3FB7E
:101B900014210CA8FEF7DFFB1D480025016841F069
:101BA00080510160006800F0805011901948016870
:101BB00041F4804101600068022400F480401190EB
:101BC00001200090000401908001CDE9064008AAA0
:101BD0000420A82182E813000B906846FEF772FFEC
:101BE00008B172B6FEE70CA90F2081E831004FF46E
:101BF000A0500F904FF48050109005210CA8FEF7D4
:101C000077FE002801D072B6FEE713B030BD0000A9
:101C100040380240007000400248016841F4700101
:101C20000160704788ED00E0F0B50268274B284D51
:101C3000284E294F294C4FF0804C984209D06045DE
:101C400007D0A84205D0B04203D0B84201D0A0428C
:101C500004D122F0700E4A6842EA0E0298421BD06C
:101C6000604519D0A84217D0B04215D0B84213D061
:101C7000A04211D01A4DA8420ED01A4DA8420BD046
:101C8000194DA84208D0194DA84205D0184DA842B8
:101C900002D0184DA84203D122F44075CA682A43E5
:101CA0004D6922F080022A438D68C5620D68856205
:101CB000984201D0A04201D109690163016841F055
:101CC00004010160012141610260F0BD000001409A
:101CD0000004004000080040000C004000040140E7
:101CE000004001400044014000480140001800400D
:101CF000001C00400020004010B501F01F0301212E
:101D0000046A99408C430462016A9A40114301625B
:101D100010BD10B501F00F030421046A99408C43F3
:101D20000462016A9A401143016210BD10B58468D3
:101D300042EA032224F47F440A432243826010BD16
:101D4000826822F070020A4342F007018160704706
:101D5000F0B5036A026A22F00102026242688469F5
:101D6000124E24F073050C682C4323F002058B6897
:101D70002B430D4DA84201D0B04205D123F00807F6
:101D8000CB683B4323F00403A84201D0B04205D105
:101D90004D6922F4407215438A692A434260846186
:101DA000496841630362F0BD000001400004014046
:101DB000F0B5026A036A23F0100303624368846982
:101DC0000D6824F4E64444EA05248D6822F02002DC
:101DD00042EA05120F4D104EA84201D0B04206D182
:101DE000CF6822F0800242EA071222F04002A842A5
:101DF00001D0B04207D14D6923F4406343EA850323
:101E00008D6943EA850343608461496881630262A6
:101E1000F0BD00000000014000040140F0B5026A7E
:101E2000036A23F4807303624368C46922F4007276
:101E300024F073050C68124E2C438D6842EA05228B
:101E40000E4DA84201D0B04206D1CF6822F4006204
:101E500042EA072222F48062A84201D0B04207D1B0
:101E60004D6923F4405343EA05138D6943EA051392
:101E70004360C4614968C1630262F0BD0000014073
:101E80000004014030B5046A026A22F48052026202
:101E90004268C3690D6823F4E64343EA05238D686D
:101EA00024F4005444EA0534084DA84202D0084DF9
:101EB000A84204D14D6922F4804242EA8512426070
:101EC000C36149680164046230BD00000000014044
:101ED0000004014010B5036A046A24F0010404629E
:101EE000846924F0F00444EA021423F00A020A434D
:101EF0008461026210BD10B5036A046A24F0100404
:101F00000462846923F0A00324F4704444EA02329A
:101F100043EA01118261016210BD000070B5044600
:101F200000680169E26821F44051114301612169AF
:101F3000A068E26908436169114308432168CA68DF
:101F400049F20C639A430243CA6020684169A2695E
:101F500021F440711143416131492068884202D027
:101F60003049884202D1FEF76DFD01E0FEF75AFDCF
:101F7000E2690023192164253226B2F5004F626818
:101F800028D0A0FB0101930F9200FEF76DF90146E6
:101F9000B0FBF5F06FF01802504301EB800006EB48
:101FA0000010B0FBF5F000F0F002B1FBF5F002EB31
:101FB0000012B1FBF5F06FF01803584301EB8000FD
:101FC00006EB0010B0FBF5F000F00F0021681044A4
:101FD000886070BDA0FB010192185B41FEF744F9D7
:101FE0000146B0FBF5F00201B1FBF5F06FF018030C
:101FF000584301EB800006EBC000B0FBF5F000F0A9
:10200000F80002EB4002B1FBF5F0584301EB800011
:1020100006EBC000B0FBF5F000F00700D6E70000CB
:102020000010014000140140FEE70907090E0028D6
:1020300004DB00F1E02080F80014704700F00F008E
:1020400000F1E02080F8141D70470000FEF7CCFB83
:10205000FFF798FDFFF7EAFBFFF760FCFFF73AFC9C
:10206000FFF7D2FCFFF7EDFC1248FFF795F90021CE
:102070001048FFF70FFB04210E48FFF70BFB082168
:102080000C48FFF707FB00210A48FFF7E3F804219B
:102090000848FFF7DFF808210648FFF7DBF8054896
:1020A0004FF4FA6102685163026891630068C1638A
:1020B000FEE700006C0000204FF04070E1EE100AD7
:1020C0007047000000000000000001020304060742
:1020D000080900000000010203040000FC200008C1
:1020E0000000002014000000C401000810210008B6
:1020F000140000204C070000E00100080024F40058
:1021000001000000100000000000000000000000BE
:040000050800018965
:00000001FF
