:020000040800F2
:10000000582700206902000885530008574C000853
:10001000815300087D0700083184000800000000BB
:100020000000000000000000000000007157000800
:10003000E10A000800000000FB550008975700087F
:10004000830200088302000883020008830200087C
:10005000830200088302000883020008830200086C
:10006000830200088302000883020008830200085C
:10007000830200088302000883020008830200084C
:10008000830200088302000841050008830200087B
:10009000830200088302000883020008830200082C
:1000A000830200088302000883020008830200081C
:1000B000830200086D5800088302000883020008CC
:1000C00083020008830200088302000883020008FC
:1000D00083020008830200088302000883020008EC
:1000E00083020008830200088302000883020008DC
:1000F00083020008830200088302000883020008CC
:1001000083020008830200088302000883020008BB
:1001100083020008830200088302000883020008AB
:100120001508000883020008830200088302000803
:1001300083020008000000000000000083020008A5
:100140008302000883020008830200088D53000820
:10015000830200088302000883020008830200086B
:10016000830200088302000883020008830200085B
:100170008302000883020008000000000000000065
:10018000830200088302000800F002F800F05CF827
:100190000AA090E8000C82448344AAF10107DA45E2
:1001A00001D100F051F8AFF2090EBAE80F0013F0D8
:1001B000010F18BFFB1A43F00103184750830000DA
:1001C000708300000A444FF0000C10F8013B13F05C
:1001D000070408BF10F8014B1D1108BF10F8015BA0
:1001E000641E05D010F8016B641E01F8016BF9D193
:1001F00013F0080F1EBF10F8014BAD1C0C1B09D1EA
:100200006D1E58BF01F801CBFAD505E014F8016B5B
:1002100001F8016B6D1EF9D59142D6D370470000ED
:100220000023002400250026103A28BF78C1FBD8FF
:10023000520728BF30C148BF0B6070471FB508F098
:100240004FF91FBD10B510BD00F0F3F81146FFF7D0
:10025000F5FF08F02DF900F011F903B4FFF7F2FFF4
:1002600003BC00F019F9000009488047094800471D
:10027000FEE7FEE7FEE7FEE7FEE7FEE7FEE7FEE756
:10028000FEE7FEE704480549054A064B70470000B3
:1002900059580008890100085821002058270020DB
:1002A000582300205823002053EA020C00F06980F4
:1002B0002DE9F04B4FF00006002B1FBFB3FA83F57A
:1002C00003FA05F424FA05F65E4012BF1643B2FAAB
:1002D00082F502FA05F4C5F120051EBF22FA05FCDD
:1002E00044EA0C04203556EA044C4FEA144418BF83
:1002F000641C4FF000084FF00009904271EB030CB2
:1003000039D3002919BFB1FA81F701FA07F6B0FA1B
:1003100080F700FA07F6C7F120071EBF20FA07FC96
:1003200046EA0C062037B6FBF4FCA7EB0507103FA6
:1003300007F01F0BCBF120060CFA0BFB2CFA06F68C
:1003400044BFB3460026202FA4BF5E464FF0000BEB
:100350005BEA060C08BF4FF0010B19EB0B09ABFB76
:10036000027C48EB0608C01B06FB02CC0BFB03CC4F
:1003700071EB0C01C1E70B46024641464846BDE819
:10038000F08B13B54FF000004FF00001AFF3008089
:10039000BDE81C40704710B54C1084EA530404D5E6
:1003A0004042C1F1000138BF491E1B4204D55242F0
:1003B000C3F1000338BF5B1EFFF776FF14F0804FD8
:1003C00004D04042C1F1000138BF491E14F0004F73
:1003D00004D05242C3F1000338BF5B1E10BD4FF082
:1003E000000200B5134694469646203922BFA0E885
:1003F0000C50A0E80C50B1F12001BFF4F7AF090791
:1004000028BFA0E80C5048BF0CC05DF804EB890081
:1004100028BF40F8042B08BF704748BF20F8022BC4
:1004200011F0804F18BF00F8012B704770477047DC
:100430007047754600F02CF8AE46050069465346F5
:1004400020F00700854618B020B5FFF71BFFBDE878
:1004500020404FF000064FF000074FF000084FF02B
:10046000000B21F00701AC46ACE8C009ACE8C009BC
:10047000ACE8C009ACE8C0098D46704710B5044629
:10048000AFF300802046BDE81040FFF7E6BE000055
:1004900000487047F820002001491820ABBEFEE755
:1004A000260002007047000010B500F06DFA1E48EB
:1004B00004F048F842F2D0011C4800F02FFB1C4920
:1004C0001C4800F046FC00F0F7F800BF1A4800781E
:1004D0000028FBD01848007802281FD100211748B7
:1004E00004F0CAFA0021154803F0F4FE0421134871
:1004F00004F0C2FA0421114803F0ECFE08210F4871
:1005000004F0BAFA08210D4803F0E4FE0B48006835
:10051000406C40F4004009490968486400BF06483F
:1005200000780228FBD010BDD00400206401002018
:1005300010000020140300204A000020880400203E
:1005400010B5034801F09CFC024801F099FC10BD75
:10055000400300208803002055494A6822F44032B5
:100560004A604A6843681A434A600268526822F443
:10057000807203685A6002685368026943EA022283
:1005800003685A600268526822F0407203685A6039
:100590000268526883681A4303685A600268926866
:1005A00022F4006203689A6002689268C3681A4382
:1005B00003689A603F4B826A9A4218D00268926838
:1005C00022F0706203689A6002689268836A1A4334
:1005D00003689A600268926822F0405203689A6049
:1005E00002689268C36A1A4303689A600BE0026863
:1005F000926822F0706203689A600268926822F042
:10060000405203689A600268926822F0020203680E
:100610009A6002689368027E43EA420203689A6025
:100620002022125CA2B10268526842F400620368A0
:100630005A600268526822F4604203685A60026895
:100640005368426A521E43EA423203685A6005E028
:100650000268526822F4006203685A600268D26A33
:1006600022F470020368DA620268D36A828B521E37
:1006700043EA02520368DA620268926822F4007266
:1006800003689A600268936890F8302043EA422237
:1006900003689A600268926822F4806203689A6034
:1006A00002689368426943EA822203689A6070474D
:1006B000002301400100000F10B5124801F0C2F9FB
:1006C000114801F04FFA114803F0EEFE0C210F48DB
:1006D00004F0D2F900BF0D480068006A41F2111120
:1006E000084068B909480068006A8910084038B9AC
:1006F00006480068406C20F40040044909684864DA
:1007000000BF10BD880300204003002088040020A3
:1007100010B504460121144801F070F91349096825
:100720000844124908600121114801F067F9114994
:10073000096808440F4908600F480088401C0E49AA
:10074000088008460088B0F5806F0BDB074800681A
:10075000800A606007480068800AA0600020088066
:10076000012010BD0020FCE74003002040000020D5
:1007700088030020440000204800002000BFFEE75E
:100780000346042B15D007DC7BB1012B0ED0022BC6
:100790000DD0032B12D10BE0202B0BD0212B0AD034
:1007A000222B09D0232B09D107E008E007E006E05F
:1007B00005E004E003E002E001E000E000BF00BF6C
:1007C000002070470020704710B5002204490548FA
:1007D00005F095FC0449034805F082FC002010BD9B
:1007E000F411002018050020F409002070B504461B
:1007F0000D462146034805F073FC024805F03CFC19
:10080000002070BD1805002010B503460C460021DD
:10081000084610BD10B5024801F0F6FC10BD0000FE
:10082000D00300200146087810381823B0FBF3F2FB
:100830000848805CC865032A05D908686FF3090079
:10084000001D886503E008686FF309008865886DFE
:100850007047000002850008014600208A6A8B6903
:10086000CBB932B1012A0DD0022A03D0032A10D10C
:100870000EE000BFCB6A03F08073B3F1807F00D13C
:10088000012007E0CB6AB3F1C07F00D1012001E075
:1008900000E000BF34E08B69B3F5005F1AD132B1DC
:1008A000012A07D0022A03D0032A11D10AE000BF8F
:1008B00001200EE0CB6A03F08073B3F1807F00D19A
:1008C000012006E0CB6AB3F1C07F00D1012000E037
:1008D00000BF15E032B1012A05D0022A04D0032A54
:1008E0000CD103E000BF00BF012008E0CB6A03F099
:1008F0008073B3F1807F00D1012000E000BF00BF12
:100900007047000010B54FF40051024804F076FE25
:1009100010BD00000008024010B54FF4005102481D
:1009200004F030FF10BD00000008024070B500F078
:100930005BF8C0F30A0400F05CF8C0F30A0504F4A5
:10094000806028B104F03F0000B100BF012070BDFD
:1009500005F0800008B10120F9E70020F7E700006A
:1009600010B54FF48051024804F048FE10BD00005D
:100970000004024010B54FF48051024804F002FF19
:1009800010BD00000004024008B5FFF7E9FF012098
:1009900001F0D0FDFFF7EEFF142001F0CBFD0A209F
:1009A00000231A4619460090022000F04CF805205A
:1009B00001F0C0FD002001231A460221009000F042
:1009C00059F80A2001F0B6FD002003460246022134
:1009D000009000F04FF800F012F802490870FFF79D
:1009E000A5FF08BD4B00002010B5002000F00EF858
:1009F00010BD10B54FF4006000F008F810BD10B540
:100A0000FFF7F7FF044604F00F0010BD7CB5044665
:100A100044F4004528128DF80400E8B28DF8050072
:100A2000FFF770FF4FF4FA730222694601A800F045
:100A300059F8FFF771FF0021084600F032F806462A
:100A4000C6F30A007CBD2DE9F04704460D46174663
:100A50001E46DDF8208044EA850040EAC70040EAEF
:100A6000061040EA881949464FF4805000F019F802
:100A7000BDE8F0872DE9F04704460D4617461E46AF
:100A8000DDF8208044EA850040EA071040EA46107D
:100A900040EA881949464FF4C05000F002F8BDE81A
:100AA000F0877CB504460D46C5F30A0040EA04060B
:100AB00030128DF80400F0B28DF80500FFF722FF28
:100AC0004FF4FA730222694601A800F00BF8FFF711
:100AD00023FF9DF801009DF8001040EA01207CBD35
:100AE000704700002DE9F84305460C4616461F46A0
:100AF0003346224629460648009703F017FA8046F7
:100B0000B8F1000F02D12088BDE8F8830020FBE790
:100B10003004002072B600BFFEE7000000B9704745
:100B200000220260828082604FF40063C360036130
:100B3000002343618361C361036243628362C262D3
:100B40004FF480330363426300238363C26303640F
:100B5000C0F89C20A02213500022C0F8A420A82294
:100B60001350244A4264244B83640023C36449F233
:100B7000A83303655B42436500238365C365036651
:100B800043668366C36602671B4B43670023836724
:100B900049F2A833C3675B428022135000238422AA
:100BA0001350882213508C221350902213509422F9
:100BB0001350982213500022C0F8AC20B0221350DA
:100BC0004FF48033B4221350B82211500023BC22BA
:100BD0001350C0221350C422135043F23333CC229B
:100BE0001350D42213500022C0F8C820C0F8D020DF
:100BF00000BF94E7C0971100299A01002DE9F05F2A
:100C000004460CB9BDE8F09F04F1080000F04FF96C
:100C1000B4F8049040F2EB3009FB00FA4FEAEA71B5
:100C2000090441EA1A414FEA0A474FF440220023DF
:100C30003846FFF7B0FB05462846B421085104F1B9
:100C40002C01206800F0C6F800BF206A616AA26A21
:100C500060638B1A49F2CD3783FB07573E462F0C52
:100C600047EA0647A76300BF00BF606BA16BE76A56
:100C7000D4F830C080FB0CB881FB079A1BEB09024B
:100C800048EB0A034FEA124848EA0348C4F83C809C
:100C900081FB0CB880FB079ABBEB090568EB0A06E1
:100CA0004FEA154848EA0648C4F8408000BF04F1FE
:100CB000C800E16B00F066F8E06304F1D000216C3D
:100CC00000F060F8206404F14400E16B00F07EF96C
:100CD00004F17000216C00F079F9E06E4042C4F834
:100CE0009C00982000594142A020015100BFD4F837
:100CF0009C00D4F8A010E76AD4F830C080FB0C98B0
:100D000081FB07BAB9EB0B0268EB0A034FEA124802
:100D100048EA0348C4F8A48080FB07B881FB0C9A1A
:100D20001BEB090548EB0A064FEA154848EA064856
:100D3000C4F8A88000BFD4F8A400C4F8AC00A82070
:100D40000159B020015104F1AC0000F0F1FA00BFEC
:100D500058E74FF47A620260C82242600022826043
:100D600042F26662C26052420261002242618261C6
:100D7000026242628262C2614FF480324A600022A3
:100D80000A60704770B5024610680B1A506880FB05
:100D90000350060446EA15441068204410601068A9
:100DA00070BD2DE9F04704460D46164605FB06F0DA
:100DB0003C2190FBF1F94FF4003089FB00700146B3
:100DC000D4F804C0624600233846FFF7E4FAA06076
:100DD000BDE8F0872DE9D34F8C460099B1F5803FEF
:100DE00001DDA1F5003111F5803F01DA01F5003197
:100DF000002902DAC1F1000A00E08A46D04681FBF0
:100E000008AB4FEA1A4A4AEA0B424FEA820ACAEB97
:100E10008100002802DAC0F1000A00E08246D146D3
:100E200080FB09AB4FEA1A4A4AEA0B44261A43F6FA
:100E30009A1A86FB0ABA4FEA0A4E4EEA1B4707EB9C
:100E4000000ACCF800A001F50041B1F5803F01DDBA
:100E5000A1F50031002902DAC1F1000A00E08A465A
:100E6000D04681FB08BA4FEA0A4E4EEA1B424FEACF
:100E7000820ACAEB8100002802DAC0F1000A00E011
:100E80008246D14680FB09BA4FEA0A4E4EEA1B441D
:100E9000261A43F69A1A86FB0ABA4FEA0A4E4EEA17
:100EA0001B4707EB000ACCF804A0BDE8DC8F2DE956
:100EB000BE4B044661682069A0EB010BA168606924
:100EC000401A02904FF425600BFB00F0019001984E
:100ED000C117090441EA104107044FF420220023FE
:100EE0003846FFF758FA0546E5614FF42561029848
:100EF000484300900098C117090441EA10410704D3
:100F00004FF4202200233846FFF745FA8146C4F803
:100F10002090D4E9070108444042A061BDE8BE8B9F
:100F20002DE9F04F85B00E46D0F80090D0F804A01F
:100F3000D0F808B0CDF810B0C2680369D0F814B08A
:100F4000CDF80CB0D0F81CB0CDF808B0416A3446EA
:100F5000DDF80CB0ABEB040789FB07BE4FEA1B4B77
:100F60004BEA0E4BCDF804B08AFB07BE4FEA1B4B91
:100F70004BEA0E4BCDF800B0DDF800B05944914279
:100F800001DD114602E0994200DA1946DDF808B0A9
:100F9000ABEB0408DDF810B08BFB08BE4FEA1B4B2F
:100FA0004BEA0E4C84610762C4614162DDF804B013
:100FB0008B440BEB0C05954201DD154602E09D428A
:100FC00000DA1D46856205B0BDE8F08F2DE9F04FCF
:100FD00085B00E46D0F80090D0F804A0D0F808B044
:100FE000CDF810B0C2680369D0F814B0CDF80CB0D9
:100FF000D0F81CB0CDF808B0416A3446DDF80CB02A
:10100000ABEB040789FB07BE4FEA1B4B4BEA0E4BC9
:10101000CDF804B08AFB07BE4FEA1B4B4BEA0E4BE0
:10102000CDF800B0DDF800B05944914201DD114621
:1010300002E0994200DA1946DDF808B0ABEB04088B
:10104000DDF810B08BFB08BE4FEA1B4B4BEA0E4C91
:1010500084610762C4614162DDF804B08B440BEB2C
:101060000C05954201DD154602E09D4200DA1D4661
:10107000856205B0BDE8F08F2DE9F04F93B00446CE
:101080002068119060681090A0680F90E0680E9042
:101090000F98B0F5804F02DA4FF480400F90DDF8E2
:1010A0004080A249119880FB0110020442EA1140DD
:1010B0000D90DDF840800D98A0EB08004FEA600B22
:1010C0000D984042DDF84080A0EB080040100C90E5
:1010D0004FF00009B8F1000F01DD09F10109BBF182
:1010E000000F01DD09F102090C98002801DD09F16A
:1010F00004098E490E98A1FB0010CDE90A10DDE924
:101100000A10000440EA11400904CDE900100F9ACA
:10111000D31708460199FFF73EF90746B9F1070FC3
:1011200055D2DFE809F0540F45042A1E39008BFB25
:101130000710020442EA114588FB0701000C40EA4F
:10114000014647E0CBF1000080FB0701000C40EABC
:1011500001450C98404280FB0701000C40EA014623
:1011600038E088FB0701000C40EA01450C9880FB41
:101170000701000C40EA01462CE0C8F1000080FBAA
:101180000701000C40EA0145CBF1000080FB07108D
:10119000020442EA11461DE00C9880FB071002048D
:1011A00042EA11458BFB0710020442EA114611E0A6
:1011B0000C98404280FB0701000C40EA0145C8F151
:1011C000000080FB0710020442EA114602E00025FD
:1011D000002600BF00BF05EB060A0E980004099028
:1011E0000998824517DD099885FB001052464FEAA1
:1011F000EA73CDE9001008460199FFF7CCF80546DF
:10120000099886FB000152464FEAEA73CDE90001D6
:10121000FFF7C1F806460998401B801B8010089014
:10122000089800EB65000790079800EB66000690B1
:10123000089800F500400014002801DA00200CE0B6
:10124000089800F500400E99B1EB204F01DA0E9896
:1012500003E0089800F5004000140590079800F599
:1012600000400014002801DA00200CE0079800F587
:1012700000400E99B1EB204F01DA0E9803E0079879
:1012800000F5004000140490069800F5004000149A
:10129000002801DA00200CE0069800F500400E99C5
:1012A000B1EB204F01DA0E9803E0069800F50040FC
:1012B00000140390B9F1070F2FD2DFE809F02E0BCD
:1012C0002704191220000598206104986061039892
:1012D000A06127E004982061059860610398A061EF
:1012E00020E003982061059860610498A06119E0EE
:1012F00003982061049860610598A06112E0049849
:101300002061039860610598A0610BE00598206159
:10131000039860610498A06104E00020206160618E
:10132000A06100BF00BF13B0BDE8F08F68BB010033
:101330002DE9F04F93B0044620681190606810903A
:10134000A0680F90E0680E900F98B0F5804F02DA19
:101350004FF480400F90DDF84080A249119880FB47
:101360000110020442EA11400D90DDF840800D9812
:10137000A0EB08004FEA600B0D984042DDF840807A
:10138000A0EB080040100C904FF00009B8F1000FDE
:1013900001DD09F10109BBF1000F01DD09F10209CD
:1013A0000C98002801DD09F104098E490E98A1FB73
:1013B0000010CDE90A10DDE90A10000440EA1140EE
:1013C0000904CDE900100F9AD31708460199FEF7DA
:1013D000E2FF0746B9F1070F55D2DFE809F0540FD5
:1013E00045042A1E39008BFB0710020442EA11450E
:1013F00088FB0701000C40EA014647E0CBF1000002
:1014000080FB0701000C40EA01450C98404280FB3C
:101410000701000C40EA014638E088FB0701000C98
:1014200040EA01450C9880FB0701000C40EA0146A8
:101430002CE0C8F1000080FB0701000C40EA0145E8
:10144000CBF1000080FB0710020442EA11461DE0C8
:101450000C9880FB0710020442EA11458BFB071031
:10146000020442EA114611E00C98404280FB070159
:10147000000C40EA0145C8F1000080FB071002049F
:1014800042EA114602E00025002600BF00BF05EB3E
:10149000060A0E98000409900998824517DD0998FC
:1014A00085FB001052464FEAEA73CDE9001008466A
:1014B0000199FEF770FF0546099886FB0001524628
:1014C0004FEAEA73CDE90001FEF765FF0646099889
:1014D000401B801B80100890089800EB6500079067
:1014E000079800EB66000690089800F5004000148D
:1014F000002801DA00200CE0089800F500400E9961
:10150000B1EB204F01DA0E9803E0089800F5004097
:1015100000140590079800F500400014002801DA37
:1015200000200CE0079800F500400E99B1EB204F29
:1015300001DA0E9803E0079800F5004000140490CB
:10154000069800F500400014002801DA00200CE0A5
:10155000069800F500400E99B1EB204F01DA0E9885
:1015600003E0069800F5004000140390B9F1070F5E
:101570002FD2DFE809F02E0B27041912200005985E
:101580002061049860610398A06127E004982061BD
:10159000059860610398A06120E003982061059898
:1015A00060610498A06119E003982061049860616B
:1015B0000598A06112E00498206103986061059885
:1015C000A0610BE005982061039860610498A06118
:1015D00004E0002020616061A06100BF00BF13B083
:1015E000BDE8F08F68BB010070B50A480468001DB3
:1015F0000568001D0668344454B108220649204697
:1016000003F002FC042204491031284603F0FCFBDD
:1016100070BD0000107AFF1F8200002030B5024626
:10162000854C8869A04200D000BF00BF92F83C0002
:10163000012801D1022030BD012082F83C0000BF0A
:101640000868092816D91068C0680C780A3C04EBB1
:1016500044050724AC40A0431468E0600C780A3CC1
:1016600004EB44048868A0401468E46820431468CC
:10167000E06013E0106800690C7804EB440507246F
:10168000AC40A043146820610C7804EB44048868E3
:10169000A040146824692043146820611068806B9E
:1016A00020F440101468A0631068846B088A401E00
:1016B00044EA00501468A0630879C01C0C7C001B2D
:1016C00000EB80041F20A0401468A46B84431068C2
:1016D00084630879C01C0C7C001B00EB8004088824
:1016E00080B2A0401468A46B20431468A063524CDD
:1016F0008869A04218D01068806820F470201468AF
:10170000A060106880688C6920431468A06010682D
:10171000806820F440101468A06010688068CC696C
:1017200020431468A0600BE01068806820F47020EB
:101730001468A0601068806820F440101468A060ED
:10174000487D30B11068406840F480601468606083
:1017500005E01068406820F4806014686060087DCF
:1017600030B11068406840F480501468606005E053
:101770001068406820F48050146860604868012850
:1017800004D002280FD0032827D119E0106840693F
:101790006FF30B001468606110684069CC682043E7
:1017A0001468606126E0106880696FF30B001468AC
:1017B000A06110688069CC6820431468A06119E0BA
:1017C0001068C0696FF30B001468E0611068C069AD
:1017D000CC6820431468E0610CE01068006A6FF385
:1017E0000B00146820621068006ACC6820431468FB
:1017F000206200BF00BF114B114C1068A04206D1FF
:101800000868122803D1586840F4800058600C4CD6
:101810001068A04209D10868102802D00868112871
:1018200003D1586840F40000586000BF002082F8DF
:101830003C0000BF00BFFEE601000F000023014096
:10184000002001402DE9F0410446634920688842A8
:1018500001D0BDE8F0816148007820B102280BD0AA
:1018600003287CD153E05E48FEF752FF012802D1E5
:1018700002205A490870ACE04FF4803158480838CB
:10188000C0F8B41042F2D001C0F8B810002054499A
:101890000839086042F21070C1F8AC0000215048CD
:1018A0000838C0F8B010AC30FFF7E6FB4C480838F9
:1018B000D0F8BC004B490968486349480838D0F85B
:1018C000C00048490968886345480838D0F8C40012
:1018D00044490968C86344480068401C424908609C
:1018E00044F62061884211D300203F49086000215E
:1018F0003B4808388166C0F89410032037490870C7
:1019000007224FF4FA713948FFF74BFA61E0384883
:1019100002883848058807260027511B002901DA6C
:1019200001F5805101FB06FCCCF30B035801B0F527
:10193000803F01DDA0F5003017B1C0F1000C00E0E0
:10194000844627480838C0F800C00121224803F027
:101950007AFA2349083988610121274800E020E00C
:1019600003F071FA1E490839C86100211C48083883
:101970008165FFF743F91A480838D0F8BC001949C7
:101980000968486316480838D0F8C0001549096846
:10199000886313480838D0F8C40012490968C8633E
:1019A00017E000BF0F480068006A41F211110840BB
:1019B00068B90C480068006A8910084038B90948BD
:1019C0000068406C20F4004006490968486400BF84
:1019D00000BF00BF00BF3CE7002001404A000020DC
:1019E0006C0100208804002028000020180000203E
:1019F0002C0000202E0000200021014008B50246E6
:101A000000200090401F13681860012911D002299E
:101A10000BD0032905D004290FD11068806C0090E9
:101A20000CE01068406C009008E01068006C0090BA
:101A300004E01068C06B009000E000BF00BF009899
:101A400008BD000038B501460020009000220023A8
:101A500000BF91F83C00012801D1022038BD0120CF
:101A600081F83C0000BF0868806800F00100A0B960
:101A70000868806840F001000D68A860354800687B
:101A8000354DB0FBF5F000EB4000009002E000980F
:101A9000401E009000980028F9D10868806800F086
:101AA000010000284BD0086C42F20105A84340F425
:101AB00080500864086C00F4807008B90020486405
:101AC00000BF002081F83C0000BF401F0D68286067
:101AD000224C606800F01F00B0B90868806800F40C
:101AE000401008B9012000E0002002460868406864
:101AF000012525EA90230AB303B30868806840F4FF
:101B000080000D68A86022E00868806800F440103A
:101B100008B9012000E0002002460868406801255D
:101B200025EA90230E4D0868A84210D132B12BB19E
:101B30000868806840F480000D68A86007E0086CC1
:101B400040F010000864486C40F001004864002038
:101B500084E700003000002040420F0000230140D5
:101B60000020014038B501460020009000220023EB
:101B700000BF91F83C00012801D1022038BD0120AE
:101B800081F83C0000BF0868806800F00100A0B93F
:101B90000868806840F001000D68A8603848006857
:101BA000384DB0FBF5F000EB4000009002E00098EB
:101BB000401E009000980028F9D10868806800F065
:101BC0000100002851D0086C42F20105A84340F4FE
:101BD00080500864086C00F4807008B900204864E4
:101BE00000BF002081F83C0000BF401F0D68286046
:101BF0000868406840F080000D686860224C6068AA
:101C000000F01F00B0B90868806800F4401008B9FF
:101C1000012000E00020024608684068012525EA0E
:101C200090230AB303B30868806840F480000D680D
:101C3000A86022E00868806800F4401008B901201C
:101C400000E00020024608684068012525EA90234C
:101C50000E4D0868A84210D132B12BB108688068D7
:101C600040F480000D68A86007E0086C40F01000A8
:101C70000864486C40F00100486400207EE70000E2
:101C80003000002040420F000023014000200140AE
:101C900010B502460B4600BF92F83C00012801D166
:101CA000022010BD012082F83C0000BF0F494868A7
:101CB00020F01F00486048681C682043486048685E
:101CC00020F44040486048685C68204348604868A9
:101CD00020F47060486048689C682043486000BFFA
:101CE000002082F83C0000BF00BFDAE7002301407B
:101CF00038B502460020009000BF92F83C00012851
:101D000001D1022038BD012082F83C0000BF0868E4
:101D1000092816D91068C0680C780A3C04EB440501
:101D20000724AC40A0431468E0600C780A3C04EB44
:101D300044048868A0401468E46820431468E060A4
:101D400013E0106800690C7804EB44050724AC40EC
:101D5000A043146820610C7804EB44048868A04018
:101D6000146824692043146820614868072817D242
:101D70001068406B0C79641E04EB84051F24AC4092
:101D8000A04314686063088880B20C79641E04EB79
:101D90008404A0401468646B20431468606331E0DD
:101DA00048680D2817D21068006B0C79E41F04EB0B
:101DB00084051F24AC40A04314682063088880B2C7
:101DC0000C79E41F04EB8404A0401468246B2043C6
:101DD0001468206316E01068C06A0C790D3C04EBAF
:101DE00084051F24AC40A0431468E062088880B2D8
:101DF0000C790D3C04EB8404A0401468E46A204391
:101E00001468E062194B1A4C1068A04206D10868A9
:101E1000122803D1586840F480005860144C1068B0
:101E2000A0421CD10868102802D00868112816D1D9
:101E3000586840F400005860086810280FD10D4819
:101E400000680D4CB0FBF4F000EB80004000009007
:101E500002E00098401E009000980028F9D100BFD1
:101E6000002082F83C0000BF00BF4BE70023014088
:101E7000002001403000002040420F0070477047B2
:101E80002DE9F041044600250026206807682068F7
:101E9000D0F8048007F0020508F0200695B38EB351
:101EA000206C00F0100018B9206C40F40070206421
:101EB0002068806800F04050E8B9207ED8B92068DA
:101EC000C06A00F4700020B12068806800F480606F
:101ED00088B92068406820F0200021684860206CA4
:101EE00020F480702064206C00F4805018B9206CBD
:101EF00040F0010020642046FFF7C0FF6FF01200A1
:101F00002168086007F0040508F08006E5B3DEB339
:101F1000206C00F0100018B9206C40F400502064D0
:101F20002068806800F4401038BB2068806B00F4A3
:101F3000401020B12068806800F48060E8B9206813
:101F4000406800F48060C0B92068806800F04050AC
:101F500098B9207E88B92068406820F08000216808
:101F60004860206C20F480502064206C00F4807065
:101F700018B9206C40F0010020642046FFF762FC95
:101F80006FF00C002168086007F0010508F04006BA
:101F900085B17EB12068006800F0010050B1206C6E
:101FA00040F480302064204600F050F86FF00100CB
:101FB0002168086007F0200508F080667DB176B1E1
:101FC000606C40F0020060646FF0200021680860DF
:101FD0002046FFF754FF6FF0200021680860BDE83D
:101FE000F081000070B5044600250CB9012070BDD9
:101FF0001549A06A884200D000BF206C30B9204645
:1020000000F026F80020606484F83C00206C00F0AA
:10201000100088B9206C20F4885040F00200206441
:102020002046FEF799FA00206064206C20F0020040
:1020300040F00100206400E0012500BF002084F88A
:102040003C0000BF2846D2E70100000F70470000A7
:1020500010B586B00446142101A8FEF7C0F9634903
:10206000206888426ED100BF002000906048006860
:1020700040F480705E4908600846006800F4807093
:10208000009000BF00BF00BF0020009058481438E7
:10209000006840F00400564914390860084600689A
:1020A00000F00400009000BF00BF00BF00200090BF
:1020B0000846006840F0010008600846006800F02B
:1020C0000100009000BF00BF01200190032002909A
:1020D0000020039001A9474800F040FA2020019019
:1020E000032002900020039001A9434800F036FA33
:1020F0004248434908600020486000214048816010
:10210000C1604FF480610161890041618900816192
:102110008911C1614FF4403101620021416200F038
:1021200093F908B1FEF7F6FC00BF3548A06384635D
:1021300000BF00221146122000F0A6FB122000F082
:102140008FFB50E02F49206888424CD100BF00200F
:1021500000902748006840F4007025490860084650
:10216000006800F40070009000BF00BF00BF0020B6
:1021700000901F481438006840F004001C491439CE
:1021800008600846006800F00400009000BF00BF2F
:1021900000BF002000900846006840F00100086081
:1021A0000846006800F00100009000BF00BF222038
:1021B0000190032002900020039001A90D4800F037
:1021C000CDF940200190032002900020039001A946
:1021D000094800F0C3F900221146122000F054FB18
:1021E000122000F03DFB06B010BD000000200140B1
:1021F00044380240000802400000024010640240DF
:10220000D003002000210140F8B5044600200090D2
:102210008C4800684FF41651B0FBF1F7A56D2E689D
:1022200094F85C1008208840304098B1206800681D
:1022300000F0040070B12068006820F004002168FC
:10224000086094F85C1008208840A860606D40F039
:102250000100606594F85C1001208840304068B14E
:102260002068406900F0800040B194F85C100120C3
:102270008840A860606D40F00200606594F85C10D2
:1022800004208840304068B12068006800F00200F7
:1022900040B194F85C1004208840A860606D40F064
:1022A0000400606594F85C1010208840304078B3DA
:1022B0002068006800F0080050B394F85C1010200B
:1022C0008840A8602068006800F4802080B1206801
:1022D000006800F4002028B9206CC8B12046216CA9
:1022E000884715E0A06C98B12046A16C88470FE0A4
:1022F0002068006800F4807028B92068006820F029
:10230000080021680860206C10B12046216C8847C5
:1023100094F85C10202088403040002865D0206868
:10232000006800F0100000285FD094F85C102020B6
:102330008840A86094F83500052828D120680068F6
:1023400020F01600216808602068406920F08000B5
:1023500021684861206C08B9A06C28B12068006829
:1023600020F008002168086094F85C103F20884045
:10237000A860012084F8350000BF002084F83400F4
:1023800000BF206D10B12046216D8847F8BD206840
:10239000006800F4802080B12068006800F400200C
:1023A00028B9606C10B12046616C88471DE0E06B75
:1023B000D8B12046E16B884717E02068006800F438
:1023C000807068B92068006820F0100021680860FB
:1023D000012084F8350000BF002084F8340000BFDD
:1023E000E06B10B12046E16B8847606D38B3606DDB
:1023F00000F00100F0B1052084F835002068006885
:1024000020F001002168086000BF0098401C009087
:10241000B84200D905E02068006800F001000028FB
:10242000F3D100BF012084F8350000BF002084F8FC
:10243000340000BFE06C10B12046E16C884700BF5B
:10244000A4E70000300000202DE9F04104460025FB
:1024500000F08CF9074614B90120BDE8F081606AEC
:1024600000B100BF022084F8350000BF002084F8CE
:10247000340000BF2068006820F001002168086077
:102480000AE000F073F9C01B052805D9202060651B
:10249000032084F83500E0E72068006800F00100C0
:1024A0000028EED12068056821480540D4E90101E3
:1024B0000843E16808432169084361690843A16949
:1024C0000843E1690843216A08430543606A042818
:1024D00003D1D4E90B010843054320680560206857
:1024E000456925F00705606A0543606A04280DD137
:1024F000A06A0543E06A48B12046FEF7ADF928B16D
:1025000040206065012084F83500A6E72068456119
:102510002046FEF787F9064694F85C103F20884075
:10252000B06000206065012084F83500002094E749
:102530003F8010F070B5044600F018F906462546B5
:10254000681C10B104480078054400BF00F00EF983
:10255000801BA842FAD370BD3C000020F8B50246AB
:102560000B460025002400200021D6E0012606FAB3
:1025700001F51E6806EA0504AC4274D11E7906F026
:102580000306012E04D01E7906F00306022E13D195
:1025900090684F000326BE40B0434F00DE68BE4047
:1025A00030439060506801268E40B0431E79C6F3D8
:1025B00000168E40304350601E7906F00306032E4D
:1025C00009D0D0684F000326BE40B0434F009E683C
:1025D000BE403043D0601E7906F00306022E13D1B0
:1025E000CF0802F1200656F827004E07F70E0F26F7
:1025F000BE40B0434F07FF0E1E69BE403043CF08B8
:1026000002F1200646F8270010684F000326BE405E
:10261000B0431E7906F003064F00BE403043106001
:102620005E6806F44036002E76D000BF0026009685
:102630003C4E366846F480463A4F3E603E46366829
:1026400006F48046009600BF00BF374E8F0856F84C
:1026500027008E07370F0F26BE40B043334EB242DD
:1026600002D1002624E057E0314EB24201D10126CA
:102670001EE0304EB24201D1022619E02E4EB24287
:1026800001D1032614E02D4EB24201D104260FE001
:102690002B4EB24201D105260AE02A4EB24201D1A8
:1026A000062605E0284EB24201D1072600E00826A2
:1026B0008F073F0FBE4030431B4E8F0846F8270060
:1026C000224E3068A0435E6806F4801606B12043AF
:1026D0001E4E3060361D3068A0435E6806F400165A
:1026E00006B12043194E361D3060184E361F306833
:1026F000A0435E6806F4003606B12043134E361F31
:102700003060361F3068A0435E6806F4803606B13C
:1027100020430E4E083E3060491C1029FFF426AFBE
:10272000F8BD000044380240083801400000024073
:102730000004024000080240000C02400010024069
:102740000014024000180240001C0240083C0140F6
:10275000024613690B400BB1012000E000207047D6
:102760000AB1816101E00B04836170470148006890
:1027700070470000340000200348006803490978CE
:102780000844014908607047340000203C000020E4
:1027900010B50D48006840F400700B490860084609
:1027A000006840F4806008600846006840F480706B
:1027B0000860032000F0A6F80F2000F007F800F0F2
:1027C0002BF8002010BD0000003C024070B504460C
:1027D0000E4800784FF47A71B1FBF0F00C490968AB
:1027E000B1FBF0F5284601F0C5FC08B1012070BD31
:1027F000102C07D200222146501E00F045F8054853
:10280000046001E00120F2E70020F0E73C00002036
:10281000300000203800002008B500BF00200090E4
:102820000E48006840F480400C4908600846006883
:1028300000F48040009000BF00BF00BF0020009067
:10284000081F006840F08050091F086008460068B3
:1028500000F08050009000BF00BF08BD4438024027
:102860000146084600280DDB00BF00BF00F01F0333
:1028700001229A4043099B0003F1E023C3F80021A1
:1028800000BF00BF00BF70472DE9F05F80460D46D6
:102890001646002705F0F0FD074639462A4633461E
:1028A00001F00700C0F1070ABAF1040F02D94FF096
:1028B000040A01E0C0F1070AD14600F1040ABAF1A6
:1028C000070F02D24FF0000A01E0A0F1030AD4463C
:1028D0004FF0010A0AFA09FAAAF1010A0AEA020A01
:1028E0000AFA0CFA4FF0010B0BFA0CFBABF1010BDF
:1028F0000BEA030B4AEA0B042146404605F0C4FDEF
:10290000BDE8F09F00BF00F00702064B19684FF6C4
:10291000FF031940044B0B4343EA0221014B1960AA
:1029200000BF70470CED00E00000FA05704702465A
:102930001068416200207047F0B5034615461868DC
:10294000446A21B944EA05401E68B06219E018687B
:10295000806A04EB1044002208E0186800F58270D9
:1029600050F8220004EB1044501CC2B2481E9042A2
:10297000F3D844EA0547186800F582704E1E40F807
:1029800026700020F0BD10B50446D4F8E00404F031
:10299000B8F810BD70B504460D4605EBC50304F14B
:1029A000140101EB8301CA682946D4F8E00403F05E
:1029B0009BFF70BD70B504460D4605EBC50304F5DD
:1029C000157101EB8301CA682946D4F8E00404F0CC
:1029D00013F870BD10B50446D4F8E00404F094F880
:1029E00010BD2DE9F04104460D4605F08000802819
:1029F00008D105F00F0000EBC00104F1140000EB5A
:102A0000810607E005F00F0000EBC00104F515702A
:102A100000EB81063146206805F0CCFA07463846BF
:102A2000BDE8F08170B504460E4606F080008028AF
:102A30000AD106F00F0000EBC00104F1140000EB16
:102A400081050120687009E006F00F0000EBC0016D
:102A500004F5157000EB81050020687006F00F008A
:102A6000287000BF94F89404012801D1022070BDA1
:102A7000012084F8940400BF2946206804F028FE51
:102A800000BF002084F8940400BF00BFEFE770B5DA
:102A900004460E4606F00F002179884201D9012034
:102AA00070BD06F0800080280AD106F00F0000EB10
:102AB000C00104F1140000EB81050120687009E0F9
:102AC00006F00F0000EBC00104F5157000EB810566
:102AD000002068700020A87006F00F00287000BF6A
:102AE00094F89404012801D10220D9E7012084F848
:102AF000940400BF2946206804F0E8FF00BF0020CE
:102B000084F8940400BF00BFCAE7024601F00F003A
:102B100000EBC00302F5157000EB830040697047BD
:102B20002DE9F04705460E4690461F464FF0000936
:102B300006F0800080280AD106F00F0000EBC001EB
:102B400005F1140000EB81040120607009E006F03B
:102B50000F0000EBC00105F5157000EB81040020AB
:102B6000607006F00F002070C8F30A00A0602771A3
:102B7000607808B120786083022F01D10020607155
:102B800000BF95F89404012802D10220BDE8F08727
:102B9000012085F8940400BF2146286804F0A4FCB5
:102BA00000BF002085F8940400BF4846EEE72DE9F9
:102BB000F04105460E461746984606F00F0000EB1A
:102BC000C00105F5157000EB8104E760C4F81080C2
:102BD00000206061607006F00F002070A879012865
:102BE00000D1E761AA792146286805F003F80020A2
:102BF000BDE8F08170B504460D4605F00F0021795F
:102C0000884201D9012070BD05F0800080280AD1DA
:102C100005F00F0000EBC00104F1140000EB810689
:102C20000120707007E005EBC50104F5157000EB9D
:102C30008106002070700120B07005F00F00307028
:102C400000BF94F89404012801D10220DBE70120A1
:102C500084F8940400BF3146206804F07EFF05F03C
:102C60000F0028B9A17904F29C42206804F0F6FE16
:102C700000BF002084F8940400BF00BFC3E72DE923
:102C8000F04105460E461746984606F00F0000EB49
:102C9000C00105F1140000EB8104E760C4F8108066
:102CA000002060610120607006F00F002070A8799C
:102CB000012800D1E761AA792146286804F09AFF2B
:102CC0000020BDE8F0812DE9FE4F0446D4F800B0A5
:102CD0005E46206805F050FA002874D1206805F09F
:102CE0008AFA08B9BDE8FE8F40F608008059C0F3A3
:102CF0000D20C4F8D404206805F07DFA00F002002D
:102D0000022805D12068406900F00200216848616E
:102D1000206805F070FA00F01000102845D12068F6
:102D2000806920F0100021688861DBF8209009F0AC
:102D30000F0000EBC00104F5157000EB810AC9F328
:102D4000434002281AD147F6F07009EA000030B378
:102D5000C9F30A125846DAF80C1005F051FAC9F313
:102D60000A11DAF80C000844CAF80C00C9F30A1179
:102D7000DAF814000844CAF8140010E0C9F343401C
:102D800006280CD1082204F29C41584605F038FA76
:102D9000C9F30A11DAF814000844CAF814002068CC
:102DA000806940F0100021688861206805F023FAEE
:102DB00000F40020B0F5002F7BD10025206805F03D
:102DC000EAF9029072E0E1E2029800F001000028C6
:102DD00068D0E9B2206805F001FA804608F00100E9
:102DE00048B1012106F5306000EB451081602946AD
:102DF000204602F005FB08F00800082809D1082148
:102E000006F5306000EB451081602946204602F04F
:102E1000C5FA08F01000102805D1102106F5306021
:102E200000EB4510816008F00200022824D1DBF895
:102E3000140000F08000802807D140F6040080597B
:102E400040F4806140F60400815105EBC50104F5B2
:102E5000157000EB810A9AF80300012806D10020C2
:102E60008AF80300E9B2204600F09BFA022106F539
:102E7000306000EB4510816008F02000202805D16B
:102E8000202106F5306000EB4510816008F4005009
:102E9000B0F5005F06D14FF4005106F5306000EB4D
:102EA000451081606D1C029840080290029800282D
:102EB0008AD1206805F09FF900F48020B0F5802FBA
:102EC0007DD1206805F05DF9029000259AE0029816
:102ED00000F00100002873D0E9B2206805F065F920
:102EE000804608F00100F0B305F00F010120884092
:102EF000019040F634008159019821EA000040F623
:102F000034018851012106F5106000EB4510816005
:102F1000A079012824D105EBC50104F1140000EBD0
:102F2000810005EBC502C16804F1140000EB8200CA
:102F30008068014405EBC50204F1140000EB820037
:102F4000C1606DB905EBC50104F1140000EB81000F
:102F5000006928B904F29C420121206804F07EFD3A
:102F6000E9B2204600E001E0FFF714FD08F0080098
:102F7000082805D1082106F5106000EB4510816096
:102F800008F01000102805D1102106F5106000EBA4
:102F90004510816008F04000402805D1402106F529
:102FA000106000EB4510816008F0020002281DD17E
:102FB0002946584605F0A3F805EBC50101E025E0D8
:102FC0001CE004F1140000EB810A9AF803000128C8
:102FD00006D100208AF80300E9B2204600F0D8F9B3
:102FE000022106F5106000EB4510816008F08000BA
:102FF000802803D12946204602F0A4FA6D1C0298CD
:1030000040080290029800287FF461AF206805F024
:10301000F2F800F00040B0F1004F1CD140F604007F
:10302000805920F0010140F60400815194F8CC044D
:10303000012807D1002084F8CC0400212046FFF7A6
:1030400075FC02E0204600F0D1FA2068406900F0EB
:10305000004021684861206805F0CDF800F4006068
:10306000B0F5006F0ED140F60800805900F0010065
:1030700010B1204600F012FB2068406900F40060A7
:1030800021684861206805F0B6F800F48050B0F57A
:10309000805F7ED140F60400805920F0010140F6A7
:1030A000040081511021206805F029F8002732E042
:1030B0004FF67F3106F5106000EB4710816006F592
:1030C000106000EB4710006820F4001106F5106056
:1030D00000EB471001604FF67F3106F5306000EBE2
:1030E0004710816006F5306000EB4710006820F45F
:1030F000001106F5306000EB4710016006F5306006
:1031000000EB4710006840F0006106F5306000EB0E
:10311000471001607F1C2079B842C9D840F61C00D6
:10312000805940F0011140F61C008151E07B70B1E4
:10313000D6F8840840F00B01C6F8841840F6440025
:10314000805940F00B0140F6440081510FE040F6F9
:103150001400805942F22B01084340F614018851B3
:10316000081F805940F00B014FF401608151D6F8DF
:10317000000820F4FE60C6F80008A17904F29C4221
:10318000206804F06BFC2068406900F480502168DE
:1031900000E000E04861206805F02DF800F40050E0
:1031A000B0F5005F17D1206804F006FA206804F03B
:1031B000D0FFE07100F056FB0090E27920680099A2
:1031C00005F0A0F8204600F0F9F92068406900F405
:1031D000005021684861206805F00DF800F00800F3
:1031E000082808D1204600F008FA2068406900F05D
:1031F000080021684861206804F0FDFF00F08000AD
:10320000802818D1DBF8180020F08000CBF81800D7
:1032100001250DE005EBC50104F5157000EB8100FB
:10322000C078012803D1E9B22046FFF7DAFB6D1C14
:103230002079A842EED8206804F0DDFF00F4801069
:10324000B0F5801F2DD1012522E006F5106000EBBE
:103250004510D0F8009005EBC50104F1140000EB17
:1032600081000079012812D109F00040B0F1004F2F
:103270000DD1012105EBC50204F1140000EB820021
:10328000C170E8B240F080012046FFF7AAFB6D1C38
:103290002079A842D9D82068406900F480102168BC
:1032A0004861206804F0A7FF00F40010B0F5001F8B
:1032B00044D1012538E006F5306000EB4510D0F828
:1032C000009005EBC50104F5157000EB8100007955
:1032D000012828D109F00040B0F1004F23D194F823
:1032E000D40400F00100C9F3004188421BD1012140
:1032F00005EBC50204F5157000EB8200C170DBF828
:10330000180040F08000CBF81800DBF8140000F043
:10331000800040B940F60400805940F4007140F646
:103320000400815103E06D1C2079A842C3D800BF7E
:103330002068406900F4001021684861206804F0AA
:103340005AFF00F08040B0F1804F08D12046FFF7CF
:103350001AFB2068406900F08040216848612068BD
:1033600004F049FF00F0040004280FD12068D0F8D1
:10337000049009F00400042802D12046FFF72AFB3C
:103380002068406840EA09002168486000BFA9E45D
:1033900070B504460D462946D4F8E00403F020FC3D
:1033A00070BD70B504460D462946D4F8E00403F01C
:1033B0003BFC70BDF8B504460CB90120F8BD266889
:1033C00094F8950428B9002084F89404204600F06D
:1033D000A1F8032084F89504B6F1A04F01D1002193
:1033E000A171206804F032FB207C8DF8000094E885
:1033F0000F0004F0F5F820B1022084F895040120B4
:10340000DCE70021206804F02BFF20B1022084F8C3
:1034100095040120D2E7002531E0012105EBC5022A
:1034200004F1140000EB8200417005EBC50104F1CA
:10343000140000F8215005EBC50100EB8100458325
:10344000002105EBC50204F1140000EB82000171BC
:1034500005EBC50204F1140000EB8200816005EB6E
:10346000C50204F1140000EB8200C16005EBC50247
:1034700004F1140000EB82000161681CC5B22079E0
:10348000A842CADC00252AE0002105EBC50204F5AC
:10349000157000EB8200417005EBC50104F5157055
:1034A00000F82150002105EBC50200EB82000171FC
:1034B00005EBC50204F5157000EB8200816005EB99
:1034C000C50204F5157000EB8200C16005EBC50272
:1034D00004F5157000EB82000161681CC5B220790B
:1034E000A842D1DC207C8DF8000094E80F0004F0A5
:1034F000B9F920B1022084F8950401205EE700208C
:103500006074012084F89504206804F099F9002083
:1035100054E7000010B586B00446142101A8FCF75A
:103520005EFF2068B0F1A04F42D100BF00200090A4
:103530002048006840F001001E4908600846006805
:1035400000F00100009000BF00BF4FF4C050019098
:103550000220029000200390032004900A2005908E
:1035600001A91548FEF7FAFF00BF1248001D0068C8
:1035700040F080000F49091D086000BF0020009046
:103580000C481430006840F480400A491431086047
:103590000846006800F48040009000BF00BF00BFF4
:1035A000002211464320FFF76FF94320FFF758F937
:1035B00006B010BD303802400000024070B504462D
:1035C0000125E07908B9002506E0E079022801D15B
:1035D000012501E0FDF79EFA2946D4F8E00403F046
:1035E000CDFBD4F8E00403F073FB70BD10B50446C6
:1035F000D4F8E00403F0A3FB10BD10B50446D4F8E2
:10360000E00403F0A7FB10BD70B504460D4600BFF3
:1036100094F89404012801D1022070BD012084F89F
:10362000940400BF65742946206804F04DFE00BF75
:10363000002084F8940400BF00BFEEE710B50446F4
:1036400004F29C41D4F8E00403F0AFFB10BD70B568
:103650000446256800BF94F89404012801D1022093
:1036600070BD012084F8940400BFE86800F04000B9
:1036700030B1607B012803D1A86B40F48030A8638F
:10368000206804F00DFD206804F0C8F800BF002099
:1036900084F8940400BF00BFE2E7000010B50446C0
:1036A000D4F8E00403F0DEFB2068D0F8000E40F010
:1036B00001002168C1F8000EE07A28B103480068D3
:1036C00040F006000149086010BD000010ED00E068
:1036D0007047000070B504460D460CB9012070BD5E
:1036E0005848006800F00700A84209D255490D70FB
:1036F0000846006800F00700A84201D00120EEE76C
:10370000207800F0020002281DD1207800F004008B
:10371000042805D14C48006840F4E0504A4908604C
:10372000207800F00800082805D14748006840F4D8
:103730006040454908604448006820F0F000A168F6
:10374000084341490860207800F00100A8B3606890
:10375000012807D13C4808380068C0F34040B8B998
:103760000120BCE76068022802D06068032807D106
:10377000354808380068C0F3406048B90120AEE71A
:10378000314808380068C0F3400008B90120A6E7B6
:103790002D48006820F00300616808432A4908604A
:1037A000FEF7E4FF064609E0FEF7E0FF801B41F26A
:1037B0008831884202D9032091E707E02248006857
:1037C00000F00C006168B0EB810FEDD11D4800687E
:1037D00000F00700A84209D91A490D700846006890
:1037E00000F00700A84201D0012078E7207800F01F
:1037F0000400042807D11448006820F4E050E16870
:10380000084311490860207800F00800082808D112
:103810000D48006820F46040216940EAC1000A496F
:10382000086000F025F808490968C1F30311074A48
:10383000515CC8400649086006480068FEF7C6FFAC
:1038400000204CE7003C024008380240EA840008AF
:10385000300000203800002001200149C864704772
:103860000000474201480068704700003000002017
:103870002DE9F047002400250026A14625480068D0
:1038800000F00C0020B1042805D008283AD105E04A
:10389000DFF8849039E0DFF8849036E01D48001F9F
:1038A000006800F03F041B48001F006800F480001F
:1038B00078B11A481749091F0968C1F38811A0FB9C
:1038C00001700146224600233846FCF7EDFC054610
:1038D0000EE011480F49091F0968C1F38811A0FBC8
:1038E00001700146224600233846FCF7DDFC054600
:1038F0000848001F0068C0F30140401C4600B5FBAB
:10390000F6F902E0DFF8109000BF00BF4846BDE8BE
:10391000F0870000083802400024F40000127A000A
:1039200010B50648006800F08000802805D1FFF738
:10393000CFFE80200149891C087010BD0C38024060
:10394000F8B504460CB90120F8BD207800F001005C
:10395000002874D0F948006800F00C0004280DD04D
:10396000F648006800F00C00082813D1F348001F47
:10397000006800F48000B0F5800F0BD1EF480838E4
:103980000068C0F34040002859D06068002856D134
:103990000120D9E700BF6068B0F5803F08D1E74853
:1039A0000838006840F48030E449083908601EE0B7
:1039B0006068B0F5A02F0DD1E0480838006840F4E9
:1039C0008020DE49083908600846006840F48030ED
:1039D00008600CE0D9480838006820F48030D749E6
:1039E000083908600846006820F48020086000BF9D
:1039F000606890B1FEF7BAFE054606E0FEF7B6FE37
:103A0000401B642801D903209EE7CC480838006891
:103A1000C0F340400028F1D011E0FEF7A7FE0546B4
:103A200006E0FEF7A3FE401B642801D903208BE7C4
:103A3000C24808380068C0F340400028F1D120781F
:103A400000F0020002285FD1BC48006800F00C00C2
:103A500058B1BA48006800F00C0008281CD1B748DB
:103A6000001F006800F48000B0B9B448083800684E
:103A7000C0F3400020B1E068012801D0012063E7D5
:103A8000AE480838006820F0F800216940EAC1001B
:103A9000AA490839086037E0E06800B30120A84966
:103AA0000860FEF763FE054606E0FEF75FFE401B7A
:103AB000022801D9032047E7A04808380068C0F36E
:103AC00040000028F1D09D480838006820F0F80038
:103AD000216940EAC10099490839086014E00020D2
:103AE00097490860FEF742FE054606E0FEF73EFEF7
:103AF000401B022801D9032026E7904808380068B7
:103B0000C0F340000028F1D1207800F00800082818
:103B10002CD16069A8B101208A490860FEF726FE11
:103B2000054606E0FEF722FE401B022801D90320CD
:103B30000AE782486C300068C0F340000028F1D0EA
:103B400014E000207F490860FEF710FE054606E0FD
:103B5000FEF70CFE401B022801D90320F4E677484B
:103B60006C300068C0F340000028F1D1207800F0EC
:103B70000400042870D1002770483830006800F035
:103B8000805090B900BF002000906C483830006829
:103B900040F080506949383108600846006800F0FC
:103BA0008050009000BF00BF01276748006800F404
:103BB0008070B0B96448006840F480706249086061
:103BC000FEF7D4FD054606E0FEF7D0FD401B0228B7
:103BD00001D90320B8E65C48006800F48070002832
:103BE000F2D000BFA068012808D1544868300068AE
:103BF00040F001005149683108601DE0A0680528C7
:103C00000DD14E486830006840F004004B496831DF
:103C100008600846006840F0010008600CE0474872
:103C20006830006820F001004449683108600846A7
:103C3000006820F00400086000BFA068A8B1FEF78B
:103C400095FD054609E0FEF791FD401B41F28831E4
:103C5000884202D9032077E626E0384868300068B9
:103C6000C0F340000028EED013E0FEF77FFD0546CC
:103C700008E0FEF77BFD401B41F28831884201D904
:103C8000032061E62D4868300068C0F3400000283A
:103C9000EFD1012F07D129483830006820F080503B
:103CA00026493831086000BFA069002845D0234864
:103CB000006800F00C0008285DD0A069022845D1FA
:103CC00000201F490866FEF751FD054606E0FEF795
:103CD0004DFD401B022801D9032035E6174808385E
:103CE0000068C0F340600028F1D1D4E9070108431F
:103CF000616A40EA81110122A06AC2EB500041EAE8
:103D000000412C20005D41EA00600C49091F086059
:103D100001200B490866FEF729FD054606E0FEF77F
:103D200025FD401B022801D903200DE60348083871
:103D30000068C0F340600028F1D049E00838024034
:103D400000004742800E4742007000400020214999
:103D50000866FEF70BFD054606E0FEF707FD401B73
:103D6000022801D90320EFE51B480068C0F340603A
:103D70000028F2D12CE0A069012800D1E4E5164822
:103D8000001D0668A069012820D006F48001E069C2
:103D900081421BD106F03F01206A814216D147F6CD
:103DA000C0703040616AB0EB811F0FD106F4403122
:103DB0000122A06AC2EB5000B1EB004F06D106F021
:103DC00070612C20005DB1EB006F01D00120BBE5DC
:103DD0000020B9E5000047420038024010B5044613
:103DE0000CB9012010BD606A38B96068B0F5827FF7
:103DF00000D105E00021E16102E000212161616163
:103E00000021A16294F8510028B9002084F85000E4
:103E1000204600F047F8022084F85100206800682E
:103E200020F0400021680860A08800F48270218999
:103E300001F404410843A18901F400610843217C95
:103E400001F002010843217D01F001010843218BAB
:103E500001F400710843217F01F03801084320215B
:103E6000095D01F080010843218D01F400510843F0
:103E7000216808600421A06901EA104094F8241028
:103E800001F010010843216848602068C06920F4EF
:103E900000602168C86100206065012084F851003D
:103EA00000209FE710B586B00446142101A8FCF756
:103EB00096FA1B492068884230D100BF002000904C
:103EC0001848006840F40040164908600846006839
:103ED00000F40040009000BF00BF00BF0020009031
:103EE00010481038006840F004000E49103908608E
:103EF0000846006800F00400009000BF00BF4FF4C7
:103F0000E0500190022002900020039003200490D2
:103F10000620059001A90448FEF720FB06B010BD5D
:103F2000003C004040380240000802402DE9FE4FAE
:103F300004460F4690461D460C9E01200190FEF758
:103F400015FC814694F851B060680290AA46BBF116
:103F5000010F0BD00298B0F5827F04D1A06810B990
:103F6000BBF1040F02D00220BDE8FE8F1FB1B8F1F3
:103F7000000F00D00DB90120F6E700BF94F8500003
:103F8000012801D10220EFE7012084F8500000BF92
:103F900094F85100042802D0052084F85100002034
:103FA0006065C4F83880E587A5872763E586A58620
:103FB000206460642068006800F04000402805D05C
:103FC0002068006840F0400021680860E068B0F5B3
:103FD000006F52D1606810B1BAF1010F09D1206BA6
:103FE00000882168C860206B801C2063E08E401E22
:103FF000E0863BE02068806800F00200022810D1D3
:10400000E08E70B1019801280BD1206B00882168E7
:10401000C860206B801C2063E08E401EE08600207C
:1040200001902068806800F0010068B1E08F58B10D
:104030002068C068A16B0880A06B801CA063E08F23
:10404000401EE08701200190FEF790FBA0EB0900E5
:10405000B0420BD3701C48B1012084F8510000BF5E
:10406000002084F8500000BF03207DE7E08E002888
:10407000C0D1E08F0028BDD152E0606810B1BAF124
:10408000010F09D1206B007821680873206B401C58
:104090002063E08E401EE0863CE02068806800F0EF
:1040A0000200022810D1E08E70B1019801280BD1D6
:1040B000206B007821680873206B401C2063E08E21
:1040C000401EE086002001902068806800F001001A
:1040D00068B1E08F58B12068C068A16B0870A06B10
:1040E000401CA063E08F401EE08701200190FEF796
:1040F0003DFBA0EB0900B04201D3701C00B94EB9E2
:10410000012084F8510000BF002084F8500000BF57
:10411000032029E7E08E0028BFD1E08F0028BCD122
:104120004A463146204601F073FA40B120206065CE
:1041300000BF002084F8500000BF012014E7A068F1
:1041400050B900BF002000902068C068009020682F
:104150008068009000BF00BF012084F8510000BFBC
:10416000002084F8500000BF606D08B10120FBE61C
:104170000020F9E670B504462546681EB0F1807F40
:1041800001D301200FE0681E4FF0E02148610F21AC
:104190004FF0FF3004F078F900204FF0E021886103
:1041A00007200861002070BD7047704710B50346B6
:1041B000002200BF93F83C00012801D1022010BD6D
:1041C000012083F83C0000BF22F0FF00CC6840EAE9
:1041D000040222F440708C6840EA040222F48060F9
:1041E0004C6840EA040222F400600C6840EA0402D1
:1041F00022F480500C6940EA040222F400504C6919
:1042000040EA040222F48040CC6940EA04021868C3
:10421000426400BF002083F83C0000BF00BFCEE72F
:1042200030B502460B4600BF92F83C00012801D190
:10423000022030BD012082F83C0000BF022082F83D
:104240003D00106844681068816824F070041868A4
:10425000044310684460184D1068A8421BD01068D1
:10426000B0F1804F17D0154D1068A84213D0144DEF
:104270001068A8420FD0134D1068A8420BD0124D01
:104280001068A84207D0114D1068A84203D0104D05
:104290001068A84205D121F08001586801431068D8
:1042A0008160012082F83D0000BF002082F83C00C0
:1042B00000BF00BFBDE70000000001400004004057
:1042C00000080040000C0040000401400040014094
:1042D0000018004070B504460D4615B994F8420028
:1042E0000BE0042D02D14320005D06E0082D02D131
:1042F0004420005D01E04520005D012801D001203F
:1043000070BD1DB9022084F842000EE0042D03D1D7
:1043100002214320015508E0082D03D10221442049
:10432000015502E00221452001550422294620685A
:1043300001F025FB2068406C40F40040216848648F
:104340001A49206888421BD02068B0F1804F17D0EE
:1043500017492068884213D01649206888420FD038
:104360001549206888420BD014492068884207D03C
:1043700013492068884203D01249206888420CD132
:104380002068806800F00706062E0CD020680068C0
:1043900040F001002168086005E02068006840F0F6
:1043A0000100216808600020AAE700000000014029
:1043B0000004004000080040000C004000040140E0
:1043C000004001400018004010B504460CB901201F
:1043D00010BD94F83D0028B9002084F83C00204628
:1043E00000F026F8022084F83D00211D206801F02D
:1043F00045FA012084F8460000BF84F83E00012100
:104400003F200155402001554120015500BF00BF0C
:10441000012084F8420043200155442001554520E5
:10442000015500BF012084F83D000020D0E70000C6
:1044300038B504461949206888420FD100BF0020D2
:1044400000901748006840F00100154908600846D0
:10445000006800F00100009000BF1DE011492068D5
:10446000884219D100BF002000900D48001F00684D
:1044700040F002000A49091F08600846006800F081
:104480000200009000BF00BF002203211D20FEF7A4
:10449000FBF91D20FEF7E4F938BD000000000140E3
:1044A0004438024000040040014691F83D000128D4
:1044B00001D001207047022081F83D001A4B0868A6
:1044C00098421BD00868B0F1804F17D0174B08688E
:1044D000984213D0164B086898420FD0154B0868C5
:1044E00098420BD0144B0868984207D0134B0868C9
:1044F000984203D0124B086898420CD10868806833
:1045000000F00702062A0CD00868006840F001009D
:104510000B68186005E00868006840F001000B684F
:1045200018600020C6E700000000014000040040C1
:1045300000080040000C0040000401400040014021
:1045400000180040014691F83D00012801D00120EB
:104550007047022081F83D000868C06840F0010003
:104560000B68D8601A4B086898421BD00868B0F1F5
:10457000804F17D0174B0868984213D0164B086825
:1045800098420FD0154B086898420BD0144B08681E
:10459000984207D0134B0868984203D0124B086822
:1045A00098420CD10868806800F00702062A0CD0F7
:1045B0000868006840F001000B68186005E00868B2
:1045C000006840F001000B6818600020C0E70000A0
:1045D000000001400004004000080040000C0040C2
:1045E0000004014000400140001800402DE9F04166
:1045F00004460D46002700BF94F83C00012802D174
:104600000220BDE8F081012084F83C0000BF0220B8
:1046100084F83D002068866826F0770626F47F46F9
:10462000206886602868502833D00CDC202850D0C1
:1046300004DC00284BD0102851D149E0302849D063
:1046400040284CD139E060282DD0702807D0B0F533
:10465000805F03D0B0F5005F41D10DE041E0D5E9C6
:1046600002136A68206801F09BF92068866846F0AA
:1046700077062068866034E0D5E902136A6820680E
:1046800001F08EF92068806840F4804021688860DD
:1046900027E0EA686968206801F072FA5021206812
:1046A00001F089F91DE0EA686968206801F07BFA89
:1046B0006021206801F07FF913E0EA6869682068EA
:1046C00001F05EFA4021206801F075F909E000BFB1
:1046D00000BF00BF2968206801F06DF901E00127E3
:1046E00000BF00BF012084F83D0000BF002084F817
:1046F0003C0000BF384684E7704770B50446206828
:10470000C5682068066906F00200022819D105F084
:104710000200022815D1401F21680861012020777E
:104720002068806900F0030018B12046FFF7E4FF1D
:1047300005E0204600F0E8F8204600F09CF9002053
:10474000207706F00400042819D105F0040004289D
:1047500015D1C04321680861022020772068806954
:1047600000F4407018B12046FFF7C6FF05E0204670
:1047700000F0CAF8204600F07EF90020207706F00D
:104780000800082819D105F00800082815D1C043F1
:1047900021680861042020772068C06900F00300C8
:1047A00018B12046FFF7A8FF05E0204600F0ACF85E
:1047B000204600F060F90020207706F01000102855
:1047C00019D105F01000102815D1C04321680861E7
:1047D000082020772068C06900F4407018B1204696
:1047E000FFF78AFF05E0204600F08EF8204600F033
:1047F00042F90020207706F0010048B105F00100E1
:1048000030B16FF0010021680861204600F0BAF96C
:1048100006F08000802809D105F08000802805D1AD
:10482000C043216808612046FFF7BEFC06F0400047
:10483000402809D105F04000402805D1C043216837
:104840000861204600F006FA06F02000202809D171
:1048500005F02000202805D1C043216808612046CA
:10486000FFF7A3FC70BD000010B586B0044614210C
:1048700001A8FBF7B4FD2049206888423AD100BF67
:10488000002000901D48006840F002001B490860AD
:104890000846006800F00200009000BF00BF00BFA3
:1048A000002000900846006840F0010008600846BB
:1048B000006800F00100009000BF00BF4FF46040AE
:1048C00001900220029000200390049001200590A6
:1048D00001A90B48FDF742FE4FF4E0600190022071
:1048E00002900020039004900120059001A9054842
:1048F000FDF734FE06B010BD000001403038024024
:10490000000402400000024070472DE9F0410446D7
:104910000D461646002700BF94F83C00012802D13E
:104920000220BDE8F081012084F83C0000BF36B1D0
:10493000042E1BD0082E31D00C2E5ED145E0294626
:10494000206801F041F82068806940F00800216883
:1049500088612068806920F00400216888612068EF
:104960008069296908432168886148E029462068F0
:1049700001F062F82068806940F400602168886175
:104980002068806920F480602168886120688069DF
:10499000296940EA01202168886130E029462068C1
:1049A00001F088F82068C06940F008002168C861FB
:1049B0002068C06920F004002168C8612068C069CF
:1049C000296908432168C86119E02946206801F077
:1049D000ADF82068C06940F400602168C8612068B3
:1049E000C06920F480602168C8612068C0692969B5
:1049F00040EA01202168C86101E0012700BF00BF33
:104A000000BF002084F83C0000BF384689E710B59D
:104A100004460CB9012010BD94F83D0028B90020CF
:104A200084F83C00204600F025F8022084F83D0080
:104A3000211D206800F022FF012084F8460000BFFD
:104A400084F83E0001213F200155402001554120BE
:104A5000015500BF00BF012084F8420043200155EA
:104A6000442001554520015500BF012084F83D0038
:104A70000020D0E77047704770B504460D4615B961
:104A800094F83E000BE0042D02D13F20005D06E0CB
:104A9000082D02D14020005D01E04120005D012889
:104AA00001D0012070BD1DB9022084F83E000EE047
:104AB000042D03D102213F20015508E0082D03D128
:104AC00002214020015502E002214120015501222E
:104AD0002946206800F042FF23492068884203D01D
:104AE00022492068884201D1012000E0002028B13D
:104AF0002068406C40F40040216848641A492068EE
:104B000088421BD02068B0F1804F17D01849206828
:104B1000884213D01749206888420FD01649206870
:104B200088420BD011492068884207D01349206879
:104B3000884203D01249206888420CD120688068DE
:104B400000F00706062E0CD02068006840F0010037
:104B50002168086005E02068006840F001002168D5
:104B6000086000209EE700000000014000040140B2
:104B70000004004000080040000C004000400140DC
:104B8000001800402DE9F04780462A49D8F8000077
:104B900088424DD103F04EFC274908800846018821
:104BA00026480288501AB0F5006F01DDA0F580504C
:104BB00010F5006F01DA00F5805040F2152380FBFC
:104BC00003365C4200BF00BF1D4A1268A01A1C4A8F
:104BD000526882FB0032160446EA1341184A1268F2
:104BE0000A44174B1A601A46156800BF124800881D
:104BF00012490880134E1448D0F80090C6F814905B
:104C000029463046FCF78CF9B76A00BF0F48007898
:104C1000032805D10E48C0F884700021816506E0A4
:104C200000210B48C0F8841000200649486200BFEC
:104C3000BDE8F087000400402C0000200C0000209C
:104C40001000002014030020080000204A0000206B
:104C500064010020704700BFFEE708B50020009007
:104C600002E00098401C009000980328F9DB08BD82
:104C700070B505460024012208211D48FDF770FD8E
:104C8000002617E0012204211948FDF769FDFFF70E
:104C9000E4FF6006040E08211548FDF759FD08B130
:104CA000601CC4B2002204211148FDF759FDFFF732
:104CB000D4FF761C082EE5DB2DB1002208210C481C
:104CC000FDF74EFD04E0012208210948FDF748FDEB
:104CD000012204210648FDF743FDFFF7BEFF002235
:104CE00004210348FDF73CFDFFF7B7FF204670BDE8
:104CF0000000024070B50446002520E004F080006A
:104D000028B1012208210F48FDF72AFD04E0002206
:104D100008210C48FDF724FDFFF79FFF0122042125
:104D20000848FDF71DFDFFF798FF00220421054804
:104D3000FDF716FDFFF791FF6006040E6D1C082DB0
:104D4000DCDB70BD0000024010B5012208210C48D8
:104D5000FDF706FD012204210948FDF701FDFFF7DB
:104D60007CFF002208210648FDF7FAFCFFF775FFDB
:104D7000002204210248FDF7F3FCFFF76EFF10BD8F
:104D80000000024010B5002208210948FDF7E8FCA8
:104D9000012204210648FDF7E3FCFFF75EFF012234
:104DA00008210348FDF7DCFCFFF757FF10BD0000AA
:104DB0000000024010B50024012208211148FDF72F
:104DC000CFFCFFF74AFF012204210E48FDF7C8FC83
:104DD000FFF743FF07E0601CC4B2FA2C03DDFFF7C6
:104DE000D1FF012010BD08210648FDF7B1FC0028C5
:104DF000F1D1002204210348FDF7B2FCFFF72DFF9B
:104E00000020EFE70000024030B50B46002100BF54
:104E100016E00A24B4EB107F05D9302404EB10749B
:104E200003F8114005E0412404EB10740A3C03F838
:104E30001140000100254C00641C1D554C1CE1B2C2
:104E40009142E6DB30BD10B5024601F440704FF4EC
:104E5000407494FAA4F4B4FA84F4E04002F13C04FF
:104E600004EB8003186880B210BD000000B58FB05D
:104E700000200C900D900E90089009900A900B90D5
:104E800020216846FBF7ABFA2E482F4908604FF403
:104E90008030486000212C4881600121016100219F
:104EA000017680F82010C162284981620021C1602A
:104EB0000221C161002180F8301001214161FDF71C
:104EC00091F808B1FBF726FE01200C90C0030D906D
:104ED00000200E900CA91C48FCF7DAFE08B1FBF785
:104EE00019FE05200890012009900A9008A916488B
:104EF000FCF7FEFE08B1FBF70DFE10200890022023
:104F0000099008A91048FCF7F3FE08B1FBF702FE70
:104F10000A200090012001900490032002904FF499
:104F200080100790002006908DF815008DF8140071
:104F3000039069460448FCF771FB08B1FBF7EAFDF2
:104F40000FB000BD00200140400300200100000F11
:104F500000B58DB0002009900A900B900C90202194
:104F600001A8FBF73CFA2548254908604FF480303A
:104F70004860002122488160012101610021017601
:104F800080F82010C1600221C161002180F830103A
:104F900001214161FDF726F808B1FBF7BBFD0620B2
:104FA000099001200A900B9009A91548FCF7A0FE72
:104FB00008B1FBF7AFFD0F20099002200A9009A964
:104FC0000F48FCF795FE08B1FBF7A4FD0B200190FC
:104FD0000120029005900320039001208DF8190014
:104FE00000208DF81800049001A90548FCF716FB75
:104FF00008B1FBF78FFD0DB000BD0000002101409E
:105000008803002008B500BF002000900A4800680F
:1050100040F48000084908600846006800F48000F9
:10502000009000BF00BF002211463820FDF72CFC85
:105030003820FDF715FC08BD3038024000B587B0B8
:10504000142102A8FBF7CBF900BF002001904448CF
:10505000006840F00400424908600846006800F01B
:105060000400019000BF00BF00BF0020019008466F
:10507000006840F0800008600846006800F080008A
:10508000019000BF00BF00BF0020019008460068EB
:1050900040F0010008600846006800F0010001903F
:1050A00000BF00BF00BF002001900846006840F02C
:1050B000020008600846006800F00200019000BF8E
:1050C00000BF00BF002001900846006840F00800C3
:1050D00008600846006800F00800019000BF00BFAB
:1050E00000224FF400511F48FDF73AFB00220C212B
:1050F0001D48FDF735FB002241F204011B48FDF776
:105100002FFB4FF4005002900120039000200490E8
:10511000059002A91348FDF721FA0C2002901120F6
:10512000039000200490059002A90F48FDF716FA9D
:1051300041F20400029001200390002004900590A9
:1051400002A90A48FDF70AFA042002900020039001
:10515000049002A90648FDF701FA07B000BD00005F
:1051600030380240000802400000024000040240C3
:10517000000C024010B50E480E4908604FF48270D2
:10518000486000210B488160C160016101214161DB
:10519000490281610821C16100210162416281628D
:1051A0000A21C162FEF71AFE08B1FBF7B3FC10BD7D
:1051B000003C00403004002000B595B00020119064
:1051C0001290139014900F9010901C2108A8FBF7D8
:1051D00006F920216846FBF702F939483949086089
:1051E0000020486060213748816041F26801C16059
:1051F0000021016141618161FFF7E6F808B1FBF729
:1052000089FC4FF48050119011A92E48FFF7EEF958
:1052100008B1FBF77FFC2B48FFF7F9FB08B1FBF760
:1052200079FC70200F90002010900FA92548FEF700
:10523000F7FF08B1FBF76EFC7020089041F26800A0
:10524000099000200A900B900C900D900E90002277
:1052500008A91C48FFF759FB08B1FBF75BFC0422C7
:1052600008A91848FFF751FB08B1FBF753FC0822C7
:1052700008A91448FFF749FB08B1FBF74BFC78205D
:1052800009900C2208A90F48FFF73FFB08B1FBF774
:1052900041FC0020009001900290039004904FF494
:1052A000005005900020079069460648FEF77EFFF3
:1052B00008B1FBF72FFC0348FFF7D6FA15B000BD85
:1052C000000001408804002000B587B00020039052
:1052D00004900590069001900290144814490860CB
:1052E0000320486000211248816045F20821C16016
:1052F000002101618161FFF767F808B1FBF70AFC43
:105300004FF48050039003A90948FFF76FF908B1E3
:10531000FBF700FC00200190029001A90448FEF771
:105320007FFF08B1FBF7F6FB07B000BD00040040AB
:10533000D004002010B500220D490E4801F091FA6A
:1053400008B1FBF7E7FB0C490A4801F0CCFD08B1B6
:10535000FBF7E0FB0949074800F0B6FE08B1FBF790
:10536000D9FB044801F0C2FE08B1FBF7D3FB10BD26
:105370004C00002018050020C00000209C000020E8
:1053800000BFFEE7FEF7CCFA00BFFEE710B502480B
:10539000FDF799FC10BD0000F41900202DE9F0473D
:1053A00004460D4626683746D6F8408007F530603B
:1053B00000EB4510D0F80890104880450BD909F44F
:1053C0000040B0F5004F06D14FF4004107F53060C2
:1053D00000EB451081602046FEF730F90748804514
:1053E00008D9A079012805D104F29C420121206846
:1053F00002F034FB0020BDE8F08700000A30544F73
:105400002DE9F04705460C46D5F800904E46D9F8F0
:1054100040A006F5306000EB4410D0F80880A87971
:10542000012855D108F0080008280FD143488245CB
:105430000BD908F40040B0F5004F7BD14FF4004188
:1054400006F5306000EB4410816073E008F0200046
:10545000202806D1202106F5306000EB4410816041
:1054600068E008F02800002864D1344882450CD94F
:1054700008F40040B0F5004F07D14FF4004106F5A5
:10548000306000EB4410816054E004EBC40105F58A
:10549000157000EB810706F5306000EB4410396AA7
:1054A0000069C0F31200081A786164B9386930B92C
:1054B00005F29C420121286802F0D0FA03E07969E4
:1054C000F8680844F860E1B22846FDF773FA31E065
:1054D0001B4882451BD108F40040B0F5004F07D1AE
:1054E0004FF4004106F5306000EB4410816021E08C
:1054F00008F02000202805D1202106F5306000EBBF
:1055000044108160E1B22846FDF754FA12E06CB90C
:1055100004EBC40105F5157000EB8100006928B9A2
:1055200005F29C420021286802F098FAE1B2284670
:10553000FDF740FA0020BDE8F08700000A30544F24
:105540000A31544F2DE9F84F07460E46D7F8009020
:10555000C84606EBC60107F1140000EB8104D4E94C
:105560000410884202D90120BDE8F88FD4E9040173
:10557000451AA068A84200D2A568E81C4FEA900A24
:1055800017E0D4E90401451AA068A84200D2A56832
:10559000E81C4FEA900AB879ABB2F2B200904846E4
:1055A000E16802F023FFE0682844E0606069284475
:1055B000606108F5106000EB4610806980B25045CC
:1055C00006D3D4E90410884202D220690028D8D139
:1055D000D4E9040188420ED806F00F01012000FA38
:1055E00001FB40F6340050F8080020EA0B0040F6BA
:1055F000340141F808000020B6E7704770B5044652
:105600000D46002229462046FDF7AAF870BD00008D
:105610007CB504460E46154633460122022120463B
:10562000009500F039F828B1606D40F02000606509
:1056300003207CBD164800681821B0FBF1F0154925
:10564000B0FBF1F04FF47A71484301906068B0F517
:10565000827F0DD13346002280212046009500F044
:105660001BF898B1606D40F0200060650320E0E712
:1056700000BF019800B908E00198401E0190206821
:105680008068C0F3C0100028F3D100BF0020D0E72D
:105690003000002040420F002DE9F84F04460D462F
:1056A00090461E46DDF82890FDF760F8A0EB090053
:1056B000371AFDF75BF882462C480068C0F3CB3000
:1056C0007843009046E0701C002843D0FDF74EF868
:1056D000A0EB0A00B84200D2A7BB2068406820F0C7
:1056E000E000216848606068B0F5827F0DD1A06855
:1056F000B0F5004F03D0A068B0F5806F05D12068E9
:10570000006820F0400021680860A06AB0F5005FE2
:105710000DD100BF2068006820F4005021680860A7
:105720002068006840F400502168086000BF012034
:1057300084F8510000BF002084F8500000BF03200F
:10574000BDE8F88FFFE7009808B9002702E000984D
:10575000401E0090206880682840A84201D10120A6
:1057600000E000204045AED10020E9E730000020F5
:10577000704730B501460A461378521C147843EA44
:10578000042030BD70B504460D460122294620464E
:10579000FCF7E6FF70BD10B5FCF7EEFF10BD000092
:1057A00000B593B0302107A8FAF719FE142102A81A
:1057B000FAF715FE00BF002001902548006840F070
:1057C0008050234908600846006800F0805001902E
:1057D00000BF00BF00BF002001901E48006840F4D9
:1057E00080401C4908600846006800F48040019031
:1057F00000BF00BF012007900004089002200D9018
:1058000041050E9104210F91A821109102211191BF
:105810000721129107A8FEF793F808B1FBF77AF970
:105820000F20029002200390002004904FF4A0501B
:1058300005904FF480500690052102A8FDF74AFF1D
:1058400008B1FBF767F9FEF707F813B000BD0000D9
:1058500040380240007000400348006840F4700087
:10586000014908607047000088ED00E010B502486B
:10587000FEF743FF10BD0000D004002010B5026801
:105880002B4B98420ED0B0F1804F0BD0294B984251
:1058900008D0294B984205D0284B984202D0284B7B
:1058A000984203D122F070024B681A43204B984271
:1058B00020D0B0F1804F1DD01E4B98421AD01E4B05
:1058C000984217D01D4B984214D01D4B984211D0CE
:1058D0001C4B98420ED01C4B98420BD01B4B98424D
:1058E00008D01B4B984205D01A4B984202D01A4B55
:1058F000984203D122F44072CB681A4322F080030D
:105900004C6943EA04028B68C3620B688362084BEC
:10591000984202D00A4B984201D10B690363036895
:1059200043F00403036001234361026010BD0000E3
:10593000000001400004004000080040000C00404E
:105940000004014000400140004401400048014083
:1059500000180040001C00400020004030B501F05D
:105960001F05012404FA05F3046A9C430462046AD7
:1059700001F01F0502FA05F52C43046230BD30B575
:1059800001F00F05042404FA05F3046A9C43046241
:10599000046A01F00F0502FA05F52C43046230BDDC
:1059A00030B50C46816821F47F4142EA0325254346
:1059B0002943816030BD0A46816821F0700142F0C0
:1059C000070319438160704730B5026A056A25F004
:1059D000010505624368846924F0700424F003041F
:1059E0000D682C4322F002028D682A43104DA84214
:1059F00000D103E00F4DA84206D100BF22F00802FB
:105A0000CD682A4322F00402094DA84202D0094D74
:105A1000A84207D123F4807323F400734D692B430C
:105A20008D692B43436084614D684563026230BDDC
:105A3000000001400004014030B5026A056A25F00B
:105A4000100505624368846924F4E04424F440743A
:105A50000D6844EA052422F020028D6842EA05120E
:105A6000124DA84200D103E0114DA84207D100BF5A
:105A700022F08002CD6842EA051222F040020B4D6E
:105A8000A84202D00A4DA84209D123F4806323F42E
:105A900000634D6943EA85038D6943EA85034360EA
:105AA00084614D688563026230BD000000000140E2
:105AB0000004014030B5026A056A25F4807505626C
:105AC0004368C46924F0700424F003040D682C4377
:105AD00022F400728D6842EA0522124DA84200D1DC
