:020000040800F2
:10000000600F002029020008B5440008FF3D0008E9
:10001000B14400082D070008AF4E000800000000A2
:100020000000000000000000000000003146000851
:10003000FD09000800000000BD4400084546000816
:10004000430200084302000843020008430200087C
:10005000430200084302000843020008430200086C
:10006000430200084302000843020008430200085C
:10007000430200084302000843020008430200084C
:100080004302000843020008F1040008430200088C
:10009000430200084302000843020008430200082C
:1000A000430200084302000843020008430200081C
:1000B00043020008194700084302000843020008F1
:1000C00043020008430200084302000843020008FC
:1000D00043020008430200084302000843020008EC
:1000E00043020008430200084302000843020008DC
:1000F00043020008430200084302000843020008CC
:1001000043020008430200084302000843020008BB
:1001100043020008430200084302000843020008AB
:1001200031070008430200084302000843020008A8
:100130004302000800000000000000004302000825
:10014000430200084302000843020008430200087B
:10015000430200084302000843020008430200086B
:10016000430200084302000843020008430200085B
:1001700043020008430200080000000000000000E5
:10018000430200084302000800F002F800F03CF8C7
:100190000AA090E8000C82448344AAF10107DA45E2
:1001A00001D100F031F8AFF2090EBAE80F0013F0F8
:1001B000010F18BFFB1A43F001031847CC4D000094
:1001C000EC4D0000103A24BF78C878C1FAD8520725
:1001D00024BF30C830C144BF04680C6070470000C1
:1001E0000023002400250026103A28BF78C1FBD840
:1001F000520728BF30C148BF0B6070471FB504F0DD
:10020000ADFE1FBD10B510BD00F0F3F81146FFF7AD
:10021000F5FF04F08BFE00F011F903B4FFF7F2FFD5
:1002200003BC00F019F9000009488047094800475D
:10023000FEE7FEE7FEE7FEE7FEE7FEE7FEE7FEE796
:10024000FEE7FEE704480549054A064B70470000F3
:10025000054700088901000860090020600F0020A0
:10026000600B0020600B002053EA020C00F0698054
:100270002DE9F04B4FF00006002B1FBFB3FA83F5BA
:1002800003FA05F424FA05F65E4012BF1643B2FAEB
:1002900082F502FA05F4C5F120051EBF22FA05FC1D
:1002A00044EA0C04203556EA044C4FEA144418BFC3
:1002B000641C4FF000084FF00009904271EB030CF2
:1002C00039D3002919BFB1FA81F701FA07F6B0FA5C
:1002D00080F700FA07F6C7F120071EBF20FA07FCD7
:1002E00046EA0C062037B6FBF4FCA7EB0507103FE7
:1002F00007F01F0BCBF120060CFA0BFB2CFA06F6CD
:1003000044BFB3460026202FA4BF5E464FF0000B2B
:100310005BEA060C08BF4FF0010B19EB0B09ABFBB6
:10032000027C48EB0608C01B06FB02CC0BFB03CC8F
:1003300071EB0C01C1E70B46024641464846BDE859
:10034000F08B13B54FF000004FF00001AFF30080C9
:10035000BDE81C40704710B54C1084EA530404D526
:100360004042C1F1000138BF491E1B4204D5524230
:10037000C3F1000338BF5B1EFFF776FF14F0804F18
:1003800004D04042C1F1000138BF491E14F0004FB3
:1003900004D05242C3F1000338BF5B1E10BD4FF0C2
:1003A000000200B5134694469646203922BFA0E8C5
:1003B0000C50A0E80C50B1F12001BFF4F7AF0907D1
:1003C00028BFA0E80C5048BF0CC05DF804EB8900C2
:1003D00028BF40F8042B08BF704748BF20F8022B05
:1003E00011F0804F18BF00F8012B7047704770471D
:1003F0007047754600F02CF8AE4605006946534636
:1004000020F00700854618B020B5FFF71BFFBDE8B8
:1004100020404FF000064FF000074FF000084FF06B
:10042000000B21F00701AC46ACE8C009ACE8C009FC
:10043000ACE8C009ACE8C0098D46704710B5044669
:10044000AFF300802046BDE81040FFF7E6BE000095
:1004500000487047FC08002001491820ABBEFEE7A9
:10046000260002007047000010B500F01BFA1C487F
:1004700003F094F942F2D0011A4800F0DCFA00F0DF
:10048000F3F800BF184800780028FBD01648007821
:1004900002281FD10021154803F01AFC002113483F
:1004A00003F044F80421114803F012FC04210F4822
:1004B00003F03CF808210D4803F00AFC08210B4822
:1004C00003F034F809480068406C40F400400749E4
:1004D0000968486400BF044800780228FBD010BDBA
:1004E000D0030020640000203E000020880300208C
:1004F00010B5034801F0CCFB024801F0C9FB10BD68
:10050000400200208802002055494A6822F4403207
:100510004A604A6843681A434A600268526822F493
:10052000807203685A6002685368026943EA0222D3
:1005300003685A600268526822F0407203685A6089
:100540000268526883681A4303685A6002689268B6
:1005500022F4006203689A6002689268C3681A43D2
:1005600003689A603F4B826A9A4218D00268926888
:1005700022F0706203689A6002689268836A1A4384
:1005800003689A600268926822F0405203689A6099
:1005900002689268C36A1A4303689A600BE00268B3
:1005A000926822F0706203689A600268926822F092
:1005B000405203689A600268926822F0020203685F
:1005C0009A6002689368027E43EA420203689A6076
:1005D0002022125CA2B10268526842F400620368F1
:1005E0005A600268526822F4604203685A600268E6
:1005F0005368426A521E43EA423203685A6005E079
:100600000268526822F4006203685A600268D26A83
:1006100022F470020368DA620268D36A828B521E87
:1006200043EA02520368DA620268926822F40072B6
:1006300003689A600268936890F8302043EA422287
:1006400003689A600268926822F4806203689A6084
:1006500002689368426943EA822203689A6070479D
:10066000002301400100000F10B5124801F0F2F81C
:10067000114801F07FF9114803F042F80C210F48AE
:1006800003F026FB00BF0D480068006A41F211111B
:10069000084068B909480068006A8910084038B9FC
:1006A00006480068406C20F400400449096848642A
:1006B00000BF10BD880200204002002088030020F7
:1006C00010B504460121144801F0A0F81349096847
:1006D0000844124908600121114801F097F81149B6
:1006E000096808440F4908600F480088401C0E49FB
:1006F000088008460088B0F5806F0BDB074800686B
:10070000800A606007480068800AA06000200880B6
:10071000012010BD0020FCE7400200203400002032
:1007200088020020380000203C00002000BFFEE7C7
:1007300010B5024801F070FC10BD0000D00200208E
:100740000146087810381823B0FBF3F20848805CA3
:10075000C865032A05D908686FF30900001D88657C
:1007600003E008686FF309008865886D7047000032
:100770007E4F0008014600208A6A8B69CBB932B1EE
:10078000012A0DD0022A03D0032A10D10EE000BFA7
:10079000CB6A03F08073B3F1807F00D1012007E0C2
:1007A000CB6AB3F1C07F00D1012001E000E000BFBF
:1007B00034E08B69B3F5005F1AD132B1012A07D05A
:1007C000022A03D0032A11D10AE000BF01200EE063
:1007D000CB6A03F08073B3F1807F00D1012006E083
:1007E000CB6AB3F1C07F00D1012000E000BF15E06B
:1007F00032B1012A05D0022A04D0032A0CD103E029
:1008000000BF00BF012008E0CB6A03F08073B3F1A2
:10081000807F00D1012000E000BF00BF70470000D2
:1008200010B54FF40051024803F049FE10BD00001E
:100830000008024010B54FF40051024803F0F9FEE1
:1008400010BD00000008024070B500F05BF8C0F376
:100850000A0400F05CF8C0F30A0504F4806028B1D3
:1008600004F03F0000B100BF012070BD05F0800022
:1008700008B10120F9E70020F7E7000010B54FF4B8
:100880008051024803F01BFE10BD0000000402402E
:1008900010B54FF48051024803F0CBFE10BD0000AC
:1008A0000004024008B5FFF7E9FF012001F04AFD0E
:1008B000FFF7EEFF142001F045FD0A2000231A4641
:1008C00019460090022000F04CF8052001F03AFD96
:1008D000002001231A460221009000F059F80A2056
:1008E00001F030FD0020034602460221009000F096
:1008F0004FF800F012F802490870FFF7A5FF08BD95
:100900003F00002010B5002000F00EF810BD10B51B
:100910004FF4006000F008F810BD10B5FFF7F7FFC6
:10092000044604F00F0010BD7CB5044644F40045B5
:1009300028128DF80400E8B28DF80500FFF770FF6B
:100940004FF4FA730222694601A800F059F8FFF744
:1009500071FF0021084600F032F80646C6F30A008F
:100960007CBD2DE9F04704460D4617461E46DDF8CE
:10097000208044EA850040EAC70040EA061040EAC9
:10098000881949464FF4805000F019F8BDE8F08707
:100990002DE9F04704460D4617461E46DDF8208037
:1009A00044EA850040EA071040EA461040EA881908
:1009B00049464FF4C05000F002F8BDE8F0877CB51E
:1009C00004460D46C5F30A0040EA040630128DF8CD
:1009D0000400F0B28DF80500FFF722FF4FF4FA7320
:1009E0000222694601A800F00BF8FFF723FF9DF8EB
:1009F00001009DF8001040EA01207CBD7047000016
:100A00002DE9F84305460C4616461F463346224656
:100A100029460648009702F0B5FB8046B8F1000F62
:100A200002D12088BDE8F8830020FBE730030020D6
:100A300072B600BFFEE700B97047002202608280F4
:100A400082604FF40063C3600361002343618361EC
:100A5000C361036243628362C2624FF48033036303
:100A6000426300238363C2630364C0F89C20A02216
:100A700013500022C0F8A420A822135042F6E062CE
:100A80004264642383640023C3644FF4004303651A
:100A90005B42436500238365C365036643668366E3
:100AA000C366026764234367002383674FF40043F0
:100AB000C3675B4280221350002384221350882294
:100AC00013508C22135090221350942213509822CA
:100AD00013500022C0F8AC20B02213504FF48033E2
:100AE000B4221350B82211500023BC221350C0224C
:100AF0001350C422135043F23333CC221350D42268
:100B000013500022C0F8C820C0F8D02000BF93E7DF
:100B10002DE9F05F04460CB9BDE8F09F04F1080030
:100B200000F036F9B4F8049040F2EB3009FB00FA1B
:100B30004FEAEA71090441EA1A414FEA0A474FF4C1
:100B4000402200233846FFF706FC05462846B4211C
:100B5000085104F12C01206800F0ADF800BF206AB4
:100B6000616AA26A60638B1A49F2CD3783FB07572B
:100B70003E462F0C47EA0647A76300BF00BF606BE5
:100B8000A16BE76AD4F830C080FB0CB881FB079AF0
:100B90001BEB090248EB0A034FEA124848EA0348F4
:100BA000C4F83C8081FB0CB880FB079ABBEB0905BD
:100BB00068EB0A064FEA154848EA0648C4F8408040
:100BC00000BF04F1C800E16B00F04DF8E06304F1F0
:100BD000D000216C00F047F8206404F14400E16B80
:100BE00000F00FF904F17000216C00F00AF9E06EDA
:100BF0004042C4F89C00982000594142A020015175
:100C000000BFD4F89C00D4F8A010E76AD4F830C034
:100C100080FB0C9881FB07BAB9EB0B0268EB0A0367
:100C20004FEA124848EA0348C4F8A48080FB07B89A
:100C300081FB0C9A1BEB090548EB0A064FEA1548A5
:100C400048EA0648C4F8A88000BFD4F8A400C4F855
:100C5000AC00A8200159B020015104F1AC0000F013
:100C600083FA00BF58E770B5024610680B1A506847
:100C700080FB0350060446EA1544106820441060C7
:100C8000106870BD2DE9F04704460D46164605FB79
:100C900006F03C2190FBF1F94FF4003089FB007025
:100CA0000146D4F804C0624600233846FFF753FBE0
:100CB000A060BDE8F0872DE9D34F8C460099B1F5CF
:100CC000803F01DDA1F5003111F5803F01DA01F52A
:100CD0000031002902DAC1F1000A00E08A46D0465C
:100CE00081FB08AB4FEA1A4A4AEA0B424FEA820AF2
:100CF000CAEB8100002802DAC0F1000A00E0824657
:100D0000D14680FB09AB4FEA1A4A4AEA0B44261A3D
:100D100043F69A1A86FB0ABA4FEA0A4E4EEA1B4776
:100D200007EB000ACCF800A001F50041B1F5803FC7
:100D300001DDA1F50031002902DAC1F1000A00E06D
:100D40008A46D04681FB08BA4FEA0A4E4EEA1B4259
:100D50004FEA820ACAEB8100002802DAC0F1000AD9
:100D600000E08246D14680FB09BA4FEA0A4E4EEABD
:100D70001B44261A43F69A1A86FB0ABA4FEA0A4E11
:100D80004EEA1B4707EB000ACCF804A0BDE8DC8F55
:100D90002DE9BE4B044661682069A0EB010BA168F8
:100DA0006069401A02904FF425600BFB00F001903F
:100DB0000198C117090441EA104107044FF42022A9
:100DC00000233846FFF7C7FA0546E5614FF4256171
:100DD0000298484300900098C117090441EA104165
:100DE00007044FF4202200233846FFF7B4FA814667
:100DF000C4F82090D4E9070108444042A061BDE84E
:100E0000BE8B2DE9F04F85B00E46D0F80090D0F89B
:100E100004A0D0F808B0CDF810B0C2680369D0F8CB
:100E200014B0CDF80CB0D0F81CB0CDF808B0416AC1
:100E30003446DDF80CB0ABEB040789FB07BE4FEA84
:100E40001B4B4BEA0E4BCDF804B08AFB07BE4FEAB2
:100E50001B4B4BEA0E4BCDF800B0DDF800B0594407
:100E6000914201DD114602E0994200DA1946DDF8AF
:100E700008B0ABEB0408DDF810B08BFB08BE4FEAFE
:100E80001B4B4BEA0E4C84610762C4614162DDF882
:100E900004B08B440BEB0C05954201DD154602E0D6
:100EA0009D4200DA1D46856205B0BDE8F08F000066
:100EB0002DE9F04F93B004462068119060681090BF
:100EC000A0680F90E0680E900F98B0F5804F02DA9E
:100ED0004FF480400F90DDF84080A249119880FBCC
:100EE0000110020442EA11400D90DDF840800D9897
:100EF000A0EB08004FEA600B0D984042DDF84080FF
:100F0000A0EB080040100C904FF00009B8F1000F62
:100F100001DD09F10109BBF1000F01DD09F1020951
:100F20000C98002801DD09F104098E490E98A1FBF7
:100F30000010CDE90A10DDE90A10000440EA114072
:100F40000904CDE900100F9AD31708460199FFF75D
:100F500002FA0746B9F1070F55D2DFE809F0540F3E
:100F600045042A1E39008BFB0710020442EA114592
:100F700088FB0701000C40EA014647E0CBF1000086
:100F800080FB0701000C40EA01450C98404280FBC1
:100F90000701000C40EA014638E088FB0701000C1D
:100FA00040EA01450C9880FB0701000C40EA01462D
:100FB0002CE0C8F1000080FB0701000C40EA01456D
:100FC000CBF1000080FB0710020442EA11461DE04D
:100FD0000C9880FB0710020442EA11458BFB0710B6
:100FE000020442EA114611E00C98404280FB0701DE
:100FF000000C40EA0145C8F1000080FB0710020424
:1010000042EA114602E00025002600BF00BF05EBC2
:10101000060A0E98000409900998824517DD099880
:1010200085FB001052464FEAEA73CDE900100846EE
:101030000199FFF790F90546099886FB0001524691
:101040004FEAEA73CDE90001FFF785F906460998F2
:10105000401B801B80100890089800EB65000790EB
:10106000079800EB66000690089800F50040001411
:10107000002801DA00200CE0089800F500400E99E5
:10108000B1EB204F01DA0E9803E0089800F500401C
:1010900000140590079800F500400014002801DABC
:1010A00000200CE0079800F500400E99B1EB204FAE
:1010B00001DA0E9803E0079800F500400014049050
:1010C000069800F500400014002801DA00200CE02A
:1010D000069800F500400E99B1EB204F01DA0E980A
:1010E00003E0069800F5004000140390B9F1070FE3
:1010F0002FD2DFE809F02E0B2704191220000598E3
:101100002061049860610398A06127E00498206141
:10111000059860610398A06120E00398206105981C
:1011200060610498A06119E00398206104986061EF
:101130000598A06112E00498206103986061059809
:10114000A0610BE005982061039860610498A0619C
:1011500004E0002020616061A06100BF00BF13B007
:10116000BDE8F08F68BB01002DE9F04F93B0044655
:101170002068119060681090A0680F90E0680E9051
:101180000F98B0F5804F02DA4FF480400F90DDF8F1
:101190004080A249119880FB0110020442EA1140EC
:1011A0000D90DDF840800D98A0EB08004FEA600B31
:1011B0000D984042DDF84080A0EB080040100C90F4
:1011C0004FF00009B8F1000F01DD09F10109BBF191
:1011D000000F01DD09F102090C98002801DD09F179
:1011E00004098E490E98A1FB0010CDE90A10DDE933
:1011F0000A10000440EA11400904CDE900100F9ADA
:10120000D31708460199FFF7A6F80746B9F1070F6B
:1012100055D2DFE809F0540F45042A1E39008BFB34
:101220000710020442EA114588FB0701000C40EA5E
:10123000014647E0CBF1000080FB0701000C40EACB
:1012400001450C98404280FB0701000C40EA014632
:1012500038E088FB0701000C40EA01450C9880FB50
:101260000701000C40EA01462CE0C8F1000080FBB9
:101270000701000C40EA0145CBF1000080FB07109C
:10128000020442EA11461DE00C9880FB071002049C
:1012900042EA11458BFB0710020442EA114611E0B5
:1012A0000C98404280FB0701000C40EA0145C8F160
:1012B000000080FB0710020442EA114602E000250C
:1012C000002600BF00BF05EB060A0E980004099037
:1012D0000998824517DD099885FB001052464FEAB0
:1012E000EA73CDE9001008460199FFF734F8054686
:1012F000099886FB000152464FEAEA73CDE90001E6
:10130000FFF729F806460998401B801B80100890BB
:10131000089800EB65000790079800EB66000690C0
:10132000089800F500400014002801DA00200CE0C5
:10133000089800F500400E99B1EB204F01DA0E98A5
:1013400003E0089800F5004000140590079800F5A8
:1013500000400014002801DA00200CE0079800F596
:1013600000400E99B1EB204F01DA0E9803E0079888
:1013700000F5004000140490069800F500400014A9
:10138000002801DA00200CE0069800F500400E99D4
:10139000B1EB204F01DA0E9803E0069800F500400B
:1013A00000140390B9F1070F2FD2DFE809F02E0BDC
:1013B00027041912200005982061049860610398A1
:1013C000A06127E004982061059860610398A061FE
:1013D00020E003982061059860610498A06119E0FD
:1013E00003982061049860610598A06112E0049858
:1013F0002061039860610598A0610BE00598206169
:10140000039860610498A06104E00020206160619D
:10141000A06100BF00BF13B0BDE8F08F68BB010042
:1014200030B50246854C8869A04200D000BF00BF9D
:1014300092F83C00012801D1022030BD012082F841
:101440003C0000BF0868092816D91068C0680C78ED
:101450000A3C04EB44050724AC40A0431468E06058
:101460000C780A3C04EB44048868A0401468E468E3
:1014700020431468E06013E0106800690C7804EB06
:1014800044050724AC40A043146820610C7804EBA9
:1014900044048868A04014682469204314682061CB
:1014A0001068806B20F440101468A0631068846B8F
:1014B000088A401E44EA00501468A0630879C01CE2
:1014C0000C7C001B00EB80041F20A0401468A46B60
:1014D0008443106884630879C01C0C7C001B00EBFB
:1014E0008004088880B2A0401468A46B204314686C
:1014F000A063524C8869A04218D01068806820F41C
:1015000070201468A060106880688C69204314689B
:10151000A0601068806820F440101468A060106813
:101520008068CC6920431468A0600BE01068806874
:1015300020F470201468A0601068806820F44010C7
:101540001468A060487D30B11068406840F4806045
:101550001468606005E01068406820F480601468DA
:101560006060087D30B11068406840F480501468B5
:10157000606005E01068406820F480501468606086
:101580004868012804D002280FD0032827D119E089
:10159000106840696FF30B0014686061106840695F
:1015A000CC6820431468606126E0106880696FF39E
:1015B0000B001468A06110688069CC68204314682F
:1015C000A06119E01068C0696FF30B001468E06156
:1015D0001068C069CC6820431468E0610CE01068B2
:1015E000006A6FF30B00146820621068006ACC6810
:1015F00020431468206200BF00BF114B114C1068DB
:10160000A04206D10868122803D1586840F480002F
:1016100058600C4C1068A04209D10868102802D00C
:101620000868112803D1586840F40000586000BFD2
:10163000002082F83C0000BF00BFFEE601000F0062
:1016400000230140002001402DE9F0410446654996
:101650002068884201D0BDE8F0816348007820B15D
:1016600002280BD003287CD153E06048FFF728F80C
:10167000012802D102205C490870B0E04FF400411B
:101680005A480838C0F8B41042F2D001C0F8B81077
:10169000002056490839086042F21070C1F8AC00C9
:1016A000002152480838C0F8B010AC30FFF700FCF9
:1016B0004E480838D0F8BC004D49096848634B488B
:1016C0000838D0F8C0004A49096888634748083894
:1016D000D0F8C40046490968C86346480068401C01
:1016E0004449086044F62061884211D300204149F2
:1016F000086000213D4808388166C0F89410032036
:101700003949087007224FF4FA713B48FFF7BAFADB
:1017100065E03A4802883A48058807260023511BAD
:10172000002901DA01F5805101FB06FCCCF30B071F
:101730007801B0F5803F01DDA0F5003013B1C0F1B4
:10174000000C00E0844629480838C0F800C0012198
:101750002C4800F05BF825490839886101212A48A6
:1017600000E024E000F052F820490839C86140F652
:10177000B8311E480838C0F8841000218165FFF791
:10178000C7F91A480838D0F8BC00194909684863F5
:1017900016480838D0F8C00015490968886313480E
:1017A0000838D0F8C40012490968C86317E000BFC0
:1017B0000F480068006A41F21111084068B90C48EE
:1017C0000068006A8910084038B909480068406C10
:1017D00020F4004006490968486400BF00BF00BF0C
:1017E00000BF38E7002001403E0000206C000020D0
:1017F000880300201C0000200C0000202000002096
:1018000022000020400200208802002008B5024685
:1018100000200090401F13681860012911D0022990
:101820000BD0032905D004290FD11068806C0090DB
:101830000CE01068406C009008E01068006C0090AC
:1018400004E01068C06B009000E000BF00BF00988B
:1018500008BD000038B5014600200090002200239A
:1018600000BF91F83C00012801D1022038BD0120C1
:1018700081F83C0000BF0868806800F00100A0B952
:101880000868806840F001000D68A860354800686D
:10189000354DB0FBF5F000EB4000009002E0009801
:1018A000401E009000980028F9D10868806800F078
:1018B000010000284BD0086C42F20105A84340F417
:1018C00080500864086C00F4807008B900204864F7
:1018D00000BF002081F83C0000BF401F0D68286059
:1018E000224C606800F01F00B0B90868806800F4FE
:1018F000401008B9012000E0002002460868406856
:10190000012525EA90230AB303B30868806840F4F0
:1019100080000D68A86022E00868806800F440102C
:1019200008B9012000E0002002460868406801254F
:1019300025EA90230E4D0868A84210D132B12BB190
:101940000868806840F480000D68A86007E0086CB3
:1019500040F010000864486C40F00100486400202A
:1019600084E700002400002040420F0000230140D3
:101970000020014038B501460020009000220023DD
:1019800000BF91F83C00012801D1022038BD0120A0
:1019900081F83C0000BF0868806800F00100A0B931
:1019A0000868806840F001000D68A8603848006849
:1019B000384DB0FBF5F000EB4000009002E00098DD
:1019C000401E009000980028F9D10868806800F057
:1019D0000100002851D0086C42F20105A84340F4F0
:1019E00080500864086C00F4807008B900204864D6
:1019F00000BF002081F83C0000BF401F0D68286038
:101A00000868406840F080000D686860224C60689B
:101A100000F01F00B0B90868806800F4401008B9F1
:101A2000012000E00020024608684068012525EA00
:101A300090230AB303B30868806840F480000D68FF
:101A4000A86022E00868806800F4401008B901200E
:101A500000E00020024608684068012525EA90233E
:101A60000E4D0868A84210D132B12BB108688068C9
:101A700040F480000D68A86007E0086C40F010009A
:101A80000864486C40F00100486400207EE70000D4
:101A90002400002040420F000023014000200140AC
:101AA00010B502460B4600BF92F83C00012801D158
:101AB000022010BD012082F83C0000BF0F49486899
:101AC00020F01F00486048681C6820434860486850
:101AD00020F44040486048685C682043486048689B
:101AE00020F47060486048689C682043486000BFEC
:101AF000002082F83C0000BF00BFDAE7002301406D
:101B000038B502460020009000BF92F83C00012842
:101B100001D1022038BD012082F83C0000BF0868D6
:101B2000092816D91068C0680C780A3C04EB4405F3
:101B30000724AC40A0431468E0600C780A3C04EB36
:101B400044048868A0401468E46820431468E06096
:101B500013E0106800690C7804EB44050724AC40DE
:101B6000A043146820610C7804EB44048868A0400A
:101B7000146824692043146820614868072817D234
:101B80001068406B0C79641E04EB84051F24AC4084
:101B9000A04314686063088880B20C79641E04EB6B
:101BA0008404A0401468646B20431468606331E0CF
:101BB00048680D2817D21068006B0C79E41F04EBFD
:101BC00084051F24AC40A04314682063088880B2B9
:101BD0000C79E41F04EB8404A0401468246B2043B8
:101BE0001468206316E01068C06A0C790D3C04EBA1
:101BF00084051F24AC40A0431468E062088880B2CA
:101C00000C790D3C04EB8404A0401468E46A204382
:101C10001468E062194B1A4C1068A04206D108689B
:101C2000122803D1586840F480005860144C1068A2
:101C3000A0421CD10868102802D00868112816D1CB
:101C4000586840F400005860086810280FD10D480B
:101C500000680D4CB0FBF4F000EB800040000090F9
:101C600002E00098401E009000980028F9D100BFC3
:101C7000002082F83C0000BF00BF4BE7002301407A
:101C8000002001402400002040420F0070477047B0
:101C90002DE9F041044600250026206807682068E9
:101CA000D0F8048007F0020508F0200695B38EB343
:101CB000206C00F0100018B9206C40F40070206413
:101CC0002068806800F04050E8B9207ED8B92068CC
:101CD000C06A00F4700020B12068806800F4806061
:101CE00088B92068406820F0200021684860206C96
:101CF00020F480702064206C00F4805018B9206CAF
:101D000040F0010020642046FFF7C0FF6FF0120092
:101D10002168086007F0040508F08006E5B3DEB32B
:101D2000206C00F0100018B9206C40F400502064C2
:101D30002068806800F4401038BB2068806B00F495
:101D4000401020B12068806800F48060E8B9206805
:101D5000406800F48060C0B92068806800F040509E
:101D600098B9207E88B92068406820F080002168FA
:101D70004860206C20F480502064206C00F4807057
:101D800018B9206C40F0010020642046FFF75CFC8D
:101D90006FF00C002168086007F0010508F04006AC
:101DA00085B17EB12068006800F0010050B1206C60
:101DB00040F480302064204600F050F86FF00100BD
:101DC0002168086007F0200508F080667DB176B1D3
:101DD000606C40F0020060646FF0200021680860D1
:101DE0002046FFF754FF6FF0200021680860BDE82F
:101DF000F081000070B5044600250CB9012070BDCB
:101E00001549A06A884200D000BF206C30B9204636
:101E100000F026F80020606484F83C00206C00F09C
:101E2000100088B9206C20F4885040F00200206433
:101E30002046FEF769FB00206064206C20F0020061
:101E400040F00100206400E0012500BF002084F87C
:101E50003C0000BF2846D2E70100000F7047000099
:101E600010B586B00446142101A8FEF798FA63491C
:101E7000206888426ED100BF002000906048006852
:101E800040F480705E4908600846006800F4807085
:101E9000009000BF00BF00BF0020009058481438D9
:101EA000006840F00400564914390860084600688C
:101EB00000F00400009000BF00BF00BF00200090B1
:101EC0000846006840F0010008600846006800F01D
:101ED0000100009000BF00BF01200190032002908C
:101EE0000020039001A9474800F040FA202001900B
:101EF000032002900020039001A9434800F036FA25
:101F00004248434908600020486000214048816001
:101F1000C1604FF480610161890041618900816184
:101F20008911C1614FF4403101620021416200F02A
:101F300093F908B1FEF77CFD00BF3548A0638463C8
:101F400000BF00221146122000F0A6FB122000F074
:101F50008FFB50E02F49206888424CD100BF002001
:101F600000902748006840F4007025490860084642
:101F7000006800F40070009000BF00BF00BF0020A8
:101F800000901F481438006840F004001C491439C0
:101F900008600846006800F00400009000BF00BF21
:101FA00000BF002000900846006840F00100086073
:101FB0000846006800F00100009000BF00BF22202A
:101FC0000190032002900020039001A90D4800F029
:101FD000CDF940200190032002900020039001A938
:101FE000094800F0C3F900221146122000F054FB0A
:101FF000122000F03DFB06B010BD000000200140A3
:1020000044380240000802400000024010640240D0
:10201000D002002000210140F8B5044600200090C5
:102020008C4800684FF41651B0FBF1F7A56D2E688F
:1020300094F85C1008208840304098B1206800680F
:1020400000F0040070B12068006820F004002168EE
:10205000086094F85C1008208840A860606D40F02B
:102060000100606594F85C1001208840304068B140
:102070002068406900F0800040B194F85C100120B5
:102080008840A860606D40F00200606594F85C10C4
:1020900004208840304068B12068006800F00200E9
:1020A00040B194F85C1004208840A860606D40F056
:1020B0000400606594F85C1010208840304078B3CC
:1020C0002068006800F0080050B394F85C101020FD
:1020D0008840A8602068006800F4802080B12068F3
:1020E000006800F4002028B9206CC8B12046216C9B
:1020F000884715E0A06C98B12046A16C88470FE096
:102100002068006800F4807028B92068006820F01A
:10211000080021680860206C10B12046216C8847B7
:1021200094F85C10202088403040002865D020685A
:10213000006800F0100000285FD094F85C102020A8
:102140008840A86094F83500052828D120680068E8
:1021500020F01600216808602068406920F08000A7
:1021600021684861206C08B9A06C28B1206800681B
:1021700020F008002168086094F85C103F20884037
:10218000A860012084F8350000BF002084F83400E6
:1021900000BF206D10B12046216D8847F8BD206832
:1021A000006800F4802080B12068006800F40020FE
:1021B00028B9606C10B12046616C88471DE0E06B67
:1021C000D8B12046E16B884717E02068006800F42A
:1021D000807068B92068006820F0100021680860ED
:1021E000012084F8350000BF002084F8340000BFCF
:1021F000E06B10B12046E16B8847606D38B3606DCD
:1022000000F00100F0B1052084F835002068006876
:1022100020F001002168086000BF0098401C009079
:10222000B84200D905E02068006800F001000028ED
:10223000F3D100BF012084F8350000BF002084F8EE
:10224000340000BFE06C10B12046E16C884700BF4D
:10225000A4E70000240000202DE9F04104460025F9
:1022600000F08CF9074614B90120BDE8F081606ADE
:1022700000B100BF022084F8350000BF002084F8C0
:10228000340000BF2068006820F001002168086069
:102290000AE000F073F9C01B052805D9202060650D
:1022A000032084F83500E0E72068006800F00100B2
:1022B0000028EED12068056821480540D4E90101D5
:1022C0000843E16808432169084361690843A1693B
:1022D0000843E1690843216A08430543606A04280A
:1022E00003D1D4E90B010843054320680560206849
:1022F000456925F00705606A0543606A04280DD129
:10230000A06A0543E06A48B12046FEF733FA28B1D7
:1023100040206065012084F83500A6E7206845610B
:102320002046FEF70DFA064694F85C103F208840E0
:10233000B06000206065012084F83500002094E73B
:102340003F8010F070B5044600F018F906462546A7
:10235000681C10B104480078054400BF00F00EF975
:10236000801BA842FAD370BD30000020F8B50246A9
:102370000B460025002400200021D6E0012606FAA5
:1023800001F51E6806EA0504AC4274D11E7906F018
:102390000306012E04D01E7906F00306022E13D187
:1023A00090684F000326BE40B0434F00DE68BE4039
:1023B00030439060506801268E40B0431E79C6F3CA
:1023C00000168E40304350601E7906F00306032E3F
:1023D00009D0D0684F000326BE40B0434F009E682E
:1023E000BE403043D0601E7906F00306022E13D1A2
:1023F000CF0802F1200656F827004E07F70E0F26E9
:10240000BE40B0434F07FF0E1E69BE403043CF08A9
:1024100002F1200646F8270010684F000326BE4050
:10242000B0431E7906F003064F00BE4030431060F3
:102430005E6806F44036002E76D000BF0026009677
:102440003C4E366846F480463A4F3E603E4636681B
:1024500006F48046009600BF00BF374E8F0856F83E
:1024600027008E07370F0F26BE40B043334EB242CF
:1024700002D1002624E057E0314EB24201D10126BC
:102480001EE0304EB24201D1022619E02E4EB24279
:1024900001D1032614E02D4EB24201D104260FE0F3
:1024A0002B4EB24201D105260AE02A4EB24201D19A
:1024B000062605E0284EB24201D1072600E0082694
:1024C0008F073F0FBE4030431B4E8F0846F8270052
:1024D000224E3068A0435E6806F4801606B12043A1
:1024E0001E4E3060361D3068A0435E6806F400164C
:1024F00006B12043194E361D3060184E361F306825
:10250000A0435E6806F4003606B12043134E361F22
:102510003060361F3068A0435E6806F4803606B12E
:1025200020430E4E083E3060491C1029FFF426AFB0
:10253000F8BD000044380240083801400000024065
:102540000004024000080240000C0240001002405B
:102550000014024000180240001C0240083C0140E8
:10256000024613690B400BB1012000E000207047C8
:102570000AB1816101E00B04836170470148006882
:1025800070470000280000200348006803490978CC
:1025900008440149086070472800002030000020EE
:1025A00010B50D48006840F400700B4908600846FB
:1025B000006840F4806008600846006840F480705D
:1025C0000860032000F0A6F80F2000F007F800F0E4
:1025D0002BF8002010BD0000003C024070B50446FE
:1025E0000E4800784FF47A71B1FBF0F00C4909689D
:1025F000B1FBF0F5284600F0E9FE08B1012070BDFE
:10260000102C07D200222146501E00F045F8054844
:10261000046001E00120F2E70020F0E73000002034
:10262000240000202C00002008B500BF00200090EE
:102630000E48006840F480400C4908600846006875
:1026400000F48040009000BF00BF00BF0020009059
:10265000081F006840F08050091F086008460068A5
:1026600000F08050009000BF00BF08BD4438024019
:102670000146084600280DDB00BF00BF00F01F0325
:1026800001229A4043099B0003F1E023C3F8002193
:1026900000BF00BF00BF70472DE9F05F80460D46C8
:1026A0001646002702F026FC074639462A463346DE
:1026B00001F00700C0F1070ABAF1040F02D94FF088
:1026C000040A01E0C0F1070AD14600F1040ABAF198
:1026D000070F02D24FF0000A01E0A0F1030AD4462E
:1026E0004FF0010A0AFA09FAAAF1010A0AEA020AF3
:1026F0000AFA0CFA4FF0010B0BFA0CFBABF1010BD1
:102700000BEA030B4AEA0B042146404602F0FAFBAF
:10271000BDE8F09F00BF00F00702064B19684FF6B6
:10272000FF031940044B0B4343EA0221014B19609C
:1027300000BF70470CED00E00000FA05F8B5044654
:102740000CB90120F8BD266894F8950428B900203A
:1027500084F89404204600F0A1F8032084F895043E
:10276000B6F1A04F01D10021A171206802F004FB55
:10277000207C8DF8000094E80F0002F07FF920B172
:10278000022084F895040120DCE70021206802F093
:1027900051FB20B1022084F895040120D2E70025E6
:1027A00031E0012105EBC50204F1140000EB8200C9
:1027B000417005EBC50104F1140000F8215005EB50
:1027C000C50100EB81004583002105EBC50204F142
:1027D000140000EB8200017105EBC50204F1140046
:1027E00000EB8200816005EBC50204F1140000EBF0
:1027F0008200C16005EBC50204F1140000EB820009
:102800000161681CC5B22079A842CADC00252AE013
:10281000002105EBC50204F5157000EB8200417044
:1028200005EBC50104F5157000F82150002105EBFA
:10283000C50200EB8200017105EBC50204F51570BD
:1028400000EB8200816005EBC50204F5157000EB1A
:102850008200C16005EBC50204F5157000EB820033
:102860000161681CC5B22079A842D1DC207C8DF8BA
:10287000000094E80F0002F08BF920B1022084F8E8
:10288000950401205EE700206074012084F895041F
:10289000206802F06AF9002054E7000010B586B005
:1028A0000446142101A8FDF77AFD2068B0F1A04F7D
:1028B0003AD100BF002000901C48006840F00100A1
:1028C0001A4908600846006800F00100009000BF47
:1028D00000BF4FF4C05001900220029000200390EE
:1028E000032004900A20059001A91148FFF73EFD3E
:1028F00000BF0E48001D006840F080000B49091D14
:10290000086000BF0020009008481430006840F4C0
:1029100080400649143108600846006800F4804091
:10292000009000BF00BF00BF06B010BD30380240AD
:10293000000002407047000070B504460D460CB917
:10294000012070BD5848006800F00700A84209D275
:1029500055490D700846006800F00700A84201D0F4
:102960000120EEE7207800F0020002281DD1207837
:1029700000F00400042805D14C48006840F4E05001
:102980004A490860207800F00800082805D1474827
:10299000006840F46040454908604448006820F001
:1029A000F000A168084341490860207800F0010068
:1029B000A8B36068012807D13C4808380068C0F314
:1029C0004040B8B90120BCE76068022802D06068C6
:1029D000032807D1354808380068C0F3406048B97B
:1029E0000120AEE7314808380068C0F3400008B95C
:1029F0000120A6E72D48006820F003006168084325
:102A00002A490860FFF7BAFD064609E0FFF7B6FD60
:102A1000801B41F28831884202D9032091E707E008
:102A20002248006800F00C006168B0EB810FEDD126
:102A30001D48006800F00700A84209D91A490D7026
:102A40000846006800F00700A84201D0012078E79E
:102A5000207800F00400042807D11448006820F40E
:102A6000E050E168084311490860207800F0080050
:102A7000082808D10D48006820F46040216940EA28
:102A8000C1000A49086000F01FF808490968C1F34D
:102A90000311074A515CC8400649086006480068AF
:102AA000FFF79CFD00204CE7003C02400838024044
:102AB000664F0008240000202C000020012001495E
:102AC000C8647047000047422DE9F0470024002504
:102AD0000026A1462548006800F00C0020B104281B
:102AE00005D008283AD105E0DFF8849039E0DFF816
:102AF000849036E01D48001F006800F03F041B482A
:102B0000001F006800F4800078B11A481749091FB7
:102B10000968C1F38811A0FB017001462246002319
:102B20003846FDF7A1FB05460EE011480F49091F85
:102B30000968C1F38811A0FB0170014622460023F9
:102B40003846FDF791FB05460848001F0068C0F3B2
:102B50000140401C4600B5FBF6F902E0DFF810909A
:102B600000BF00BF4846BDE8F087000008380240BB
:102B70000024F40000127A0010B50648006800F046
:102B80008000802805D1FFF7D5FE80200149891CEF
:102B9000087010BD0C380240F8B504460CB901208D
:102BA000F8BD207800F00100002874D0F9480068D2
:102BB00000F00C0004280DD0F648006800F00C006E
:102BC000082813D1F348001F006800F48000B0F516
:102BD000800F0BD1EF4808380068C0F34040002850
:102BE00059D06068002856D10120D9E700BF60683D
:102BF000B0F5803F08D1E7480838006840F48030DD
:102C0000E449083908601EE06068B0F5A02F0DD1D6
:102C1000E0480838006840F48020DE490839086040
:102C20000846006840F4803008600CE0D948083855
:102C3000006820F48030D7490839086008460068E9
:102C400020F48020086000BF606890B1FFF796FC18
:102C5000054606E0FFF792FC401B642801D90320DB
:102C60009EE7CC4808380068C0F340400028F1D007
:102C700011E0FFF783FC054606E0FFF77FFC401BF1
:102C8000642801D903208BE7C24808380068C0F3E4
:102C900040400028F1D1207800F0020002285FD1E6
:102CA000BC48006800F00C0058B1BA48006800F059
:102CB0000C0008281CD1B748001F006800F48000F1
:102CC000B0B9B44808380068C0F3400020B1E068EB
:102CD000012801D0012063E7AE480838006820F0E1
:102CE000F800216940EAC100AA490839086037E0C4
:102CF000E06800B30120A8490860FFF73FFC0546E3
:102D000006E0FFF73BFC401B022801D9032047E700
:102D1000A04808380068C0F340000028F1D09D4862
:102D20000838006820F0F800216940EAC10099499C
:102D30000839086014E0002097490860FFF71EFC7E
:102D4000054606E0FFF71AFC401B022801D90320C4
:102D500026E7904808380068C0F340000028F1D109
:102D6000207800F0080008282CD16069A8B1012063
:102D70008A490860FFF702FC054606E0FFF7FEFB04
:102D8000401B022801D903200AE782486C30006802
:102D9000C0F340000028F1D014E000207F49086013
:102DA000FFF7ECFB054606E0FFF7E8FB401B0228B7
:102DB00001D90320F4E677486C300068C0F3400086
:102DC0000028F1D1207800F00400042870D10027F9
:102DD00070483830006800F0805090B900BF002083
:102DE00000906C483830006840F0805069493831B4
:102DF00008600846006800F08050009000BF00BFE7
:102E000001276748006800F48070B0B96448006822
:102E100040F4807062490860FFF7B0FB054606E0A9
:102E2000FFF7ACFB401B022801D90320B8E65C4841
:102E3000006800F480700028F2D000BFA06801286C
:102E400008D154486830006840F0010051496831A9
:102E500008601DE0A06805280DD14E486830006864
:102E600040F004004B49683108600846006840F0B3
:102E7000010008600CE047486830006820F001005D
:102E80004449683108600846006820F00400086082
:102E900000BFA068A8B1FFF771FB054609E0FFF786
:102EA0006DFB401B41F28831884202D9032077E64E
:102EB00026E0384868300068C0F340000028EED0B3
:102EC00013E0FFF75BFB054608E0FFF757FB401BED
:102ED00041F28831884201D9032061E62D486830EB
:102EE0000068C0F340000028EFD1012F07D1294826
:102EF0003830006820F0805026493831086000BF23
:102F0000A069002845D02348006800F00C0008287C
:102F10005DD0A069022845D100201F490866FFF74F
:102F20002DFB054606E0FFF729FB401B022801D9CF
:102F3000032035E6174808380068C0F340600028D1
:102F4000F1D1D4E907010843616A40EA8111012205
:102F5000A06AC2EB500041EA00412C20005D41EA2A
:102F600000600C49091F086001200B490866FFF743
:102F700005FB054606E0FFF701FB401B022801D9CF
:102F800003200DE6034808380068C0F340600028BD
:102F9000F1D049E00838024000004742800E474225
:102FA00000700040002021490866FFF7E7FA054657
:102FB00006E0FFF7E3FA401B022801D90320EFE502
:102FC0001B480068C0F340600028F2D12CE0A069E3
:102FD000012800D1E4E51648001D0668A069012813
:102FE00020D006F48001E06981421BD106F03F0148
:102FF000206A814216D147F6C0703040616AB0EB5A
:10300000811F0FD106F440310122A06AC2EB5000AB
:10301000B1EB004F06D106F070612C20005DB1EBE2
:10302000006F01D00120BBE50020B9E50000474258
:103030000038024010B504460CB9012010BD606A8A
:1030400038B96068B0F5827F00D105E00021E16108
:1030500002E00021216161610021A16294F8510028
:1030600028B9002084F85000204600F047F80220DC
:1030700084F851002068006820F040002168086052
:10308000A08800F48270218901F404410843A189D9
:1030900001F400610843217C01F002010843217D15
:1030A00001F001010843218B01F400710843217FE5
:1030B00001F0380108432021095D01F08001084337
:1030C000218D01F400510843216808600421A069A2
:1030D00001EA104094F8241001F01001084321681F
:1030E00048602068C06920F400602168C861002041
:1030F0006065012084F8510000209FE710B586B07C
:103100000446142101A8FDF74AF91B4920688842AA
:1031100030D100BF002000901848006840F4004003
:10312000164908600846006800F40040009000BF9F
:1031300000BF00BF0020009010481038006840F029
:1031400004000E49103908600846006800F00400C9
:10315000009000BF00BF4FF4E050019002200290A9
:1031600000200390032004900620059001A9044844
:10317000FFF7FCF806B010BD003C004040380240AC
:10318000000802402DE9FE4F04460F4690461D46BA
:103190000C9E01200190FFF7F1F9814694F851B09F
:1031A00060680290AA46BBF1010F0BD00298B0F5FF
:1031B000827F04D1A06810B9BBF1040F02D00220B5
:1031C000BDE8FE8F1FB1B8F1000F00D00DB901208E
:1031D000F6E700BF94F85000012801D10220EFE784
:1031E000012084F8500000BF94F85100042802D058
:1031F000052084F8510000206065C4F83880E58718
:10320000A5872763E586A58620646064206800683A
:1032100000F04000402805D02068006840F04000E1
:1032200021680860E068B0F5006F52D1606810B1A5
:10323000BAF1010F09D1206B00882168C860206BAA
:10324000801C2063E08E401EE0863BE020688068A2
:1032500000F00200022810D1E08E70B10198012820
:103260000BD1206B00882168C860206B801C206314
:10327000E08E401EE086002001902068806800F00B
:10328000010068B1E08F58B12068C068A16B088068
:10329000A06B801CA063E08F401EE087012001909E
:1032A000FFF76CF9A0EB0900B0420BD3701C48B1DA
:1032B000012084F8510000BF002084F8500000BFB6
:1032C00003207DE7E08E0028C0D1E08F0028BDD12B
:1032D00052E0606810B1BAF1010F09D1206B00789B
:1032E00021680873206B401C2063E08E401EE0863E
:1032F0003CE02068806800F00200022810D1E08ED7
:1033000070B1019801280BD1206B007821680873F7
:10331000206B401C2063E08E401EE0860020019060
:103320002068806800F0010068B1E08F58B1206823
:10333000C068A16B0870A06B401CA063E08F401EAA
:10334000E08701200190FFF719F9A0EB0900B042D6
:1033500001D3701C00B94EB9012084F8510000BFA0
:10336000002084F8500000BF032029E7E08E0028E9
:10337000BFD1E08F0028BCD14A463146204601F03B
:10338000A7F840B12020606500BF002084F85000FD
:1033900000BF012014E7A06850B900BF00200090D2
:1033A0002068C068009020688068009000BF00BF5F
:1033B000012084F8510000BF002084F8500000BFB5
:1033C000606D08B10120FBE60020F9E670B5044607
:1033D0002546681EB0F1807F01D301200FE0681EF2
:1033E0004FF0E02148610F214FF0FF3001F08AFDDE
:1033F00000204FF0E021886107200861002070BDA7
:103400007047704710B50346002200BF93F83C0098
:10341000012801D1022010BD012083F83C0000BF2B
:1034200022F0FF00CC6840EA040222F440708C686D
:1034300040EA040222F480604C6840EA040222F46C
:1034400000600C6840EA040222F480500C6940EAF3
:10345000040222F400504C6940EA040222F4804045
:10346000CC6940EA04021868426400BF002083F877
:103470003C0000BF00BFCEE730B502460B4600BFA0
:1034800092F83C00012801D1022030BD012082F8D1
:103490003C0000BF022082F83D00106844681068BC
:1034A000816824F070041868044310684460184D63
:1034B0001068A8421BD01068B0F1804F17D0154D8E
:1034C0001068A84213D0144D1068A8420FD0134DB5
:1034D0001068A8420BD0124D1068A84207D0114DB9
:1034E0001068A84203D0104D1068A84205D121F001
:1034F00080015868014310688160012082F83D0016
:1035000000BF002082F83C0000BF00BFBDE7000004
:10351000000001400004004000080040000C004092
:1035200000040140004001400018004070B504460E
:103530000D4615B994F842000BE0042D02D143204A
:10354000005D06E0082D02D14420005D01E0452029
:10355000005D012801D0012070BD1DB9022084F852
:1035600042000EE0042D03D102214320015508E062
:10357000082D03D102214420015502E002214520FB
:10358000015504222946206801F04FF92068406C5B
:1035900040F40040216848641A49206888421BD0E2
:1035A0002068B0F1804F17D017492068884213D0A7
:1035B0001649206888420FD01549206888420BD0F0
:1035C00014492068884207D013492068884203D0F4
:1035D0001249206888420CD12068806800F00706F4
:1035E000062E0CD02068006840F0010021680860B9
:1035F00005E02068006840F00100216808600020B4
:10360000AAE700000000014000040040000800405C
:10361000000C004000040140004001400018004040
:1036200010B504460CB9012010BD94F83D0028B92E
:10363000002084F83C00204600F026F8022084F8A0
:103640003D00211D206801F06FF8012084F846003C
:1036500000BF84F83E0001213F2001554020015564
:103660004120015500BF00BF012084F842004320E3
:103670000155442001554520015500BF012084F823
:103680003D000020D0E7000038B504461949206805
:1036900088420FD100BF002000901748006840F01A
:1036A0000100154908600846006800F0010000901C
:1036B00000BF1DE011492068884219D100BF0020D9
:1036C00000900D48001F006840F002000A49091FE1
:1036D00008600846006800F00200009000BF00BFCC
:1036E000002203211D20FEF7D7FF1D20FEF7C0FF9B
:1036F00038BD000000000140443802400004004092
:10370000014691F83D00012801D0012070470220B8
:1037100081F83D001A4B086898421BD00868B0F148
:10372000804F17D0174B0868984213D0164B086883
:1037300098420FD0154B086898420BD0144B08687C
:10374000984207D0134B0868984203D0124B086880
:1037500098420CD10868806800F00702062A0CD055
:103760000868006840F001000B68186005E0086810
:10377000006840F001000B6818600020C6E70000F8
:10378000000001400004004000080040000C004020
:10379000000401400040014000180040014691F83B
:1037A0003D00012801D001207047022081F83D0032
:1037B0000868C06840F001000B68D8601A4B0868C0
:1037C00098421BD00868B0F1804F17D0174B08689B
:1037D000984213D0164B086898420FD0154B0868D2
:1037E00098420BD0144B0868984207D0134B0868D6
:1037F000984203D0124B086898420CD10868806840
:1038000000F00702062A0CD00868006840F00100AA
:103810000B68186005E00868006840F001000B685C
:1038200018600020C0E700000000014000040040D4
:1038300000080040000C004000040140004001402E
:10384000001800402DE9F04104460D46002700BF56
:1038500094F83C00012802D10220BDE8F08101204B
:1038600084F83C0000BF022084F83D002068866890
:1038700026F0770626F47F46206886602868502860
:1038800033D00CDC202850D004DC00284BD010288A
:1038900051D149E0302849D040284CD139E0602846
:1038A0002DD0702807D0B0F5805F03D0B0F5005F51
:1038B00041D10DE041E0D5E902136A68206800F0CB
:1038C000C5FF2068866846F077062068866034E089
:1038D000D5E902136A68206800F0B8FF20688068A4
:1038E00040F480402168886027E0EA6869682068C1
:1038F00001F09CF85021206800F0B3FF1DE0EA6859
:103900006968206801F0A5F86021206800F0A9FF2F
:1039100013E0EA686968206801F088F840212068AF
:1039200000F09FFF09E000BF00BF00BF29682068CA
:1039300000F097FF01E0012700BF00BF012084F8DD
:103940003D0000BF002084F83C0000BF384684E7FB
:10395000704770B504462068C5682068066906F09F
:103960000200022819D105F00200022815D1401FDB
:1039700021680861012020772068806900F0030039
:1039800018B12046FFF7E4FF05E0204600F0E8F814
:10399000204600F09CF90020207706F0040004285F
:1039A00019D105F00400042815D1C043216808612D
:1039B000022020772068806900F4407018B120460A
:1039C000FFF7C6FF05E0204600F0CAF8204600F0E9
:1039D0007EF90020207706F00800082819D105F0AC
:1039E0000800082815D1C043216808610420207709
:1039F0002068C06900F0030018B12046FFF7A8FF57
:103A000005E0204600F0ACF8204600F060F9002008
:103A1000207706F01000102819D105F010001028AA
:103A200015D1C04321680861082020772068C0694B
:103A300000F4407018B12046FFF78AFF05E02046E9
:103A400000F08EF8204600F042F90020207706F0C2
:103A5000010048B105F0010030B16FF001002168AC
:103A60000861204600F0BAF906F08000802809D1EC
:103A700005F08000802805D1C043216808612046F8
:103A8000FFF7BEFC06F04000402809D105F04000D9
:103A9000402805D1C04321680861204600F0AEF9F6
:103AA00006F02000202809D105F02000202805D1AB
:103AB000C043216808612046FFF7A3FC70BD0000E9
:103AC00010B586B00446142101A8FCF768FC204913
:103AD000206888423AD100BF002000901D4800684D
:103AE00040F002001B4908600846006800F0020030
:103AF000009000BF00BF00BF002000900846006893
:103B000040F0010008600846006800F001000090E5
:103B100000BF00BF4FF460400190022002900020DF
:103B2000039004900120059001A90B48FEF71EFCAC
:103B30004FF4E06001900220029000200390049076
:103B40000120059001A90548FEF710FC06B010BD44
:103B500000000140303802400004024000000240F2
:103B600070472DE9F04104460D461646002700BF78
:103B700094F83C00012802D10220BDE8F081012028
:103B800084F83C0000BF36B1042E1BD0082E31D083
:103B90000C2E5ED145E02946206800F06BFE2068BF
:103BA000806940F00800216888612068806920F001
:103BB00004002168886120688069296908432168B8
:103BC000886148E02946206800F08CFE2068806902
:103BD00040F40060216888612068806920F480607A
:103BE0002168886120688069296940EA012021688C
:103BF000886130E02946206800F0B2FE2068C06984
:103C000040F008002168C8612068C06920F0040005
:103C10002168C8612068C069296908432168C861B2
:103C200019E02946206800F0D7FE2068C06940F4FA
:103C300000602168C8612068C06920F48060216844
:103C4000C8612068C069296940EA01202168C8610B
:103C500001E0012700BF00BF00BF002084F83C0046
:103C600000BF384689E710B504460CB9012010BDE5
:103C700094F83D0028B9002084F83C00204600F06C
:103C800025F8022084F83D00211D206800F04CFD3D
:103C9000012084F8460000BF84F83E0001213F2047
:103CA0000155402001554120015500BF00BF0120B2
:103CB00084F8420043200155442001554520015518
:103CC00000BF012084F83D000020D0E77047704716
:103CD00070B504460D4615B994F83E000BE0042D6E
:103CE00002D13F20005D06E0082D02D14020005D9A
:103CF00001E04120005D012801D0012070BD1DB907
:103D0000022084F83E000EE0042D03D102213F2062
:103D1000015508E0082D03D102214020015502E0A1
:103D200002214120015501222946206800F06CFD46
:103D300023492068884203D022492068884201D163
:103D4000012000E0002028B12068406C40F40040D1
:103D5000216848641A49206888421BD02068B0F165
:103D6000804F17D018492068884213D0174920681F
:103D700088420FD01649206888420BD0114920682C
:103D8000884207D013492068884203D0124920682E
:103D900088420CD12068806800F00706062E0CD0FF
:103DA0002068006840F001002168086005E0206894
:103DB000006840F001002168086000209EE70000D4
:103DC00000000140000401400004004000080040E1
:103DD000000C0040004001400018004010B50446AF
:103DE00004492068884203D101F063F80249088041
:103DF00010BD00000004004020000020704700BFFC
:103E0000FEE708B50020009002E00098401C0090FA
:103E100000981428F9DB08BD70B50546002401227E
:103E200008211D48FEF7A4FB002617E0012204210B
:103E30001948FEF79DFBFFF7E4FF6006040E08211A
:103E40001548FEF78DFB08B1601CC4B200220421A6
:103E50001148FEF78DFBFFF7D4FF761C082EE5DB3B
:103E60002DB1002208210C48FEF782FB04E001225C
:103E700008210948FEF77CFB012204210648FEF7D1
:103E800077FBFFF7BEFF002204210348FEF770FB1B
:103E9000FFF7B7FF204670BD0000024070B5044632
:103EA000002520E004F0800028B1012208210F48FD
:103EB000FEF75EFB04E0002208210C48FEF758FBE9
:103EC000FFF79FFF012204210848FEF751FBFFF78F
:103ED00098FF002204210548FEF74AFBFFF791FFF7
:103EE0006006040E6D1C082DDCDB70BD0000024076
:103EF00010B5012208210C48FEF73AFB01220421EB
:103F00000948FEF735FBFFF77CFF00220821064831
:103F1000FEF72EFBFFF775FF002204210248FEF793
:103F200027FBFFF76EFF10BD0000024010B5002216
:103F300008210948FEF71CFB012204210648FEF770
:103F400017FBFFF75EFF012208210348FEF710FB75
:103F5000FFF757FF10BD00000000024010B500241D
:103F6000012208211148FEF703FBFFF74AFF012257
:103F700004210E48FEF7FCFAFFF743FF07E0601C40
:103F8000C4B2FA2C03DDFFF7D1FF012010BD0821D8
:103F90000648FEF7E5FA0028F1D100220421034883
:103FA000FEF7E6FAFFF72DFF0020EFE700000240E2
:103FB00000B58FB000200C900D900E9008900990E5
:103FC0000A900B9020216846FCF7E9F92E482F490A
:103FD00008604FF48030486000212C488160012146
:103FE00001610021017680F82010C16228498162B8
:103FF0000021C1600221C161002180F8301001213F
:104000004161FDF7F7FE08B1FCF712FD01200C90AD
:10401000C0030D9000200E900CA91C48FDF740FD38
:1040200008B1FCF705FD05200890012009900A90D1
:1040300008A91648FDF764FD08B1FCF7F9FC10204B
:1040400008900220099008A91048FDF759FD08B111
:10405000FCF7EEFC0A200090012001900490032060
:1040600002904FF480100790002006908DF8150004
:104070008DF81400039069460448FDF7D1F908B1A2
:10408000FCF7D6FC0FB000BD00200140400200202C
:104090000100000F00B58DB0002009900A900B9030
:1040A0000C90202101A8FCF77AF9254825490860E1
:1040B0004FF4803048600021224881600121016175
:1040C0000021017680F82010C1600221C161002129
:1040D00080F8301001214161FDF78CFE08B1FCF73A
:1040E000A7FC0620099001200A900B9009A9154809
:1040F000FDF706FD08B1FCF79BFC0F20099002209C
:104100000A9009A90F48FDF7FBFC08B1FCF790FCE9
:104110000B200190012002900590032003900120C4
:104120008DF8190000208DF81800049001A90548A9
:10413000FDF776F908B1FCF77BFC0DB000BD00007F
:10414000002101408802002008B500BF0020009037
:104150000A48006840F48000084908600846006882
:1041600000F48000009000BF00BF002211463820FC
:10417000FEF792FA3820FEF77BFA08BD303802408D
:1041800000B587B0142102A8FCF709F900BF002090
:1041900001904448006840F0040042490860084625
:1041A000006800F00400019000BF00BF00BF0020C5
:1041B00001900846006840F08000086008460068EA
:1041C00000F08000019000BF00BF00BF0020019000
:1041D0000846006840F0010008600846006800F0EA
:1041E0000100019000BF00BF00BF00200190084601
:1041F000006840F0020008600846006800F0020015
:10420000019000BF00BF00BF002001900846006879
:1042100040F0080008600846006800F008000190BF
:1042200000BF00BF00224FF400511F48FEF7A0F965
:1042300000220C211D48FEF79BF9002241F20401E7
:104240001B48FEF795F94FF40050029001200390AF
:1042500000200490059002A91348FEF787F80C206F
:1042600002901120039000200490059002A90F48AD
:10427000FEF77CF841F20400029001200390002038
:104280000490059002A90A48FEF770F804200290F5
:1042900000200390049002A90648FEF767F807B0D3
:1042A00000BD00003038024000080240000002401B
:1042B00000040240000C024010B50E480E49086090
:1042C0004FF48270486000210B488160C160016139
:1042D00001214161490281610821C161002101621E
:1042E000416281620A21C162FEF7A4FE08B1FCF7B7
:1042F0009FFB10BD003C00403003002000B595B08E
:10430000002011901290139014900F9010901C2187
:1043100008A8FCF744F820216846FCF740F8394823
:10432000394908600020486060213748816041F2C7
:104330006801C1600021016141618161FFF770F98D
:1043400008B1FCF775FB4FF48050119011A92E486D
:10435000FFF778FA08B1FCF76BFB2B48FFF783FCFB
:1043600008B1FCF765FB70200F90002010900FA99A
:104370002548FFF781F808B1FCF75AFB7020089038
:1043800041F26800099000200A900B900C900D906B
:104390000E90002208A91C48FFF7E3FB08B1FCF7C8
:1043A00047FB042208A91848FFF7DBFB08B1FCF71C
:1043B0003FFB082208A91448FFF7D3FB08B1FCF71C
:1043C00037FB782009900C2208A90F48FFF7C9FB9A
:1043D00008B1FCF72DFB00200090019002900390A3
:1043E00004904FF40050059000200790694606485D
:1043F000FFF708F808B1FCF71BFB0348FFF760FB69
:1044000015B000BD000001408803002000B587B052
:1044100000200390049005900690019002901448AB
:10442000144908600420486000211248816045F268
:104430000821C160002101618161FFF7F1F808B135
:10444000FCF7F6FA4FF48050039003A90948FFF7F0
:10445000F9F908B1FCF7ECFA00200190029001A9EB
:104460000448FFF709F808B1FCF7E2FA07B000BD0D
:1044700000040040D003002010B54FF0A0400B49CD
:1044800008600420087102210848C171002181716F
:104490000221417200218172C17201738173C17363
:1044A000FEF74CF908B1FCF7C3FA10BD1804002060
:1044B00000BFFEE7FEF760FB00BFFEE7704770B588
:1044C00004460D46002229462046FEF751F870BDED
:1044D0007CB504460E46154633460122022120468D
:1044E000009500F039F828B1606D40F0200060655B
:1044F00003207CBD164800681821B0FBF1F0154977
:10450000B0FBF1F04FF47A71484301906068B0F568
:10451000827F0DD13346002280212046009500F095
:104520001BF898B1606D40F0200060650320E0E763
:1045300000BF019800B908E00198401E0190206872
:104540008068C0F3C0100028F3D100BF0020D0E77E
:104550002400002040420F002DE9F84F04460D468C
:1045600090461E46DDF82890FEF708F8A0EB0900FB
:10457000371AFEF703F882462C480068C0F3CB30A8
:104580007843009046E0701C002843D0FDF7F6FF0A
:10459000A0EB0A00B84200D2A7BB2068406820F018
:1045A000E000216848606068B0F5827F0DD1A068A6
:1045B000B0F5004F03D0A068B0F5806F05D120683A
:1045C000006820F0400021680860A06AB0F5005F34
:1045D0000DD100BF2068006820F4005021680860F9
:1045E0002068006840F400502168086000BF012086
:1045F00084F8510000BF002084F8500000BF032061
:10460000BDE8F88FFFE7009808B9002702E000989E
:10461000401E0090206880682840A84201D10120F7
:1046200000E000204045AED10020E9E72400002052
:10463000704770B504460D46012229462046FDF715
:1046400097FF70BD10B5FDF79FFF10BD00B593B08B
:10465000302107A8FBF7A3FE142102A8FBF79FFE59
:1046600000BF002001902548006840F08050234999
:1046700008600846006800F08050019000BF00BF4D
:1046800000BF002001901E48006840F480401C4993
:1046900008600846006800F48040019000BF00BF39
:1046A000012007900004089002200D9041050E9112
:1046B00004210F91A821109102211191072112913B
:1046C00007A8FEF769FA08B1FCF7B2F90F200290CB
:1046D00002200390002004904FF4A05005904FF466
:1046E00080500690052102A8FEF726F908B1FCF7D4
:1046F0009FF9FEF7E3F913B000BD00004038024017
:10470000007000400348006840F4700001490860F0
:104710007047000088ED00E010B50248FFF719F976
:1047200010BD0000D003002010B502682B4B98424A
:104730000ED0B0F1804F0BD0294B984208D0294BB6
:10474000984205D0284B984202D0284B984203D17A
:1047500022F070024B681A43204B984220D0B0F1EF
:10476000804F1DD01E4B98421AD01E4B984217D036
:104770001D4B984214D01D4B984211D01C4B9842AF
:104780000ED01C4B98420BD01B4B984208D01B4BB1
:10479000984205D01A4B984202D01A4B984203D146
:1047A00022F44072CB681A4322F080034C6943EA3A
:1047B00004028B68C3620B688362084B984202D084
:1047C0000A4B984201D10B690363036843F0040369
:1047D000036001234361026010BD0000000001403E
:1047E0000004004000080040000C004000040140AC
:1047F00000400140004401400048014000180040D2
:10480000001C00400020004030B501F01F050124CD
:1048100004FA05F3046A9C430462046A01F01F056C
:1048200002FA05F52C43046230BD30B501F00F05E6
:10483000042404FA05F3046A9C430462046A01F048
:104840000F0502FA05F52C43046230BD30B50C4665
:10485000816821F47F4142EA032525432943816091
:1048600030BD0A46816821F0700142F00703194308
:104870008160704730B5026A056A25F0010505625E
:104880004368846924F0700424F003040D682C4309
:1048900022F002028D682A43104DA84200D103E0A5
:1048A0000F4DA84206D100BF22F00802CD682A436E
:1048B00022F00402094DA84202D0094DA84207D1B6
:1048C00023F4807323F400734D692B438D692B43CC
:1048D000436084614D684563026230BD0000014061
:1048E0000004014030B5026A056A25F01005056232
:1048F0004368846924F4E04424F440740D6844EA75
:10490000052422F020028D6842EA0512124DA842C9
:1049100000D103E0114DA84207D100BF22F0800270
:10492000CD6842EA051222F040020B4DA84202D0A7
:104930000A4DA84209D123F4806323F400634D6932
:1049400043EA85038D6943EA8503436084614D68CA
:104950008563026230BD0000000001400004014098
:1049600030B5026A056A25F4807505624368C4693A
:1049700024F0700424F003040D682C4322F4007228
:104980008D6842EA0522124DA84200D103E0114D84
:10499000A84207D100BF22F40062CD6842EA052296
:1049A00022F480620A4DA84202D00A4DA84209D1E1
:1049B00023F4805323F400534D6943EA05138D69B2
:1049C00043EA05134360C4614D68C563026230BDAC
:1049D000000001400004014030B5036A056A25F477
:1049E000805505624468C26922F4E04222F44072B4
:1049F0000D6842EA052223F400538D6843EA05332B
:104A0000084DA84202D0084DA84204D124F48044A5
:104A10004D6944EA85144460C2614D6805640362CF
:104A200030BD0000000001400004014030B50B46DD
:104A30001446026A056A25F001050562816921F0C4
:104A4000F00141EA041122F00A021A438161026274
:104A500030BD30B50B461446026A056A25F01005D4
:104A60000562816921F4704141EA043122F0A0021B
:104A700042EA03128161026230BD00000FB470B5DA
:104A800004469DF81900012818D1A06B20F480304D
:104A9000A063E0681B490840E060E06820F4401033
:104AA000E0609DF82000012803D1E06840F4801008
:104AB000E060204600F028F8054613E0E06840F08A
:104AC0004000E060204600F01FF805469DF81D00FC
:104AD00020B9A06B40F48030A06303E0A06B20F409
:104AE0008030A0639DF81600012807D1A06840F02F
:104AF0000600A060A06840F02000A060284670BCBE
:104B00005DF814FBBFFFBDFF08B501460020009013
:104B100000BF0098401C00900098B0F1706F01D960
:104B2000032008BD086900F000400028F1D00A20E9
:104B3000009002E00098401E009000980028F9D1F3
:104B4000086940F00100086100BF0098401C009017
:104B50000098B0F1706F01D90320E2E7086900F016
:104B600001000028F1D100BFDBE701460A46D2F878
:104B7000000E20F00300C2F8000E40F6040080583A
:104B800040F0020340F6040083500020704700000C
:104B90000FB4F0B5054600272E46002405E000219D
:104BA00005F5827040F82410641C0F2CF7D39DF893
:104BB0002200A0B940F60400805940F0020140F6FE
:104BC00004008151A86B40F40010A863A86B20F486
:104BD0000020A863A86B20F48020A86307E0A86BDE
:104BE00020F40010A863A86B40F40020A863002004
:104BF000C6F8000E9DF81D0001280CD19DF81B0081
:104C000020B90021284600F049F908E00121284692
:104C100000F044F903E00321284600F03FF9102199
:104C2000284600F0D8F800B10127284600F0ABF87C
:104C300000B1012700214FF401608151001D815115
:104C400040F61C00815100242EE006F5106000EBB8
:104C50004410006800F00040B0F1004F10D13CB9A2
:104C60004FF0006106F5106000EB441001600DE0AC
:104C70004FF0904106F5106000EB4410016005E034
:104C8000002106F5106000EB44100160002106F5DC
:104C9000106000EB441001614FF67F3106F51060A3
:104CA00000EB44108160641C9DF81800A042CCD831
:104CB00000242EE006F5306000EB4410006800F0A0
:104CC0000040B0F1004F10D13CB94FF0006106F543
:104CD000306000EB441001600DE04FF0904106F5AC
:104CE000306000EB4410016005E0002106F5306003
:104CF00000EB44100160002106F5306000EB441029
:104D000001614FF67F3106F5306000EB44108160A1
:104D1000641C9DF81800A042CCD84FF40160805963
:104D200020F480714FF4016081510020A8616FF080
:104D3000804068619DF81A0018B9A86940F0100019
:104D4000A861A8690A490843A8619DF81E0018B126
:104D5000A86940F00800A8619DF82200012803D14D
:104D6000A86904490843A8613846F0BC5DF814FB03
:104D700000383C80040000400146886820F00100B3
:104D800088600020704708B501460020009000BFF1
:104D90000098401C00900098B0F1706F01D903207A
:104DA00008BD086900F000400028F1D00020009004
:104DB0001020086100BF0098401C00900098B0F1DE
:104DC000706F01D90320EBE7086900F0100010288C
:104DD000F1D00020E4E708B502460020009000BFB3
:104DE0000098401C00900098B0F1706F01D903202A
:104DF00008BD106900F000400028F1D000200090AC
:104E0000202040EA8110106100BF0098401C0090F3
:104E10000098B0F1706F01D90320E9E7106900F044
:104E200020002028F1D00020E2E70146486900F088
:104E30000100704770B504460E460025E06820F07A
:104E4000C040E060012E10D1E06840F00050E0600A
:104E500000BF0A20FDF776FA0A352046FFF7E5FF86
:104E6000012815D0C82DF4D312E07EB9E06840F0D7
:104E70008040E06000BF0A20FDF764FA0A35204652
:104E8000FFF7D3FF20B1C82DF5D301E0012070BD9D
:104E9000C82D01D10120FAE70020F8E702461346A9
:104EA000D3F800080843C3F800080020704700BF8B
:104EB000FEE770B5FFF71CF86C20FEF7EFFFFFF779
:104EC0004DF80E20FEF7EAFFFFF748F8FFF710F85D
:104ED0006D20FEF7E3FFFFF741F80120FEF79CFF8E
:104EE00004460020FEF798FF0546FFF71FF845EA45
:104EF000042070BD02480068C0F302207047000023
:104F00000CED00E010B5002804DB0A07130E054A7B
:104F1000135406E00A07140E034A00F00F031B1F88
:104F2000D45410BD00E400E018ED00E0FDF738FBBC
:104F3000FFF78CFBFFF724F9FFF706F9FFF7DEF91F
:104F4000FFF7BAF9FFF734F8FFF7A4F8FFF794FA80
:104F5000FFF75CFAFBF788FA00BFFEE74FF04070FE
:104F6000E1EE100A7047000000000000000001029E
:104F700003040607080900000000010203040006FC
:104F80001016000610160000A84F000800000020B0
:104F900040000000C4010008E84F00084000002065
:104FA000200F0000E00100080000320000000000B7
:104FB0000000000000000000204E00000000000083
:104FC0000000000000000000000000000024F400C9
:104FD00000000000100000000100000000000000C0
:084FE0000000000000000000C9
:040000050800018965
:00000001FF
