:020000040800F2
:10000000780D002029020008CD2C0008B127000837
:10001000C92C0008990500082B37000800000000D3
:10002000000000000000000000000000D72C0008C5
:100030008B06000800000000D52C0008D92C000811
:10004000430200084302000843020008430200087C
:10005000430200084302000843020008430200086C
:10006000430200084302000843020008430200085C
:10007000430200084302000843020008430200084C
:10008000430200084302000821040008430200085C
:10009000430200084302000843020008430200082C
:1000A000430200084302000843020008430200081C
:1000B00043020008AD2D0008430200084302000877
:1000C00043020008430200084302000843020008FC
:1000D00043020008430200084302000843020008EC
:1000E00043020008430200084302000843020008DC
:1000F00043020008430200084302000843020008CC
:1001000043020008430200084302000843020008BB
:1001100043020008430200084302000843020008AB
:100120009D0500084302000843020008430200083E
:100130004302000800000000000000004302000825
:10014000430200084302000843020008430200087B
:10015000430200084302000843020008430200086B
:10016000430200084302000843020008430200085B
:1001700043020008430200080000000000000000E5
:10018000430200084302000800F002F800F03CF8C7
:100190000AA090E8000C82448344AAF10107DA45E2
:1001A00001D100F031F8AFF2090EBAE80F0013F0F8
:1001B000010F18BFFB1A43F001031847083600006F
:1001C00028360000103A24BF78C878C1FAD8520700
:1001D00024BF30C830C144BF04680C6070470000C1
:1001E0000023002400250026103A28BF78C1FBD840
:1001F000520728BF30C148BF0B6070471FB503F0DE
:10020000CBFA1FBD10B510BD00F0CFF81146FFF7B7
:10021000F5FF03F0A9FA00F0EDF803B4FFF7F2FFE1
:1002200003BC00F0F5F80000094880470948004782
:10023000FEE7FEE7FEE7FEE7FEE7FEE7FEE7FEE796
:10024000FEE7FEE704480549054A064B70470000F3
:10025000992D00088901000878070020780D0020FA
:10026000780900207809002053EA020C00F0698028
:100270002DE9F04B4FF00006002B1FBFB3FA83F5BA
:1002800003FA05F424FA05F65E4012BF1643B2FAEB
:1002900082F502FA05F4C5F120051EBF22FA05FC1D
:1002A00044EA0C04203556EA044C4FEA144418BFC3
:1002B000641C4FF000084FF00009904271EB030CF2
:1002C00039D3002919BFB1FA81F701FA07F6B0FA5C
:1002D00080F700FA07F6C7F120071EBF20FA07FCD7
:1002E00046EA0C062037B6FBF4FCA7EB0507103FE7
:1002F00007F01F0BCBF120060CFA0BFB2CFA06F6CD
:1003000044BFB3460026202FA4BF5E464FF0000B2B
:100310005BEA060C08BF4FF0010B19EB0B09ABFBB6
:10032000027C48EB0608C01B06FB02CC0BFB03CC8F
:1003300071EB0C01C1E70B46024641464846BDE859
:10034000F08B13B54FF000004FF00001AFF30080C9
:10035000BDE81C4070474FF0000200B513469446BC
:100360009646203922BFA0E80C50A0E80C50B1F10D
:100370002001BFF4F7AF090728BFA0E80C5048BF21
:100380000CC05DF804EB890028BF40F8042B08BFBF
:10039000704748BF20F8022B11F0804F18BF00F8BB
:1003A000012B7047704770477047754600F02CF876
:1003B000AE4605006946534620F00700854618B052
:1003C00020B5FFF73FFFBDE820404FF000064FF09B
:1003D00000074FF000084FF0000B21F00701AC467A
:1003E000ACE8C009ACE8C009ACE8C009ACE8C00999
:1003F0008D46704710B50446AFF300802046BDE837
:100400001040FFF70ABF00000048704714070020A3
:1004100001491820ABBEFEE726000200704700002D
:1004200010B5034800F044FB024800F041FB10BD4A
:10043000100000205800002055494A6822F440323C
:100440004A604A6843681A434A600268526822F464
:10045000807203685A6002685368026943EA0222A4
:1004600003685A600268526822F0407203685A605A
:100470000268526883681A4303685A600268926887
:1004800022F4006203689A6002689268C3681A43A3
:1004900003689A603F4B826A9A4218D00268926859
:1004A00022F0706203689A6002689268836A1A4355
:1004B00003689A600268926822F0405203689A606A
:1004C00002689268C36A1A4303689A600BE0026884
:1004D000926822F0706203689A600268926822F063
:1004E000405203689A600268926822F00202036830
:1004F0009A6002689368027E43EA420203689A6047
:100500002022125CA2B10268526842F400620368C1
:100510005A600268526822F4604203685A600268B6
:100520005368426A521E43EA423203685A6005E049
:100530000268526822F4006203685A600268D26A54
:1005400022F470020368DA620268D36A828B521E58
:1005500043EA02520368DA620268926822F4007287
:1005600003689A600268936890F8302043EA422258
:1005700003689A600268926822F4806203689A6055
:1005800002689368426943EA822203689A6070476E
:10059000002301400100000F00BFFEE710B5024834
:1005A00000F04AFC10BD0000A000002001460878C1
:1005B00010381823B0FBF3F20848805CC865032AA2
:1005C00005D908686FF30900001D886503E0086815
:1005D0006FF309008865886D70470000BA3700081E
:1005E000014600208A6A8B69CBB932B1012A0DD04D
:1005F000022A03D0032A10D10EE000BFCB6A03F019
:100600008073B3F1807F00D1012007E0CB6AB3F1A2
:10061000C07F00D1012001E000E000BF34E08B6921
:10062000B3F5005F1AD132B1012A07D0022A03D0F4
:10063000032A11D10AE000BF01200EE0CB6A03F0CB
:100640008073B3F1807F00D1012006E0CB6AB3F163
:10065000C07F00D1012000E000BF15E032B1012AC7
:1006600005D0022A04D0032A0CD103E000BF00BF4A
:10067000012008E0CB6A03F08073B3F1807F00D1E2
:10068000012000E000BF00BF7047704772B600BF96
:10069000FEE7000030B50246854C8869A04200D0D4
:1006A00000BF00BF92F83C00012801D1022030BDFC
:1006B000012082F83C0000BF0868092816D910689C
:1006C000C0680C780A3C04EB44050724AC40A04306
:1006D0001468E0600C780A3C04EB44048868A0408D
:1006E0001468E46820431468E06013E0106800694F
:1006F0000C7804EB44050724AC40A0431468206147
:100700000C7804EB44048868A040146824692043F2
:10071000146820611068806B20F440101468A06396
:100720001068846B088A401E44EA00501468A06375
:100730000879C01C0C7C001B00EB80041F20A0402B
:100740001468A46B8443106884630879C01C0C7C13
:10075000001B00EB8004088880B2A0401468A46BE2
:1007600020431468A063524C8869A04218D01068D6
:10077000806820F470201468A060106880688C691C
:1007800020431468A0601068806820F4401014684A
:10079000A06010688068CC6920431468A0600BE0FA
:1007A0001068806820F470201468A0601068806869
:1007B00020F440101468A060487D30B11068406893
:1007C00040F480601468606005E01068406820F4C0
:1007D000806014686060087D30B11068406840F443
:1007E00080501468606005E01068406820F4805014
:1007F000146860604868012804D002280FD00328DC
:1008000027D119E0106840696FF30B00146860612C
:1008100010684069CC6820431468606126E0106865
:1008200080696FF30B001468A06110688069CC6860
:1008300020431468A06119E01068C0696FF30B00D1
:100840001468E0611068C069CC6820431468E061F6
:100850000CE01068006A6FF30B00146820621068E7
:10086000006ACC6820431468206200BF00BF114BAF
:10087000114C1068A04206D10868122803D15868AC
:1008800040F4800058600C4C1068A04209D1086800
:10089000102802D00868112803D1586840F40000DD
:1008A000586000BF002082F83C0000BF00BFFEE699
:1008B00001000F00002301400020014070470000AC
:1008C00010B502460B4600BF92F83C00012801D14A
:1008D000022010BD012082F83C0000BF0F4948688B
:1008E00020F01F00486048681C6820434860486842
:1008F00020F44040486048685C682043486048688D
:1009000020F47060486048689C682043486000BFDD
:10091000002082F83C0000BF00BFDAE7002301405E
:1009200038B502460020009000BF92F83C00012834
:1009300001D1022038BD012082F83C0000BF0868C8
:10094000092816D91068C0680C780A3C04EB4405E5
:100950000724AC40A0431468E0600C780A3C04EB28
:1009600044048868A0401468E46820431468E06088
:1009700013E0106800690C7804EB44050724AC40D0
:10098000A043146820610C7804EB44048868A040FC
:10099000146824692043146820614868072817D226
:1009A0001068406B0C79641E04EB84051F24AC4076
:1009B000A04314686063088880B20C79641E04EB5D
:1009C0008404A0401468646B20431468606331E0C1
:1009D00048680D2817D21068006B0C79E41F04EBEF
:1009E00084051F24AC40A04314682063088880B2AB
:1009F0000C79E41F04EB8404A0401468246B2043AA
:100A00001468206316E01068C06A0C790D3C04EB92
:100A100084051F24AC40A0431468E062088880B2BB
:100A20000C790D3C04EB8404A0401468E46A204374
:100A30001468E062194B1A4C1068A04206D108688D
:100A4000122803D1586840F480005860144C106894
:100A5000A0421CD10868102802D00868112816D1BD
:100A6000586840F400005860086810280FD10D48FD
:100A700000680D4CB0FBF4F000EB800040000090EB
:100A800002E00098401E009000980028F9D100BFB5
:100A9000002082F83C0000BF00BF4BE7002301406C
:100AA000002001400000002040420F0070477047C6
:100AB0002DE9F041044600250026206807682068DB
:100AC000D0F8048007F0020508F0200695B38EB335
:100AD000206C00F0100018B9206C40F40070206405
:100AE0002068806800F04050E8B9207ED8B92068BE
:100AF000C06A00F4700020B12068806800F4806053
:100B000088B92068406820F0200021684860206C87
:100B100020F480702064206C00F4805018B9206CA0
:100B200040F0010020642046FFF7C0FF6FF0120084
:100B30002168086007F0040508F08006E5B3DEB31D
:100B4000206C00F0100018B9206C40F400502064B4
:100B50002068806800F4401038BB2068806B00F487
:100B6000401020B12068806800F48060E8B92068F7
:100B7000406800F48060C0B92068806800F0405090
:100B800098B9207E88B92068406820F080002168EC
:100B90004860206C20F480502064206C00F4807049
:100BA00018B9206C40F0010020642046FFF786FE53
:100BB0006FF00C002168086007F0010508F040069E
:100BC00085B17EB12068006800F0010050B1206C52
:100BD00040F480302064204600F050F86FF00100AF
:100BE0002168086007F0200508F080667DB176B1C5
:100BF000606C40F0020060646FF0200021680860C3
:100C00002046FFF754FF6FF0200021680860BDE820
:100C1000F081000070B5044600250CB9012070BDBC
:100C20001549A06A884200D000BF206C30B9204628
:100C300000F026F80020606484F83C00206C00F08E
:100C4000100088B9206C20F4885040F00200206425
:100C50002046FFF7F1FB00206064206C20F00200CA
:100C600040F00100206400E0012500BF002084F86E
:100C70003C0000BF2846D2E70100000F704700008B
:100C800010B586B00446142101A8FFF764FB634940
:100C9000206888426ED100BF002000906048006844
:100CA00040F480705E4908600846006800F4807077
:100CB000009000BF00BF00BF0020009058481438CB
:100CC000006840F00400564914390860084600687E
:100CD00000F00400009000BF00BF00BF00200090A3
:100CE0000846006840F0010008600846006800F00F
:100CF0000100009000BF00BF01200190032002907E
:100D00000020039001A9474800F040FA20200190FC
:100D1000032002900020039001A9434800F036FA16
:100D200042484349086000204860002140488160F3
:100D3000C1604FF480610161890041618900816176
:100D40008911C1614FF4403101620021416200F01C
:100D500093F908B1FFF79AFC00BF3548A06384639C
:100D600000BF00221146122000F09EFB122000F06E
:100D700087FB50E02F49206888424CD100BF0020FB
:100D800000902748006840F4007025490860084634
:100D9000006800F40070009000BF00BF00BF00209A
:100DA00000901F481438006840F004001C491439B2
:100DB00008600846006800F00400009000BF00BF13
:100DC00000BF002000900846006840F00100086065
:100DD0000846006800F00100009000BF00BF22201C
:100DE0000190032002900020039001A90D4800F01B
:100DF000CDF940200190032002900020039001A92A
:100E0000094800F0C3F900221146122000F04CFB03
:100E1000122000F035FB06B010BD0000002001409C
:100E200044380240000802400000024010640240C2
:100E3000A000002000210140F8B5044600200090E9
:100E40008C4800684FF41651B0FBF1F7A56D2E6881
:100E500094F85C1008208840304098B12068006801
:100E600000F0040070B12068006820F004002168E0
:100E7000086094F85C1008208840A860606D40F01D
:100E80000100606594F85C1001208840304068B132
:100E90002068406900F0800040B194F85C100120A7
:100EA0008840A860606D40F00200606594F85C10B6
:100EB00004208840304068B12068006800F00200DB
:100EC00040B194F85C1004208840A860606D40F048
:100ED0000400606594F85C1010208840304078B3BE
:100EE0002068006800F0080050B394F85C101020EF
:100EF0008840A8602068006800F4802080B12068E5
:100F0000006800F4002028B9206CC8B12046216C8C
:100F1000884715E0A06C98B12046A16C88470FE087
:100F20002068006800F4807028B92068006820F00C
:100F3000080021680860206C10B12046216C8847A9
:100F400094F85C10202088403040002865D020684C
:100F5000006800F0100000285FD094F85C1020209A
:100F60008840A86094F83500052828D120680068DA
:100F700020F01600216808602068406920F0800099
:100F800021684861206C08B9A06C28B1206800680D
:100F900020F008002168086094F85C103F20884029
:100FA000A860012084F8350000BF002084F83400D8
:100FB00000BF206D10B12046216D8847F8BD206824
:100FC000006800F4802080B12068006800F40020F0
:100FD00028B9606C10B12046616C88471DE0E06B59
:100FE000D8B12046E16B884717E02068006800F41C
:100FF000807068B92068006820F0100021680860DF
:10100000012084F8350000BF002084F8340000BFC0
:10101000E06B10B12046E16B8847606D38B3606DBE
:1010200000F00100F0B1052084F835002068006868
:1010300020F001002168086000BF0098401C00906B
:10104000B84200D905E02068006800F001000028DF
:10105000F3D100BF012084F8350000BF002084F8E0
:10106000340000BFE06C10B12046E16C884700BF3F
:10107000A4E70000000000202DE9F041044600250F
:1010800000F084F9074614B90120BDE8F081606AD8
:1010900000B100BF022084F8350000BF002084F8B2
:1010A000340000BF2068006820F00100216808605B
:1010B0000AE000F06BF9C01B052805D92020606507
:1010C000032084F83500E0E72068006800F00100A4
:1010D0000028EED12068056821480540D4E90101C7
:1010E0000843E16808432169084361690843A1692D
:1010F0000843E1690843216A08430543606A0428FC
:1011000003D1D4E90B01084305432068056020683A
:10111000456925F00705606A0543606A04280DD11A
:10112000A06A0543E06A48B12046FFF759FA28B1A2
:1011300040206065012084F83500A6E720684561FD
:101140002046FFF733FA064694F85C103F208840AB
:10115000B06000206065012084F83500002094E72D
:101160003F8010F070B5044600F010F906462546A1
:10117000681C10B104480078054400BF00F006F96F
:10118000801BA842FAD370BD0C000020F8B50246BF
:101190000B460025002400200021D6E0012606FA97
:1011A00001F51E6806EA0504AC4274D11E7906F00A
:1011B0000306012E04D01E7906F00306022E13D179
:1011C00090684F000326BE40B0434F00DE68BE402B
:1011D00030439060506801268E40B0431E79C6F3BC
:1011E00000168E40304350601E7906F00306032E31
:1011F00009D0D0684F000326BE40B0434F009E6820
:10120000BE403043D0601E7906F00306022E13D193
:10121000CF0802F1200656F827004E07F70E0F26DA
:10122000BE40B0434F07FF0E1E69BE403043CF089B
:1012300002F1200646F8270010684F000326BE4042
:10124000B0431E7906F003064F00BE4030431060E5
:101250005E6806F44036002E76D000BF0026009669
:101260003C4E366846F480463A4F3E603E4636680D
:1012700006F48046009600BF00BF374E8F0856F830
:1012800027008E07370F0F26BE40B043334EB242C1
:1012900002D1002624E057E0314EB24201D10126AE
:1012A0001EE0304EB24201D1022619E02E4EB2426B
:1012B00001D1032614E02D4EB24201D104260FE0E5
:1012C0002B4EB24201D105260AE02A4EB24201D18C
:1012D000062605E0284EB24201D1072600E0082686
:1012E0008F073F0FBE4030431B4E8F0846F8270044
:1012F000224E3068A0435E6806F4801606B1204393
:101300001E4E3060361D3068A0435E6806F400163D
:1013100006B12043194E361D3060184E361F306816
:10132000A0435E6806F4003606B12043134E361F14
:101330003060361F3068A0435E6806F4803606B120
:1013400020430E4E083E3060491C1029FFF426AFA2
:10135000F8BD000044380240083801400000024057
:101360000004024000080240000C0240001002404D
:101370000014024000180240001C0240083C0140DA
:101380000AB1816101E00B04836170470148006884
:1013900070470000040000200348006803490978F2
:1013A0000844014908607047040000200C00002038
:1013B00010B50D48006840F400700B4908600846FD
:1013C000006840F4806008600846006840F480705F
:1013D0000860032000F0A6F80F2000F007F800F0E6
:1013E0002BF8002010BD0000003C024070B5044600
:1013F0000E4800784FF47A71B1FBF0F00C4909689F
:10140000B1FBF0F5284600F0EBFD08B1012070BDFE
:10141000102C07D200222146501E00F045F8054846
:10142000046001E00120F2E70020F0E70C0000205A
:10143000000000200800002008B500BF0020009038
:101440000E48006840F480400C4908600846006877
:1014500000F48040009000BF00BF00BF002000905B
:10146000081F006840F08050091F086008460068A7
:1014700000F08050009000BF00BF08BD443802401B
:101480000146084600280DDB00BF00BF00F01F0327
:1014900001229A4043099B0003F1E023C3F8002195
:1014A00000BF00BF00BF70472DE9F05F80460D46CA
:1014B0001646002702F03CF9074639462A463346CD
:1014C00001F00700C0F1070ABAF1040F02D94FF08A
:1014D000040A01E0C0F1070AD14600F1040ABAF19A
:1014E000070F02D24FF0000A01E0A0F1030AD44630
:1014F0004FF0010A0AFA09FAAAF1010A0AEA020AF5
:101500000AFA0CFA4FF0010B0BFA0CFBABF1010BD2
:101510000BEA030B4AEA0B042146404602F010F99D
:10152000BDE8F09F00BF00F00702064B19684FF6B8
:10153000FF031940044B0B4343EA0221014B19609E
:1015400000BF70470CED00E00000FA05F8B5044656
:101550000CB90120F8BD266894F8950428B900203C
:1015600084F89404204600F0A1F8032084F8950440
:10157000B6F1A04F01D10021A171206802F03AF824
:10158000207C8DF8000094E80F0001F0B5FE20B13A
:10159000022084F895040120DCE70021206802F095
:1015A00087F820B1022084F895040120D2E70025B5
:1015B00031E0012105EBC50204F1140000EB8200CB
:1015C000417005EBC50104F1140000F8215005EB52
:1015D000C50100EB81004583002105EBC50204F144
:1015E000140000EB8200017105EBC50204F1140048
:1015F00000EB8200816005EBC50204F1140000EBF2
:101600008200C16005EBC50204F1140000EB82000A
:101610000161681CC5B22079A842CADC00252AE015
:10162000002105EBC50204F5157000EB8200417046
:1016300005EBC50104F5157000F82150002105EBFC
:10164000C50200EB8200017105EBC50204F51570BF
:1016500000EB8200816005EBC50204F5157000EB1C
:101660008200C16005EBC50204F5157000EB820035
:101670000161681CC5B22079A842D1DC207C8DF8BC
:10168000000094E80F0001F0C1FE20B1022084F8B0
:10169000950401205EE700206074012084F8950421
:1016A000206801F0A0FE002054E7000010B586B0CD
:1016B0000446142101A8FEF74EFE2068B0F1A04FA9
:1016C0003AD100BF002000901C48006840F00100A3
:1016D0001A4908600846006800F00100009000BF49
:1016E00000BF4FF4C05001900220029000200390F0
:1016F000032004900A20059001A91148FFF746FD38
:1017000000BF0E48001D006840F080000B49091D15
:10171000086000BF0020009008481430006840F4C2
:1017200080400649143108600846006800F4804093
:10173000009000BF00BF00BF06B010BD30380240AF
:10174000000002407047000070B504460D460CB919
:10175000012070BD5848006800F00700A84209D277
:1017600055490D700846006800F00700A84201D0F6
:101770000120EEE7207800F0020002281DD1207839
:1017800000F00400042805D14C48006840F4E05003
:101790004A490860207800F00800082805D1474829
:1017A000006840F46040454908604448006820F003
:1017B000F000A168084341490860207800F001006A
:1017C000A8B36068012807D13C4808380068C0F316
:1017D0004040B8B90120BCE76068022802D06068C8
:1017E000032807D1354808380068C0F3406048B97D
:1017F0000120AEE7314808380068C0F3400008B95E
:101800000120A6E72D48006820F003006168084326
:101810002A490860FFF7BAFD064609E0FFF7B6FD62
:10182000801B41F28831884202D9032091E707E00A
:101830002248006800F00C006168B0EB810FEDD128
:101840001D48006800F00700A84209D91A490D7028
:101850000846006800F00700A84201D0012078E7A0
:10186000207800F00400042807D11448006820F410
:10187000E050E168084311490860207800F0080052
:10188000082808D10D48006820F46040216940EA2A
:10189000C1000A49086000F045F808490968C1F329
:1018A0000311074A515CC8400649086006480068B1
:1018B000FFF79CFD00204CE7003C02400838024046
:1018C000A237000800000020080000200120014984
:1018D000C864704700004742014800687047000034
:1018E0000000002000B5FFF7F7FF04490968C1F3C5
:1018F0008221034A515CC84000BD00000838024004
:10190000B237000800B5FFF7E7FF04490968C1F3E3
:101910004231034A515CC84000BD00000838024013
:10192000B23700082DE9F047002400250026A14623
:101930002548006800F00C0020B1042805D00828D4
:101940003AD105E0DFF8849039E0DFF8849036E0A2
:101950001D48001F006800F03F041B48001F00687E
:1019600000F4800078B11A481749091F0968C1F3CB
:101970008811A0FB01700146224600233846FEF77D
:1019800073FC05460EE011480F49091F0968C1F3B1
:101990008811A0FB01700146224600233846FEF75D
:1019A00063FC05460848001F0068C0F30140401C66
:1019B0004600B5FBF6F902E0DFF8109000BF00BF6B
:1019C0004846BDE8F0870000083802400024F400D3
:1019D00000127A0010B50648006800F080008028E8
:1019E00005D1FFF7AFFE80200149891C087010BDAA
:1019F0000C380240F8B504460CB90120F8BD207837
:101A000000F00100002874D0F948006800F00C00D4
:101A100004280DD0F648006800F00C00082813D107
:101A2000F348001F006800F48000B0F5800F0BD170
:101A3000EF4808380068C0F34040002859D060687B
:101A4000002856D10120D9E700BF6068B0F5803F7B
:101A500008D1E7480838006840F48030E449083984
:101A600008601EE06068B0F5A02F0DD1E04808388E
:101A7000006840F48020DE490839086008460068A4
:101A800040F4803008600CE0D9480838006820F441
:101A90008030D749083908600846006820F4802063
:101AA000086000BF606890B1FFF770FC054606E073
:101AB000FFF76CFC401B642801D903209EE7CC484B
:101AC00008380068C0F340400028F1D011E0FFF76B
:101AD0005DFC054606E0FFF759FC401B642801D970
:101AE00003208BE7C24808380068C0F34040002854
:101AF000F1D1207800F0020002285FD1BC480068D4
:101B000000F00C0058B1BA48006800F00C0008283A
:101B10001CD1B748001F006800F48000B0B9B44879
:101B200008380068C0F3400020B1E068012801D007
:101B3000012063E7AE480838006820F0F80021690A
:101B400040EAC100AA490839086037E0E06800B3FC
:101B50000120A8490860FFF719FC054606E0FFF7D9
:101B600015FC401B022801D9032047E7A04808388C
:101B70000068C0F340000028F1D09D480838006894
:101B800020F0F800216940EAC1009949083908604D
:101B900014E0002097490860FFF7F8FB054606E0CF
:101BA000FFF7F4FB401B022801D9032026E79048E9
:101BB00008380068C0F340000028F1D1207800F018
:101BC000080008282CD16069A8B101208A49086062
:101BD000FFF7DCFB054606E0FFF7D8FB401B0228B9
:101BE00001D903200AE782486C300068C0F3400046
:101BF0000028F1D014E000207F490860FFF7C6FB01
:101C0000054606E0FFF7C2FB401B022801D903206E
:101C1000F4E677486C300068C0F340000028F1D14A
:101C2000207800F00400042870D100277048383074
:101C3000006800F0805090B900BF002000906C4810
:101C40003830006840F080506949383108600846F3
:101C5000006800F08050009000BF00BF0127674877
:101C6000006800F48070B0B96448006840F4807087
:101C700062490860FFF78AFB054606E0FFF786FB2E
:101C8000401B022801D90320B8E65C48006800F434
:101C900080700028F2D000BFA068012808D1544805
:101CA0006830006840F001005149683108601DE06B
:101CB000A06805280DD14E486830006840F0040047
:101CC0004B49683108600846006840F00100086030
:101CD0000CE047486830006820F001004449683152
:101CE00008600846006820F00400086000BFA06893
:101CF000A8B1FFF74BFB054609E0FFF747FB401B88
:101D000041F28831884202D9032077E626E038483C
:101D100068300068C0F340000028EED013E0FFF701
:101D200035FB054608E0FFF731FB401B41F28831E7
:101D3000884201D9032061E62D4868300068C0F36D
:101D400040000028EFD1012F07D129483830006822
:101D500020F0805026493831086000BFA069002873
:101D600045D02348006800F00C0008285DD0A06929
:101D7000022845D100201F490866FFF707FB0546EA
:101D800006E0FFF703FB401B022801D9032035E6DC
:101D9000174808380068C0F340600028F1D1D4E942
:101DA00007010843616A40EA81110122A06AC2EB7F
:101DB000500041EA00412C20005D41EA00600C49DE
:101DC000091F086001200B490866FFF7DFFA054686
:101DD00006E0FFF7DBFA401B022801D903200DE6DD
:101DE000034808380068C0F340600028F1D049E09B
:101DF0000838024000004742800E47420070004011
:101E0000002021490866FFF7C1FA054606E0FFF702
:101E1000BDFA401B022801D90320EFE51B480068EA
:101E2000C0F340600028F2D12CE0A069012800D165
:101E3000E4E51648001D0668A069012820D006F4D4
:101E40008001E06981421BD106F03F01206A814296
:101E500016D147F6C0703040616AB0EB811F0FD1D8
:101E600006F440310122A06AC2EB5000B1EB004FF2
:101E700006D106F070612C20005DB1EB006F01D03F
:101E80000120BBE50020B9E50000474200380240D0
:101E900010B504460CB9012010BD606A38B96068FD
:101EA000B0F5827F00D105E00021E16102E0002170
:101EB000216161610021A16294F8510028B90020DC
:101EC00084F85000204600F047F8022084F85100C2
:101ED0002068006820F0400021680860A08800F4B5
:101EE0008270218901F404410843A18901F4006151
:101EF0000843217C01F002010843217D01F001012A
:101F00000843218B01F400710843217F01F038015F
:101F100008432021095D01F080010843218D01F46F
:101F200000510843216808600421A06901EA1040BB
:101F300094F8241001F010010843216848602068DB
:101F4000C06920F400602168C8610020606501203C
:101F500084F8510000209FE710B586B00446142194
:101F600001A8FEF7F8F91B492068884230D100BF6C
:101F7000002000901848006840F4004016490860AE
:101F80000846006800F40040009000BF00BF00BF9A
:101F90000020009010481038006840F004000E49FE
:101FA000103908600846006800F00400009000BF87
:101FB00000BF4FF4E05001900220029000200390F7
:101FC000032004900620059001A90448FFF7DEF8DD
:101FD00006B010BD003C00404038024000080240FE
:101FE00070B504462546681EB0F1807F01D30120FC
:101FF0000FE0681E4FF0E02148610F214FF0FF30E5
:1020000001F09EFB00204FF0E0218861072008616D
:10201000002070BD7047704710B50346002200BF16
:1020200093F83C00012801D1022010BD012083F863
:102030003C0000BF22F0FF00CC6840EA040222F41A
:1020400040708C6840EA040222F480604C6840EAE8
:10205000040222F400600C6840EA040222F480507A
:102060000C6940EA040222F400504C6940EA040280
:1020700022F48040CC6940EA04021868426400BF40
:10208000002083F83C0000BF00BFCEE730B5024619
:102090000B4600BF92F83C00012801D1022030BD60
:1020A000012082F83C0000BF022082F83D00106849
:1020B00044681068816824F070041868044310684C
:1020C0004460184D1068A8421BD01068B0F1804FD2
:1020D00017D0154D1068A84213D0144D1068A842AF
:1020E0000FD0134D1068A8420BD0124D1068A842B3
:1020F00007D0114D1068A84203D0104D1068A842B7
:1021000005D121F0800158680143106881600120E9
:1021100082F83D0000BF002082F83C0000BF00BFF5
:10212000BDE700000000014000040040000800403E
:10213000000C004000040140004001400018004035
:1021400010B504460CB9012010BD94F83D0028B923
:10215000002084F83C00204600F026F8022084F895
:102160003D00211D206800F029FE012084F8460072
:1021700000BF84F83E0001213F2001554020015559
:102180004120015500BF00BF012084F842004320D8
:102190000155442001554520015500BF012084F818
:1021A0003D000020D0E7000038B5044619492068FA
:1021B00088420FD100BF002000901748006840F00F
:1021C0000100154908600846006800F00100009011
:1021D00000BF1DE011492068884219D100BF0020CE
:1021E00000900D48001F006840F002000A49091FD6
:1021F00008600846006800F00200009000BF00BFC1
:10220000002203211D20FFF74FF91D20FFF738F9A9
:1022100038BD000000000140443802400004004086
:102220002DE9F04104460D46002700BF94F83C001C
:10223000012802D10220BDE8F081012084F83C0091
:1022400000BF022084F83D002068866826F07706EB
:1022500026F47F46206886602868502833D00CDC3E
:10226000202850D004DC00284BD0102851D149E060
:10227000302849D040284CD139E060282DD0702832
:1022800007D0B0F5805F03D0B0F5005F41D10DE01D
:1022900041E0D5E902136A68206800F0FFFD20687C
:1022A000866846F077062068866034E0D5E9021338
:1022B0006A68206800F0F2FD2068806840F4804081
:1022C0002168886027E0EA686968206800F0D6FE27
:1022D0005021206800F0EDFD1DE0EA686968206883
:1022E00000F0DFFE6021206800F0E3FD13E0EA6803
:1022F0006968206800F0C2FE4021206800F0D9FD26
:1023000009E000BF00BF00BF2968206800F0D1FDD0
:1023100001E0012700BF00BF012084F83D0000BF9D
:10232000002084F83C0000BF384684E7704770B551
:1023300004462068C5682068066906F00200022885
:1023400019D105F00200022815D1401F216808614B
:10235000012020772068806900F0030018B1204632
:10236000FFF7E4FF05E0204600F0E8F8204600F023
:102370009CF90020207706F00400042819D105F00C
:102380000400042815D1C043216808610220207789
:102390002068806900F4407018B12046FFF7C6FF3E
:1023A00005E0204600F0CAF8204600F07EF9002043
:1023B000207706F00800082819D105F00800082841
:1023C00015D1C04321680861042020772068C069C6
:1023D00000F0030018B12046FFF7A8FF05E02046F3
:1023E00000F0ACF8204600F060F90020207706F0FD
:1023F0001000102819D105F01000102815D1C04385
:1024000021680861082020772068C06900F44070C6
:1024100018B12046FFF78AFF05E0204600F08EF84D
:10242000204600F042F90020207706F0010048B174
:1024300005F0010030B16FF001002168086120460D
:1024400000F034F906F08000802809D105F0800002
:10245000802805D1C043216808612046FFF7DAFDD6
:1024600006F04000402809D105F04000402805D181
:10247000C04321680861204600F019F906F02000E9
:10248000202809D105F02000202805D1C04321686B
:1024900008612046FFF7BFFD70BD000010B586B093
:1024A0000446142101A8FDF756FF20492068884200
:1024B0003AD100BF002000901D48006840F00200A3
:1024C0001B4908600846006800F00200009000BF49
:1024D00000BF00BF002000900846006840F00100E7
:1024E00008600846006800F00100009000BF00BFCF
:1024F0004FF460400190022002900020039004906D
:102500000120059001A90B48FEF740FE4FF4E06062
:102510000190022002900020039004900120059079
:1025200001A90548FEF732FE06B010BD00000140CB
:1025300030380240000402400000024070472DE99C
:10254000F04104460D461646002700BF94F83C00B3
:10255000012802D10220BDE8F081012084F83C006E
:1025600000BF36B1042E1BD0082E31D00C2E5ED108
:1025700045E02946206800F0A5FC2068806940F00D
:102580000800216888612068806920F004002168C3
:10259000886120688069296908432168886148E06A
:1025A0002946206800F0C6FC2068806940F400607D
:1025B000216888612068806920F4806021688861D2
:1025C00020688069296940EA01202168886130E03B
:1025D0002946206800F0ECFC2068C06940F0080043
:1025E0002168C8612068C06920F004002168C861C2
:1025F0002068C069296908432168C86119E0294633
:10260000206800F011FD2068C06940F40060216876
:10261000C8612068C06920F480602168C8612068B2
:10262000C069296940EA01202168C86101E00127E9
:1026300000BF00BF00BF002084F83C0000BF384648
:1026400089E710B504460CB9012010BD94F83D008F
:1026500028B9002084F83C00204600F025F802202C
:1026600084F83D00211D206800F0A8FB012084F8BB
:10267000460000BF84F83E0001213F200155402064
:1026800001554120015500BF00BF012084F84200E0
:1026900043200155442001554520015500BF01202C
:1026A00084F83D000020D0E77047704770477047BE
:1026B00010B504460CB9012010BDA06900B100E0BE
:1026C00000BF94F8410028B9002084F8400020465B
:1026D00000F02AF8242084F841002068C06820F423
:1026E00000502168C860204600F0F0FC20680069B6
:1026F00020F49040216808612068406920F02A0099
:10270000216848612068C06840F400502168C860B2
:1027100000206064202084F8410084F842000020FA
:10272000606300BFC8E7000010B586B004461421FE
:1027300001A8FDF710FE1B49206888422FD100BF79
:10274000002000901848006840F4003016490860E6
:102750000846006800F40030009000BF00BF00BFD2
:102760000020009010481038006840F001000E4929
:10277000103908600846006800F00100009000BFB2
:1027800000BF0C2001900220029000200390032043
:1027900004900720059001A90448FEF7F7FC06B055
:1027A00010BD0000004400404038024000000240DC
:1027B00000BFFEE700B58FB000200C900D900E908A
:1027C000089009900A900B9020216846FDF7C3FD00
:1027D0002E482F4908604FF48030486000212C4873
:1027E0008160012101610021017680F82010C16221
:1027F000284981620021C1600221C161002180F865
:10280000301001214161FEF705FA08B1FDF73EFFE6
:1028100001200C90C0030D9000200E900CA91C48C4
:10282000FEF74EF808B1FDF731FF052008900120B2
:1028300009900A9008A91648FEF772F808B1FDF74A
:1028400025FF102008900220099008A91048FEF7E3
:1028500067F808B1FDF71AFF0A20009001200190E7
:10286000049002200290C0040790002006908DF88A
:1028700015008DF81400039069460548FDF70AFF1E
:1028800008B1FDF703FF0FB000BD000000200140BC
:10289000100000200100000F00B58DB0002009904D
:1028A0000A900B900C90202101A8FDF754FD2548BB
:1028B000254908604FF4803048600021224881603B
:1028C000012101610021017680F82010C160022100
:1028D000C161002180F8301001214161FEF79AF9B1
:1028E00008B1FDF7D3FE0620099001200A900B9055
:1028F00009A91548FEF714F808B1FDF7C7FE0F2027
:10290000099002200A9009A90F48FEF709F808B1BA
:10291000FDF7BCFE0B2001900120029005900220E3
:10292000039001208DF8190000208DF81800049004
:1029300001A90548FDF7AEFE08B1FDF7A7FE0DB0F1
:1029400000BD0000002101405800002008B500BF74
:10295000002000900A48006840F4800008490860A0
:102960000846006800F48000009000BF00BF00220D
:1029700011463820FEF798FD3820FEF781FD08BD8E
:102980003038024000B587B0142102A8FDF7E3FCFF
:1029900000BF002001903C48006840F004003A4924
:1029A00008600846006800F00400019000BF00BF06
:1029B00000BF002001900846006840F080000860D9
:1029C0000846006800F08000019000BF00BF00BF13
:1029D000002001900846006840F0010008600846A9
:1029E000006800F00100019000BF00BF00BF0020A0
:1029F00001900846006840F0020008600846006840
:102A000000F00200019000BF00BF00BF0020019055
:102A10000846006840F0080008600846006800F0BA
:102A20000800019000BF00BF00224FF4005117487A
:102A3000FEF7A6FC002241F204011548FEF7A0FCB7
:102A40004FF4005002900120039000200490059064
:102A500002A90E48FEF79AFB41F204000290012001
:102A6000039000200490059002A90948FEF78EFB10
:102A70000420029000200390049002A90548FEF76C
:102A800085FB07B000BD000030380240000802405E
:102A900000040240000C024010B50E480E490860C8
:102AA0004FF48270486000210B488160C160016171
:102AB00001214161490281611021C161002101624E
:102AC000416281620A21C162FFF7E2F908B1FDF7B4
:102AD000DDFD10BD003C00400001002000B595B0B8
:102AE000002011901290139014900F9010901C21C0
:102AF00008A8FDF730FC20216846FDF72CFC39487A
:102B0000394908600020486060213748816041F2FF
:102B10006801C1600021016141618161FFF710FB23
:102B200008B1FDF7B3FD4FF48050119011A92E4864
:102B3000FFF776FB08B1FDF7A9FD2B48FFF781FDF4
:102B400008B1FDF7A3FD70200F90002010900FA991
:102B50002548FFF79BFA08B1FDF798FD7020089013
:102B600041F26800099000200A900B900C900D90A3
:102B70000E90002208A91C48FFF7E1FC08B1FDF700
:102B800085FD042208A91848FFF7D9FC08B1FDF714
:102B90007DFD082208A91448FFF7D1FC08B1FDF714
:102BA00075FD782009900C2208A90F48FFF7C7FC93
:102BB00008B1FDF76BFD002000900190029003909A
:102BC00004904FF400500590002007906946064895
:102BD000FFF722FA08B1FDF759FD0348FFF75EFC45
:102BE00015B000BD000001405801002000B587B0BD
:102BF00000200390049005900690019002901448E4
:102C0000144908600420486000211248816045F2A0
:102C10000821C160002101618161FFF791FA08B1CB
:102C2000FDF734FD4FF48050039003A90948FFF7E6
:102C3000F7FA08B1FDF72AFD00200190029001A9E2
:102C40000448FFF723FA08B1FDF720FD07B000BDE7
:102C500000040040A001002010B50B480B4908609B
:102C60004FF4E1304860002108488160C160016193
:102C70000C21416100218161C161FFF719FD08B19B
:102C8000FDF704FD10BD000000440040E8010020F5
:102C900010B54FF0A0400B490860042008710221D4
:102CA0000848C171002181710221417200218172A5
:102CB000C17201738173C173FEF748FC08B1FDF75F
:102CC000E5FC10BD3002002000BFFEE7FEF782FEEB
:102CD00000BFFEE77047704710B5FEF75DFB10BD03
:102CE00000B593B0302107A8FDF735FB142102A8E9
:102CF000FDF731FB00BF002001902548006840F03F
:102D00008050234908600846006800F08050019018
:102D100000BF00BF00BF002001901E48006840F4C3
:102D200080401C4908600846006800F4804001901B
:102D300000BF00BF012007900004089002200D9002
:102D400041050E9104210F91A821109102211191AA
:102D50000721129107A8FEF74DFE08B1FDF796FC7A
:102D60000F20029002200390002004904FF4A05006
:102D700005904FF480500690052102A8FEF7E4FC70
:102D800008B1FDF783FCFEF7A1FD13B000BD000004
:102D900040380240007000400348006840F4700072
:102DA000014908607047000088ED00E010B5024856
:102DB000FFF7BDFA10BD0000A001002010B50268A9
:102DC0002B4B98420ED0B0F1804F0BD0294B98423C
:102DD00008D0294B984205D0284B984202D0284B66
:102DE000984203D122F070024B681A43204B98425C
:102DF00020D0B0F1804F1DD01E4B98421AD01E4BF0
:102E0000984217D01D4B984214D01D4B984211D0B8
:102E10001C4B98420ED01C4B98420BD01B4B984237
:102E200008D01B4B984205D01A4B984202D01A4B3F
:102E3000984203D122F44072CB681A4322F08003F7
:102E40004C6943EA04028B68C3620B688362084BD7
:102E5000984202D00A4B984201D10B690363036880
:102E600043F00403036001234361026010BD0000CE
:102E7000000001400004004000080040000C004039
:102E8000000401400040014000440140004801406E
:102E900000180040001C00400020004030B50C46E7
:102EA000816821F47F4142EA03252543294381605B
:102EB00030BD0A46816821F0700142F007031943D2
:102EC0008160704730B5026A056A25F00105056228
:102ED0004368846924F0700424F003040D682C43D3
:102EE00022F002028D682A43104DA84200D103E06F
:102EF0000F4DA84206D100BF22F00802CD682A4338
:102F000022F00402094DA84202D0094DA84207D17F
:102F100023F4807323F400734D692B438D692B4395
:102F2000436084614D684563026230BD000001402A
:102F30000004014030B5026A056A25F010050562FB
:102F40004368846924F4E04424F440740D6844EA3E
:102F5000052422F020028D6842EA0512124DA84293
:102F600000D103E0114DA84207D100BF22F080023A
:102F7000CD6842EA051222F040020B4DA84202D071
:102F80000A4DA84209D123F4806323F400634D69FC
:102F900043EA85038D6943EA8503436084614D6894
:102FA0008563026230BD0000000001400004014062
:102FB00030B5026A056A25F4807505624368C46904
:102FC00024F0700424F003040D682C4322F40072F2
:102FD0008D6842EA0522124DA84200D103E0114D4E
:102FE000A84207D100BF22F40062CD6842EA052260
:102FF00022F480620A4DA84202D00A4DA84209D1AB
:1030000023F4805323F400534D6943EA05138D697B
:1030100043EA05134360C4614D68C563026230BD75
:10302000000001400004014030B5036A056A25F440
:10303000805505624468C26922F4E04222F440727D
:103040000D6842EA052223F400538D6843EA0533F4
:10305000084DA84202D0084DA84204D124F480446F
:103060004D6944EA85144460C2614D680564036299
:1030700030BD0000000001400004014030B50B46A7
:103080001446026A056A25F001050562816921F08E
:10309000F00141EA041122F00A021A43816102623E
:1030A00030BD30B50B461446026A056A25F010059E
:1030B0000562816921F4704141EA043122F0A002E5
:1030C00042EA03128161026230BD00002DE9F84F2F
:1030D00004462068006920F44050E16808432168F4
:1030E00008612169A068084361690843E1690843F0
:1030F00000902068C06849F20C6188430099084339
:103100002168C8602068406920F44070A1690843C4
:103110002168486176492068884203D07549206853
:10312000884203D1FEF7EEFB814602E0FEF7DAFBB0
:103130008146E069B0F5004F6CD102206168A0FBC8
:10314000015003461920A9FB007001462A46384663
:10315000FDF78AF86421B0FBF1F04FEA001A022073
:103160006168A0FB01510B461920A9FB00712A469A
:103170003846FDF779F8834602206168A0FB0150CC
:1031800003461920A9FB00712A463846FDF76CF862
:103190006421B0FBF1F000EBC00101EB0010ABEBE0
:1031A0008000322101EBC0006421B0FBF1F000F09F
:1031B000F8000AEB400A02206168A0FB01500346B8
:1031C0001920A9FB007001462A463846FDF74CF845
:1031D000834602206168A0FB015003461920A9FB29
:1031E00000712A463846FDF73FF86421B0FBF1F044
:1031F00000EBC00101EB0010ABEB8000322101EBD2
:10320000C0006421B0FBF1F000F0070050442168D9
:1032100088606AE004206168A0FB01500346192021
:10322000A9FB007001462A463846FDF71DF8824684
:1032300004206168A0FB015003461920A9FB00701F
:1032400001462A463846FDF70FF86421B0FBF1F03D
:1032500000EBC00101EB0010AAEB8000322101EB72
:1032600000106421B0FBF1F000F0F00A0420616866
:10327000A0FB017003461920A9FB00513A462846DD
:10328000FCF7F2FF6421B0FBF1F00AEB001A042016
:103290006168A0FB01510B461920A9FB00712A4669
:1032A0003846FCF7E1FF834604206168A0FB01502B
:1032B00003461920A9FB007001462A463846FCF750
:1032C000D3FF6421B0FBF1F000EBC00101EB001073
:1032D000ABEB8000322101EB00106421B0FBF1F078
:1032E00000F00F00504421688860BDE8F88F0000AE
:1032F00000100140001401400FB470B504469DF861
:103300001900012818D1A06B20F48030A063E06878
:103310001B490840E060E06820F44010E0609DF840
:103320002000012803D1E06840F48010E0602046CE
:1033300000F028F8054613E0E06840F04000E06047
:10334000204600F01FF805469DF81D0020B9A06B2F
:1033500040F48030A06303E0A06B20F48030A063D1
:103360009DF81600012807D1A06840F00600A06073
:10337000A06840F02000A060284670BC5DF814FBF7
:10338000BFFFBDFF08B501460020009000BF0098B8
:10339000401C00900098B0F1706F01D9032008BD67
:1033A000086900F000400028F1D00A20009002E0F7
:1033B0000098401E009000980028F9D1086940F05C
:1033C0000100086100BF0098401C00900098B0F117
:1033D000706F01D90320E2E7086900F001000028BE
:1033E000F1D100BFDBE701460A46D2F8000E20F01B
:1033F0000300C2F8000E40F60400805840F00203BB
:1034000040F6040083500020704700000FB4F0B570
:10341000054600272E46002405E0002105F58270B0
:1034200040F82410641C0F2CF7D39DF82200A0B99B
:1034300040F60400805940F0020140F6040081513A
:10344000A86B40F40010A863A86B20F40020A863C8
:10345000A86B20F48020A86307E0A86B20F400107C
:10346000A863A86B40F40020A8630020C6F8000EF3
:103470009DF81D0001280CD19DF81B0020B90021EA
:10348000284600F049F908E00121284600F044F9F7
:1034900003E00321284600F03FF91021284600F000
:1034A000D8F800B10127284600F0ABF800B1012799
:1034B00000214FF401608151001D815140F61C0034
:1034C000815100242EE006F5106000EB44100068E6
:1034D00000F00040B0F1004F10D13CB94FF0006156
:1034E00006F5106000EB441001600DE04FF09041D4
:1034F00006F5106000EB4410016005E0002106F5C0
:10350000106000EB44100160002106F5106000EB34
:10351000441001614FF67F3106F5106000EB441056
:103520008160641C9DF81800A042CCD800242EE0D5
:1035300006F5306000EB4410006800F00040B0F188
:10354000004F10D13CB94FF0006106F5306000EB40
:10355000441001600DE04FF0904106F5306000EB43
:103560004410016005E0002106F5306000EB4410D6
:103570000160002106F5306000EB441001614FF658
:103580007F3106F5306000EB44108160641C9DF8CB
:103590001800A042CCD84FF40160805920F480710B
:1035A0004FF4016081510020A8616FF08040686194
:1035B0009DF81A0018B9A86940F01000A861A86920
:1035C0000A490843A8619DF81E0018B1A86940F097
:1035D0000800A8619DF82200012803D1A8690449C8
:1035E0000843A8613846F0BC5DF814FB00383C8005
:1035F000040000400146886820F001008860002037
:10360000704708B501460020009000BF0098401C9C
:1036100000900098B0F1706F01D9032008BD0869CF
:1036200000F000400028F1D0002000901020086138
:1036300000BF0098401C00900098B0F1706F01D955
:103640000320EBE7086900F010001028F1D00020FB
:10365000E4E708B502460020009000BF0098401C37
:1036600000900098B0F1706F01D9032008BD106977
:1036700000F000400028F1D000200090202040EA17
:103680008110106100BF0098401C00900098B0F1BC
:10369000706F01D90320E9E7106900F020002028AD
:1036A000F1D00020E2E70146486900F001007047D0
:1036B00070B504460E460025E06820F0C040E0608A
:1036C000012E10D1E06840F00050E06000BF0A20F9
:1036D000FDF748FD0A352046FFF7E5FF012815D024
:1036E000C82DF4D312E07EB9E06840F08040E0607D
:1036F00000BF0A20FDF736FD0A352046FFF7D3FF4D
:1037000020B1C82DF5D301E0012070BDC82D01D135
:103710000120FAE70020F8E702461346D3F8000834
:103720000843C3F800080020704700BFFEE7000010
:1037300002480068C0F30220704700000CED00E072
:1037400010B5002804DB0A07130E054A135406E0DF
:103750000A07140E034A00F00F031B1FD45410BDB8
:1037600000E400E018ED00E0FDF722FEFFF7B8FAF4
:10377000FFF708F9FFF7EAF8FFF7B0F9FFF78CF960
:10378000FFF76AFAFFF716F8FFF786F8FFF780FAF7
:10379000FFF72CFA00BFFEE74FF04070E1EE100A91
:1037A000704700000000000000000102030406074B
:1037B00008090000000001020304000610160006BC
:1037C00010160000E4370008000000201000000080
:1037D000C4010008F437000810000020680D000044
:1037E000E00100080024F4000000000010000000C8
:0437F00001000000D4
:040000050800018965
:00000001FF
